{
  "contractName": "ComToken",
  "abi": [
    {
      "inputs": [
        {
          "internalType": "string",
          "name": "name",
          "type": "string"
        },
        {
          "internalType": "string",
          "name": "symbol",
          "type": "string"
        },
        {
          "internalType": "address",
          "name": "_proxyRegistryAddress",
          "type": "address"
        }
      ],
      "payable": false,
      "stateMutability": "nonpayable",
      "type": "constructor"
    },
    {
      "anonymous": false,
      "inputs": [
        {
          "indexed": true,
          "internalType": "address",
          "name": "owner",
          "type": "address"
        },
        {
          "indexed": true,
          "internalType": "address",
          "name": "approved",
          "type": "address"
        },
        {
          "indexed": true,
          "internalType": "uint256",
          "name": "tokenId",
          "type": "uint256"
        }
      ],
      "name": "Approval",
      "type": "event"
    },
    {
      "anonymous": false,
      "inputs": [
        {
          "indexed": true,
          "internalType": "address",
          "name": "owner",
          "type": "address"
        },
        {
          "indexed": true,
          "internalType": "address",
          "name": "operator",
          "type": "address"
        },
        {
          "indexed": false,
          "internalType": "bool",
          "name": "approved",
          "type": "bool"
        }
      ],
      "name": "ApprovalForAll",
      "type": "event"
    },
    {
      "anonymous": false,
      "inputs": [
        {
          "indexed": true,
          "internalType": "address",
          "name": "_buyer",
          "type": "address"
        },
        {
          "indexed": true,
          "internalType": "address",
          "name": "_recipient",
          "type": "address"
        },
        {
          "indexed": false,
          "internalType": "uint256",
          "name": "_tokenId",
          "type": "uint256"
        }
      ],
      "name": "BuyToken",
      "type": "event"
    },
    {
      "anonymous": false,
      "inputs": [
        {
          "indexed": true,
          "internalType": "address",
          "name": "operator",
          "type": "address"
        },
        {
          "indexed": true,
          "internalType": "uint256",
          "name": "typeId",
          "type": "uint256"
        },
        {
          "indexed": false,
          "internalType": "string",
          "name": "newURI",
          "type": "string"
        }
      ],
      "name": "ChangeBaseURI",
      "type": "event"
    },
    {
      "anonymous": false,
      "inputs": [
        {
          "indexed": true,
          "internalType": "address",
          "name": "operator",
          "type": "address"
        },
        {
          "indexed": true,
          "internalType": "uint256",
          "name": "typeId",
          "type": "uint256"
        },
        {
          "indexed": false,
          "internalType": "uint256",
          "name": "newPrice",
          "type": "uint256"
        }
      ],
      "name": "ChangePrice",
      "type": "event"
    },
    {
      "anonymous": false,
      "inputs": [
        {
          "indexed": true,
          "internalType": "address",
          "name": "creator",
          "type": "address"
        },
        {
          "indexed": false,
          "internalType": "uint256",
          "name": "typeId",
          "type": "uint256"
        }
      ],
      "name": "CreateToken",
      "type": "event"
    },
    {
      "anonymous": false,
      "inputs": [
        {
          "indexed": true,
          "internalType": "address",
          "name": "_operator",
          "type": "address"
        },
        {
          "indexed": true,
          "internalType": "uint256",
          "name": "typeId",
          "type": "uint256"
        }
      ],
      "name": "MintToken",
      "type": "event"
    },
    {
      "anonymous": false,
      "inputs": [
        {
          "indexed": true,
          "internalType": "address",
          "name": "previousOwner",
          "type": "address"
        },
        {
          "indexed": true,
          "internalType": "address",
          "name": "newOwner",
          "type": "address"
        }
      ],
      "name": "OwnershipTransferred",
      "type": "event"
    },
    {
      "anonymous": false,
      "inputs": [
        {
          "indexed": true,
          "internalType": "address",
          "name": "from",
          "type": "address"
        },
        {
          "indexed": true,
          "internalType": "address",
          "name": "to",
          "type": "address"
        },
        {
          "indexed": true,
          "internalType": "uint256",
          "name": "tokenId",
          "type": "uint256"
        }
      ],
      "name": "Transfer",
      "type": "event"
    },
    {
      "constant": false,
      "inputs": [
        {
          "internalType": "address",
          "name": "to",
          "type": "address"
        },
        {
          "internalType": "uint256",
          "name": "tokenId",
          "type": "uint256"
        }
      ],
      "name": "approve",
      "outputs": [],
      "payable": false,
      "stateMutability": "nonpayable",
      "type": "function"
    },
    {
      "constant": true,
      "inputs": [
        {
          "internalType": "address",
          "name": "owner",
          "type": "address"
        }
      ],
      "name": "balanceOf",
      "outputs": [
        {
          "internalType": "uint256",
          "name": "",
          "type": "uint256"
        }
      ],
      "payable": false,
      "stateMutability": "view",
      "type": "function"
    },
    {
      "constant": true,
      "inputs": [],
      "name": "baseURI",
      "outputs": [
        {
          "internalType": "string",
          "name": "",
          "type": "string"
        }
      ],
      "payable": false,
      "stateMutability": "view",
      "type": "function"
    },
    {
      "constant": true,
      "inputs": [
        {
          "internalType": "uint256",
          "name": "tokenId",
          "type": "uint256"
        }
      ],
      "name": "getApproved",
      "outputs": [
        {
          "internalType": "address",
          "name": "",
          "type": "address"
        }
      ],
      "payable": false,
      "stateMutability": "view",
      "type": "function"
    },
    {
      "constant": true,
      "inputs": [],
      "name": "isOwner",
      "outputs": [
        {
          "internalType": "bool",
          "name": "",
          "type": "bool"
        }
      ],
      "payable": false,
      "stateMutability": "view",
      "type": "function"
    },
    {
      "constant": true,
      "inputs": [],
      "name": "name",
      "outputs": [
        {
          "internalType": "string",
          "name": "",
          "type": "string"
        }
      ],
      "payable": false,
      "stateMutability": "view",
      "type": "function"
    },
    {
      "constant": true,
      "inputs": [
        {
          "internalType": "address",
          "name": "",
          "type": "address"
        },
        {
          "internalType": "uint256",
          "name": "",
          "type": "uint256"
        }
      ],
      "name": "nftTypes",
      "outputs": [
        {
          "internalType": "uint256",
          "name": "",
          "type": "uint256"
        }
      ],
      "payable": false,
      "stateMutability": "view",
      "type": "function"
    },
    {
      "constant": true,
      "inputs": [],
      "name": "nonce",
      "outputs": [
        {
          "internalType": "uint256",
          "name": "",
          "type": "uint256"
        }
      ],
      "payable": false,
      "stateMutability": "view",
      "type": "function"
    },
    {
      "constant": true,
      "inputs": [],
      "name": "owner",
      "outputs": [
        {
          "internalType": "address",
          "name": "",
          "type": "address"
        }
      ],
      "payable": false,
      "stateMutability": "view",
      "type": "function"
    },
    {
      "constant": true,
      "inputs": [
        {
          "internalType": "uint256",
          "name": "tokenId",
          "type": "uint256"
        }
      ],
      "name": "ownerOf",
      "outputs": [
        {
          "internalType": "address",
          "name": "",
          "type": "address"
        }
      ],
      "payable": false,
      "stateMutability": "view",
      "type": "function"
    },
    {
      "constant": false,
      "inputs": [],
      "name": "renounceOwnership",
      "outputs": [],
      "payable": false,
      "stateMutability": "nonpayable",
      "type": "function"
    },
    {
      "constant": false,
      "inputs": [
        {
          "internalType": "address",
          "name": "from",
          "type": "address"
        },
        {
          "internalType": "address",
          "name": "to",
          "type": "address"
        },
        {
          "internalType": "uint256",
          "name": "tokenId",
          "type": "uint256"
        }
      ],
      "name": "safeTransferFrom",
      "outputs": [],
      "payable": false,
      "stateMutability": "nonpayable",
      "type": "function"
    },
    {
      "constant": false,
      "inputs": [
        {
          "internalType": "address",
          "name": "from",
          "type": "address"
        },
        {
          "internalType": "address",
          "name": "to",
          "type": "address"
        },
        {
          "internalType": "uint256",
          "name": "tokenId",
          "type": "uint256"
        },
        {
          "internalType": "bytes",
          "name": "_data",
          "type": "bytes"
        }
      ],
      "name": "safeTransferFrom",
      "outputs": [],
      "payable": false,
      "stateMutability": "nonpayable",
      "type": "function"
    },
    {
      "constant": false,
      "inputs": [
        {
          "internalType": "address",
          "name": "to",
          "type": "address"
        },
        {
          "internalType": "bool",
          "name": "approved",
          "type": "bool"
        }
      ],
      "name": "setApprovalForAll",
      "outputs": [],
      "payable": false,
      "stateMutability": "nonpayable",
      "type": "function"
    },
    {
      "constant": true,
      "inputs": [
        {
          "internalType": "bytes4",
          "name": "interfaceId",
          "type": "bytes4"
        }
      ],
      "name": "supportsInterface",
      "outputs": [
        {
          "internalType": "bool",
          "name": "",
          "type": "bool"
        }
      ],
      "payable": false,
      "stateMutability": "view",
      "type": "function"
    },
    {
      "constant": true,
      "inputs": [],
      "name": "symbol",
      "outputs": [
        {
          "internalType": "string",
          "name": "",
          "type": "string"
        }
      ],
      "payable": false,
      "stateMutability": "view",
      "type": "function"
    },
    {
      "constant": true,
      "inputs": [
        {
          "internalType": "uint256",
          "name": "index",
          "type": "uint256"
        }
      ],
      "name": "tokenByIndex",
      "outputs": [
        {
          "internalType": "uint256",
          "name": "",
          "type": "uint256"
        }
      ],
      "payable": false,
      "stateMutability": "view",
      "type": "function"
    },
    {
      "constant": true,
      "inputs": [
        {
          "internalType": "uint256",
          "name": "",
          "type": "uint256"
        }
      ],
      "name": "tokenInfos",
      "outputs": [
        {
          "internalType": "address",
          "name": "creator",
          "type": "address"
        },
        {
          "internalType": "uint256",
          "name": "amount",
          "type": "uint256"
        },
        {
          "internalType": "uint256",
          "name": "buyAmount",
          "type": "uint256"
        },
        {
          "internalType": "uint256",
          "name": "limit",
          "type": "uint256"
        },
        {
          "internalType": "uint256",
          "name": "buyLimit",
          "type": "uint256"
        },
        {
          "internalType": "uint256",
          "name": "price",
          "type": "uint256"
        },
        {
          "internalType": "address payable",
          "name": "beneficiary",
          "type": "address"
        },
        {
          "internalType": "string",
          "name": "baseURI",
          "type": "string"
        },
        {
          "internalType": "string",
          "name": "icon",
          "type": "string"
        }
      ],
      "payable": false,
      "stateMutability": "view",
      "type": "function"
    },
    {
      "constant": true,
      "inputs": [
        {
          "internalType": "address",
          "name": "owner",
          "type": "address"
        },
        {
          "internalType": "uint256",
          "name": "index",
          "type": "uint256"
        }
      ],
      "name": "tokenOfOwnerByIndex",
      "outputs": [
        {
          "internalType": "uint256",
          "name": "",
          "type": "uint256"
        }
      ],
      "payable": false,
      "stateMutability": "view",
      "type": "function"
    },
    {
      "constant": true,
      "inputs": [],
      "name": "totalSupply",
      "outputs": [
        {
          "internalType": "uint256",
          "name": "",
          "type": "uint256"
        }
      ],
      "payable": false,
      "stateMutability": "view",
      "type": "function"
    },
    {
      "constant": false,
      "inputs": [
        {
          "internalType": "address",
          "name": "from",
          "type": "address"
        },
        {
          "internalType": "address",
          "name": "to",
          "type": "address"
        },
        {
          "internalType": "uint256",
          "name": "tokenId",
          "type": "uint256"
        }
      ],
      "name": "transferFrom",
      "outputs": [],
      "payable": false,
      "stateMutability": "nonpayable",
      "type": "function"
    },
    {
      "constant": false,
      "inputs": [
        {
          "internalType": "address",
          "name": "newOwner",
          "type": "address"
        }
      ],
      "name": "transferOwnership",
      "outputs": [],
      "payable": false,
      "stateMutability": "nonpayable",
      "type": "function"
    },
    {
      "constant": true,
      "inputs": [
        {
          "internalType": "uint256",
          "name": "_typeId",
          "type": "uint256"
        }
      ],
      "name": "isType",
      "outputs": [
        {
          "internalType": "bool",
          "name": "",
          "type": "bool"
        }
      ],
      "payable": false,
      "stateMutability": "view",
      "type": "function"
    },
    {
      "constant": true,
      "inputs": [
        {
          "internalType": "uint256",
          "name": "_tokenId",
          "type": "uint256"
        }
      ],
      "name": "getType",
      "outputs": [
        {
          "internalType": "uint256",
          "name": "",
          "type": "uint256"
        }
      ],
      "payable": false,
      "stateMutability": "pure",
      "type": "function"
    },
    {
      "constant": true,
      "inputs": [
        {
          "internalType": "uint256",
          "name": "_tokenId",
          "type": "uint256"
        }
      ],
      "name": "getTypeBase",
      "outputs": [
        {
          "internalType": "uint256",
          "name": "",
          "type": "uint256"
        }
      ],
      "payable": false,
      "stateMutability": "pure",
      "type": "function"
    },
    {
      "constant": true,
      "inputs": [
        {
          "internalType": "uint256",
          "name": "_tokenId",
          "type": "uint256"
        }
      ],
      "name": "getTokenIdBase",
      "outputs": [
        {
          "internalType": "uint256",
          "name": "",
          "type": "uint256"
        }
      ],
      "payable": false,
      "stateMutability": "pure",
      "type": "function"
    },
    {
      "constant": true,
      "inputs": [
        {
          "internalType": "uint256",
          "name": "_tokenId",
          "type": "uint256"
        }
      ],
      "name": "isExisted",
      "outputs": [
        {
          "internalType": "bool",
          "name": "",
          "type": "bool"
        }
      ],
      "payable": false,
      "stateMutability": "view",
      "type": "function"
    },
    {
      "constant": true,
      "inputs": [
        {
          "internalType": "uint256",
          "name": "_nonce",
          "type": "uint256"
        }
      ],
      "name": "getInfoByNonce",
      "outputs": [
        {
          "internalType": "address[2]",
          "name": "addrs",
          "type": "address[2]"
        },
        {
          "internalType": "uint256[5]",
          "name": "nums",
          "type": "uint256[5]"
        }
      ],
      "payable": false,
      "stateMutability": "view",
      "type": "function"
    },
    {
      "constant": true,
      "inputs": [
        {
          "internalType": "uint256",
          "name": "_nonce",
          "type": "uint256"
        }
      ],
      "name": "getTypeURI",
      "outputs": [
        {
          "internalType": "string",
          "name": "",
          "type": "string"
        }
      ],
      "payable": false,
      "stateMutability": "view",
      "type": "function"
    },
    {
      "constant": true,
      "inputs": [
        {
          "internalType": "uint256",
          "name": "_nonce",
          "type": "uint256"
        }
      ],
      "name": "getTypeSVG",
      "outputs": [
        {
          "internalType": "string",
          "name": "",
          "type": "string"
        }
      ],
      "payable": false,
      "stateMutability": "view",
      "type": "function"
    },
    {
      "constant": true,
      "inputs": [
        {
          "internalType": "uint256",
          "name": "_tokenId",
          "type": "uint256"
        }
      ],
      "name": "tokenURI",
      "outputs": [
        {
          "internalType": "string",
          "name": "",
          "type": "string"
        }
      ],
      "payable": false,
      "stateMutability": "view",
      "type": "function"
    },
    {
      "constant": true,
      "inputs": [
        {
          "internalType": "uint256",
          "name": "_tokenId",
          "type": "uint256"
        }
      ],
      "name": "getTokenImageSvg",
      "outputs": [
        {
          "internalType": "string",
          "name": "",
          "type": "string"
        }
      ],
      "payable": false,
      "stateMutability": "view",
      "type": "function"
    },
    {
      "constant": true,
      "inputs": [
        {
          "internalType": "address",
          "name": "_creator",
          "type": "address"
        }
      ],
      "name": "getUserCreated",
      "outputs": [
        {
          "internalType": "uint256",
          "name": "",
          "type": "uint256"
        }
      ],
      "payable": false,
      "stateMutability": "view",
      "type": "function"
    },
    {
      "constant": true,
      "inputs": [
        {
          "internalType": "address",
          "name": "_creator",
          "type": "address"
        }
      ],
      "name": "getUserAllCreated",
      "outputs": [
        {
          "internalType": "uint256[]",
          "name": "",
          "type": "uint256[]"
        }
      ],
      "payable": false,
      "stateMutability": "view",
      "type": "function"
    },
    {
      "constant": false,
      "inputs": [
        {
          "internalType": "uint256",
          "name": "_limit",
          "type": "uint256"
        },
        {
          "internalType": "uint256",
          "name": "_buyLimt",
          "type": "uint256"
        },
        {
          "internalType": "uint256",
          "name": "_price",
          "type": "uint256"
        },
        {
          "internalType": "address payable",
          "name": "_beneficiary",
          "type": "address"
        },
        {
          "internalType": "string",
          "name": "_baseURI",
          "type": "string"
        },
        {
          "internalType": "string",
          "name": "_icon",
          "type": "string"
        }
      ],
      "name": "createToken",
      "outputs": [
        {
          "internalType": "uint256",
          "name": "_typeId",
          "type": "uint256"
        }
      ],
      "payable": false,
      "stateMutability": "nonpayable",
      "type": "function"
    },
    {
      "constant": false,
      "inputs": [
        {
          "internalType": "uint256",
          "name": "typeId",
          "type": "uint256"
        },
        {
          "internalType": "address",
          "name": "recipient",
          "type": "address"
        }
      ],
      "name": "buyToken",
      "outputs": [],
      "payable": true,
      "stateMutability": "payable",
      "type": "function"
    },
    {
      "constant": false,
      "inputs": [
        {
          "internalType": "uint256",
          "name": "typeId",
          "type": "uint256"
        },
        {
          "internalType": "address[]",
          "name": "to",
          "type": "address[]"
        }
      ],
      "name": "mintToken",
      "outputs": [],
      "payable": false,
      "stateMutability": "nonpayable",
      "type": "function"
    },
    {
      "constant": false,
      "inputs": [
        {
          "internalType": "uint256",
          "name": "typeId",
          "type": "uint256"
        },
        {
          "internalType": "uint256",
          "name": "newPrice",
          "type": "uint256"
        }
      ],
      "name": "changePrice",
      "outputs": [],
      "payable": false,
      "stateMutability": "nonpayable",
      "type": "function"
    },
    {
      "constant": false,
      "inputs": [
        {
          "internalType": "uint256",
          "name": "typeId",
          "type": "uint256"
        },
        {
          "internalType": "string",
          "name": "_url",
          "type": "string"
        }
      ],
      "name": "changeBaseURI",
      "outputs": [],
      "payable": false,
      "stateMutability": "nonpayable",
      "type": "function"
    },
    {
      "constant": true,
      "inputs": [
        {
          "internalType": "address",
          "name": "owner",
          "type": "address"
        }
      ],
      "name": "getBalances",
      "outputs": [
        {
          "internalType": "uint256[]",
          "name": "",
          "type": "uint256[]"
        }
      ],
      "payable": false,
      "stateMutability": "view",
      "type": "function"
    },
    {
      "constant": true,
      "inputs": [
        {
          "internalType": "address",
          "name": "owner",
          "type": "address"
        },
        {
          "internalType": "address",
          "name": "operator",
          "type": "address"
        }
      ],
      "name": "isApprovedForAll",
      "outputs": [
        {
          "internalType": "bool",
          "name": "",
          "type": "bool"
        }
      ],
      "payable": false,
      "stateMutability": "view",
      "type": "function"
    }
  ],
  "bytecode": "0x60806040523480156200001157600080fd5b506040516200609d3803806200609d833981810160405260608110156200003757600080fd5b81019080805160405193929190846401000000008211156200005857600080fd5b838201915060208201858111156200006f57600080fd5b82518660018202830111640100000000821117156200008d57600080fd5b8083526020830192505050908051906020019080838360005b83811015620000c3578082015181840152602081019050620000a6565b50505050905090810190601f168015620000f15780820380516001836020036101000a031916815260200191505b50604052602001805160405193929190846401000000008211156200011557600080fd5b838201915060208201858111156200012c57600080fd5b82518660018202830111640100000000821117156200014a57600080fd5b8083526020830192505050908051906020019080838360005b838110156200018057808201518184015260208101905062000163565b50505050905090810190601f168015620001ae5780820380516001836020036101000a031916815260200191505b506040526020018051906020019092919050505082828181620001de6301ffc9a760e01b6200042b60201b60201c565b620001f66380ac58cd60e01b6200042b60201b60201c565b6200020e63780e9d6360e01b6200042b60201b60201c565b8160099080519060200190620002269291906200053c565b5080600a90805190602001906200023f9291906200053c565b5062000258635b5e139f60e01b6200042b60201b60201c565b5050505060006200026e6200053460201b60201c565b905080600d60006101000a81548173ffffffffffffffffffffffffffffffffffffffff021916908373ffffffffffffffffffffffffffffffffffffffff1602179055508073ffffffffffffffffffffffffffffffffffffffff16600073ffffffffffffffffffffffffffffffffffffffff167f8be0079c531659141344cd1fd0a4f28419497f9722a3daafe3b4186f6b6457e060405160405180910390a350600073ffffffffffffffffffffffffffffffffffffffff168173ffffffffffffffffffffffffffffffffffffffff161415620003b1576040517f08c379a00000000000000000000000000000000000000000000000000000000081526004018080602001828103825260168152602001807f436f6d546f6b656e3a205a65726f20416464726573730000000000000000000081525060200191505060405180910390fd5b80600e60006101000a81548173ffffffffffffffffffffffffffffffffffffffff021916908373ffffffffffffffffffffffffffffffffffffffff1602179055506200040a63c84aae1760e01b6200042b60201b60201c565b620004226387d2f48c60e01b6200042b60201b60201c565b505050620005eb565b63ffffffff60e01b817bffffffffffffffffffffffffffffffffffffffffffffffffffffffff19161415620004c8576040517f08c379a000000000000000000000000000000000000000000000000000000000815260040180806020018281038252601c8152602001807f4552433136353a20696e76616c696420696e746572666163652069640000000081525060200191505060405180910390fd5b6001600080837bffffffffffffffffffffffffffffffffffffffffffffffffffffffff19167bffffffffffffffffffffffffffffffffffffffffffffffffffffffff1916815260200190815260200160002060006101000a81548160ff02191690831515021790555050565b600033905090565b828054600181600116156101000203166002900490600052602060002090601f016020900481019282601f106200057f57805160ff1916838001178555620005b0565b82800160010185558215620005b0579182015b82811115620005af57825182559160200191906001019062000592565b5b509050620005bf9190620005c3565b5090565b620005e891905b80821115620005e4576000816000905550600101620005ca565b5090565b90565b615aa280620005fb6000396000f3fe6080604052600436106102465760003560e01c806387d2f48c11610139578063affed0e0116100b6578063c84aae171161007a578063c84aae17146113ae578063c87b56dd14611454578063c92926fc14611508578063e1ba8bba14611598578063e985e9c5146115eb578063f2fde38b1461167457610246565b8063affed0e014611113578063b3de019c1461113e578063b88d4fde14611183578063bab92ba714611295578063c3e38a2f1461134957610246565b80639134709e116100fd5780639134709e14610ed957806395d89b4114610f275780639cf1e72714610fb7578063a22cb46514611026578063a5ce883a1461108357610246565b806387d2f48c14610bcc5780638da5cb5b14610c805780638f32d59b14610cd75780638f4af57a14610d065780638fd87ad014610e3357610246565b80634036ab78116101c75780636c0360eb1161018b5780636c0360eb146108c857806370a0823114610958578063715018a6146109bd5780637656c5a9146109d45780637c13774b14610a2357610246565b80634036ab78146106e557806342842e0e14610734578063476f1667146107af5780634f6ccce7146107fe5780636352211e1461084d57610246565b806309e1416d1161020e57806309e1416d146104c957806318160ddd1461057d57806323b872dd146105a85780632582a616146106235780632f745c591461067657610246565b806301ffc9a71461024b57806303b54c52146102bd57806306fdde0314610363578063081812fc146103f3578063095ea7b31461046e575b600080fd5b34801561025757600080fd5b506102a36004803603602081101561026e57600080fd5b8101908080357bffffffffffffffffffffffffffffffffffffffffffffffffffffffff191690602001909291905050506116c5565b604051808215151515815260200191505060405180910390f35b3480156102c957600080fd5b5061030c600480360360208110156102e057600080fd5b81019080803573ffffffffffffffffffffffffffffffffffffffff16906020019092919050505061172c565b6040518080602001828103825283818151815260200191508051906020019060200280838360005b8381101561034f578082015181840152602081019050610334565b505050509050019250505060405180910390f35b34801561036f57600080fd5b506103786117c3565b6040518080602001828103825283818151815260200191508051906020019080838360005b838110156103b857808201518184015260208101905061039d565b50505050905090810190601f1680156103e55780820380516001836020036101000a031916815260200191505b509250505060405180910390f35b3480156103ff57600080fd5b5061042c6004803603602081101561041657600080fd5b8101908080359060200190929190505050611865565b604051808273ffffffffffffffffffffffffffffffffffffffff1673ffffffffffffffffffffffffffffffffffffffff16815260200191505060405180910390f35b34801561047a57600080fd5b506104c76004803603604081101561049157600080fd5b81019080803573ffffffffffffffffffffffffffffffffffffffff16906020019092919080359060200190929190505050611900565b005b3480156104d557600080fd5b50610502600480360360208110156104ec57600080fd5b8101908080359060200190929190505050611ae7565b6040518080602001828103825283818151815260200191508051906020019080838360005b83811015610542578082015181840152602081019050610527565b50505050905090810190601f16801561056f5780820380516001836020036101000a031916815260200191505b509250505060405180910390f35b34801561058957600080fd5b50610592611c2d565b6040518082815260200191505060405180910390f35b3480156105b457600080fd5b50610621600480360360608110156105cb57600080fd5b81019080803573ffffffffffffffffffffffffffffffffffffffff169060200190929190803573ffffffffffffffffffffffffffffffffffffffff16906020019092919080359060200190929190505050611c3a565b005b34801561062f57600080fd5b5061065c6004803603602081101561064657600080fd5b8101908080359060200190929190505050611cb0565b604051808215151515815260200191505060405180910390f35b34801561068257600080fd5b506106cf6004803603604081101561069957600080fd5b81019080803573ffffffffffffffffffffffffffffffffffffffff16906020019092919080359060200190929190505050611d1e565b6040518082815260200191505060405180910390f35b3480156106f157600080fd5b5061071e6004803603602081101561070857600080fd5b8101908080359060200190929190505050611ddd565b6040518082815260200191505060405180910390f35b34801561074057600080fd5b506107ad6004803603606081101561075757600080fd5b81019080803573ffffffffffffffffffffffffffffffffffffffff169060200190929190803573ffffffffffffffffffffffffffffffffffffffff16906020019092919080359060200190929190505050611e1f565b005b3480156107bb57600080fd5b506107e8600480360360208110156107d257600080fd5b8101908080359060200190929190505050611e3f565b6040518082815260200191505060405180910390f35b34801561080a57600080fd5b506108376004803603602081101561082157600080fd5b8101908080359060200190929190505050611e84565b6040518082815260200191505060405180910390f35b34801561085957600080fd5b506108866004803603602081101561087057600080fd5b8101908080359060200190929190505050611f04565b604051808273ffffffffffffffffffffffffffffffffffffffff1673ffffffffffffffffffffffffffffffffffffffff16815260200191505060405180910390f35b3480156108d457600080fd5b506108dd611fcc565b6040518080602001828103825283818151815260200191508051906020019080838360005b8381101561091d578082015181840152602081019050610902565b50505050905090810190601f16801561094a5780820380516001836020036101000a031916815260200191505b509250505060405180910390f35b34801561096457600080fd5b506109a76004803603602081101561097b57600080fd5b81019080803573ffffffffffffffffffffffffffffffffffffffff16906020019092919050505061206e565b6040518082815260200191505060405180910390f35b3480156109c957600080fd5b506109d2612143565b005b3480156109e057600080fd5b50610a0d600480360360208110156109f757600080fd5b810190808035906020019092919050505061227e565b6040518082815260200191505060405180910390f35b348015610a2f57600080fd5b50610a5c60048036036020811015610a4657600080fd5b81019080803590602001909291905050506122bc565b604051808a73ffffffffffffffffffffffffffffffffffffffff1673ffffffffffffffffffffffffffffffffffffffff1681526020018981526020018881526020018781526020018681526020018581526020018473ffffffffffffffffffffffffffffffffffffffff1673ffffffffffffffffffffffffffffffffffffffff1681526020018060200180602001838103835285818151815260200191508051906020019080838360005b83811015610b22578082015181840152602081019050610b07565b50505050905090810190601f168015610b4f5780820380516001836020036101000a031916815260200191505b50838103825284818151815260200191508051906020019080838360005b83811015610b88578082015181840152602081019050610b6d565b50505050905090810190601f168015610bb55780820380516001836020036101000a031916815260200191505b509b50505050505050505050505060405180910390f35b348015610bd857600080fd5b50610c0560048036036020811015610bef57600080fd5b810190808035906020019092919050505061247a565b6040518080602001828103825283818151815260200191508051906020019080838360005b83811015610c45578082015181840152602081019050610c2a565b50505050905090810190601f168015610c725780820380516001836020036101000a031916815260200191505b509250505060405180910390f35b348015610c8c57600080fd5b50610c95612540565b604051808273ffffffffffffffffffffffffffffffffffffffff1673ffffffffffffffffffffffffffffffffffffffff16815260200191505060405180910390f35b348015610ce357600080fd5b50610cec61256a565b604051808215151515815260200191505060405180910390f35b348015610d1257600080fd5b50610e1d600480360360c0811015610d2957600080fd5b81019080803590602001909291908035906020019092919080359060200190929190803573ffffffffffffffffffffffffffffffffffffffff16906020019092919080359060200190640100000000811115610d8457600080fd5b820183602082011115610d9657600080fd5b80359060200191846001830284011164010000000083111715610db857600080fd5b909192939192939080359060200190640100000000811115610dd957600080fd5b820183602082011115610deb57600080fd5b80359060200191846001830284011164010000000083111715610e0d57600080fd5b90919293919293905050506125c9565b6040518082815260200191505060405180910390f35b348015610e3f57600080fd5b50610e6c60048036036020811015610e5657600080fd5b8101908080359060200190929190505050612b79565b6040518083600260200280838360005b83811015610e97578082015181840152602081019050610e7c565b5050505090500182600560200280838360005b83811015610ec5578082015181840152602081019050610eaa565b505050509050019250505060405180910390f35b610f2560048036036040811015610eef57600080fd5b8101908080359060200190929190803573ffffffffffffffffffffffffffffffffffffffff169060200190929190505050612f81565b005b348015610f3357600080fd5b50610f3c61321c565b6040518080602001828103825283818151815260200191508051906020019080838360005b83811015610f7c578082015181840152602081019050610f61565b50505050905090810190601f168015610fa95780820380516001836020036101000a031916815260200191505b509250505060405180910390f35b348015610fc357600080fd5b5061101060048036036040811015610fda57600080fd5b81019080803573ffffffffffffffffffffffffffffffffffffffff169060200190929190803590602001909291905050506132be565b6040518082815260200191505060405180910390f35b34801561103257600080fd5b506110816004803603604081101561104957600080fd5b81019080803573ffffffffffffffffffffffffffffffffffffffff1690602001909291908035151590602001909291905050506132ec565b005b34801561108f57600080fd5b50611111600480360360408110156110a657600080fd5b8101908080359060200190929190803590602001906401000000008111156110cd57600080fd5b8201836020820111156110df57600080fd5b8035906020019184602083028401116401000000008311171561110157600080fd5b90919293919293905050506134a4565b005b34801561111f57600080fd5b50611128613703565b6040518082815260200191505060405180910390f35b34801561114a57600080fd5b506111816004803603604081101561116157600080fd5b810190808035906020019092919080359060200190929190505050613709565b005b34801561118f57600080fd5b50611293600480360360808110156111a657600080fd5b81019080803573ffffffffffffffffffffffffffffffffffffffff169060200190929190803573ffffffffffffffffffffffffffffffffffffffff169060200190929190803590602001909291908035906020019064010000000081111561120d57600080fd5b82018360208201111561121f57600080fd5b8035906020019184600183028401116401000000008311171561124157600080fd5b91908080601f016020809104026020016040519081016040528093929190818152602001838380828437600081840152601f19601f820116905080830192505050505050509192919290505050613881565b005b3480156112a157600080fd5b506112ce600480360360208110156112b857600080fd5b81019080803590602001909291905050506138f9565b6040518080602001828103825283818151815260200191508051906020019080838360005b8381101561130e5780820151818401526020810190506112f3565b50505050905090810190601f16801561133b5780820380516001836020036101000a031916815260200191505b509250505060405180910390f35b34801561135557600080fd5b506113986004803603602081101561136c57600080fd5b81019080803573ffffffffffffffffffffffffffffffffffffffff169060200190929190505050613a3f565b6040518082815260200191505060405180910390f35b3480156113ba57600080fd5b506113fd600480360360208110156113d157600080fd5b81019080803573ffffffffffffffffffffffffffffffffffffffff169060200190929190505050613a8b565b6040518080602001828103825283818151815260200191508051906020019060200280838360005b83811015611440578082015181840152602081019050611425565b505050509050019250505060405180910390f35b34801561146057600080fd5b5061148d6004803603602081101561147757600080fd5b8101908080359060200190929190505050613aec565b6040518080602001828103825283818151815260200191508051906020019080838360005b838110156114cd5780820151818401526020810190506114b2565b50505050905090810190601f1680156114fa5780820380516001836020036101000a031916815260200191505b509250505060405180910390f35b34801561151457600080fd5b506115966004803603604081101561152b57600080fd5b81019080803590602001909291908035906020019064010000000081111561155257600080fd5b82018360208201111561156457600080fd5b8035906020019184600183028401116401000000008311171561158657600080fd5b9091929391929390505050613c44565b005b3480156115a457600080fd5b506115d1600480360360208110156115bb57600080fd5b8101908080359060200190929190505050613df4565b604051808215151515815260200191505060405180910390f35b3480156115f757600080fd5b5061165a6004803603604081101561160e57600080fd5b81019080803573ffffffffffffffffffffffffffffffffffffffff169060200190929190803573ffffffffffffffffffffffffffffffffffffffff169060200190929190505050613e66565b604051808215151515815260200191505060405180910390f35b34801561168057600080fd5b506116c36004803603602081101561169757600080fd5b81019080803573ffffffffffffffffffffffffffffffffffffffff169060200190929190505050613f97565b005b6000806000837bffffffffffffffffffffffffffffffffffffffffffffffffffffffff19167bffffffffffffffffffffffffffffffffffffffffffffffffffffffff1916815260200190815260200160002060009054906101000a900460ff169050919050565b6060601160008373ffffffffffffffffffffffffffffffffffffffff1673ffffffffffffffffffffffffffffffffffffffff1681526020019081526020016000208054806020026020016040519081016040528092919081815260200182805480156117b757602002820191906000526020600020905b8154815260200190600101908083116117a3575b50505050509050919050565b606060098054600181600116156101000203166002900480601f01602080910402602001604051908101604052809291908181526020018280546001816001161561010002031660029004801561185b5780601f106118305761010080835404028352916020019161185b565b820191906000526020600020905b81548152906001019060200180831161183e57829003601f168201915b5050505050905090565b60006118708261401d565b6118c5576040517f08c379a000000000000000000000000000000000000000000000000000000000815260040180806020018281038252602c815260200180615970602c913960400191505060405180910390fd5b6002600083815260200190815260200160002060009054906101000a900473ffffffffffffffffffffffffffffffffffffffff169050919050565b600061190b82611f04565b90508073ffffffffffffffffffffffffffffffffffffffff168373ffffffffffffffffffffffffffffffffffffffff161415611992576040517f08c379a00000000000000000000000000000000000000000000000000000000081526004018080602001828103825260218152602001806159c56021913960400191505060405180910390fd5b8073ffffffffffffffffffffffffffffffffffffffff166119b161408f565b73ffffffffffffffffffffffffffffffffffffffff1614806119e057506119df816119da61408f565b613e66565b5b611a35576040517f08c379a00000000000000000000000000000000000000000000000000000000081526004018080602001828103825260388152602001806158e56038913960400191505060405180910390fd5b826002600084815260200190815260200160002060006101000a81548173ffffffffffffffffffffffffffffffffffffffff021916908373ffffffffffffffffffffffffffffffffffffffff160217905550818373ffffffffffffffffffffffffffffffffffffffff168273ffffffffffffffffffffffffffffffffffffffff167f8c5be1e5ebec7d5bd14f71427d1e84f3dd0314c0f7b2291e5b200ac8c7c3b92560405160405180910390a4505050565b6060600082118015611afb5750600f548211155b611b6d576040517f08c379a000000000000000000000000000000000000000000000000000000000815260040180806020018281038252601e8152602001807f436f6d546f6b656e3a206e6f6e6365206973206e6f742065786973746564000081525060200191505060405180910390fd5b6000608083901b9050601060008281526020019081526020016000206007018054600181600116156101000203166002900480601f016020809104026020016040519081016040528092919081815260200182805460018160011615610100020316600290048015611c205780601f10611bf557610100808354040283529160200191611c20565b820191906000526020600020905b815481529060010190602001808311611c0357829003601f168201915b5050505050915050919050565b6000600780549050905090565b611c4b611c4561408f565b82614097565b611ca0576040517f08c379a00000000000000000000000000000000000000000000000000000000081526004018080602001828103825260318152602001806159e66031913960400191505060405180910390fd5b611cab83838361418b565b505050565b600080611cbc83611e3f565b90506000811480611cce5750600f5481115b15611cdd576000915050611d19565b60007fffffffffffffffffffffffffffffffffffffffffffffffffffffffffffffffff6fffffffffffffffffffffffffffffffff168416149150505b919050565b6000611d298361206e565b8210611d80576040517f08c379a000000000000000000000000000000000000000000000000000000000815260040180806020018281038252602b8152602001806157eb602b913960400191505060405180910390fd5b600560008473ffffffffffffffffffffffffffffffffffffffff1673ffffffffffffffffffffffffffffffffffffffff1681526020019081526020016000208281548110611dca57fe5b9060005260206000200154905092915050565b600060807fffffffffffffffffffffffffffffffffffffffffffffffffffffffffffffffff6fffffffffffffffffffffffffffffffff16901b82169050919050565b611e3a83838360405180602001604052806000815250613881565b505050565b60006080807fffffffffffffffffffffffffffffffffffffffffffffffffffffffffffffffff6fffffffffffffffffffffffffffffffff16901b8316901c9050919050565b6000611e8e611c2d565b8210611ee5576040517f08c379a000000000000000000000000000000000000000000000000000000000815260040180806020018281038252602c815260200180615a17602c913960400191505060405180910390fd5b60078281548110611ef257fe5b90600052602060002001549050919050565b6000806001600084815260200190815260200160002060009054906101000a900473ffffffffffffffffffffffffffffffffffffffff169050600073ffffffffffffffffffffffffffffffffffffffff168173ffffffffffffffffffffffffffffffffffffffff161415611fc3576040517f08c379a00000000000000000000000000000000000000000000000000000000081526004018080602001828103825260298152602001806159476029913960400191505060405180910390fd5b80915050919050565b6060600b8054600181600116156101000203166002900480601f0160208091040260200160405190810160405280929190818152602001828054600181600116156101000203166002900480156120645780601f1061203957610100808354040283529160200191612064565b820191906000526020600020905b81548152906001019060200180831161204757829003601f168201915b5050505050905090565b60008073ffffffffffffffffffffffffffffffffffffffff168273ffffffffffffffffffffffffffffffffffffffff1614156120f5576040517f08c379a000000000000000000000000000000000000000000000000000000000815260040180806020018281038252602a81526020018061591d602a913960400191505060405180910390fd5b61213c600360008473ffffffffffffffffffffffffffffffffffffffff1673ffffffffffffffffffffffffffffffffffffffff1681526020019081526020016000206141af565b9050919050565b61214b61256a565b6121bd576040517f08c379a00000000000000000000000000000000000000000000000000000000081526004018080602001828103825260208152602001807f4f776e61626c653a2063616c6c6572206973206e6f7420746865206f776e657281525060200191505060405180910390fd5b600073ffffffffffffffffffffffffffffffffffffffff16600d60009054906101000a900473ffffffffffffffffffffffffffffffffffffffff1673ffffffffffffffffffffffffffffffffffffffff167f8be0079c531659141344cd1fd0a4f28419497f9722a3daafe3b4186f6b6457e060405160405180910390a36000600d60006101000a81548173ffffffffffffffffffffffffffffffffffffffff021916908373ffffffffffffffffffffffffffffffffffffffff160217905550565b60007fffffffffffffffffffffffffffffffffffffffffffffffffffffffffffffffff6fffffffffffffffffffffffffffffffff1682169050919050565b60106020528060005260406000206000915090508060000160009054906101000a900473ffffffffffffffffffffffffffffffffffffffff16908060010154908060020154908060030154908060040154908060050154908060060160009054906101000a900473ffffffffffffffffffffffffffffffffffffffff1690806007018054600181600116156101000203166002900480601f0160208091040260200160405190810160405280929190818152602001828054600181600116156101000203166002900480156123d25780601f106123a7576101008083540402835291602001916123d2565b820191906000526020600020905b8154815290600101906020018083116123b557829003601f168201915b505050505090806008018054600181600116156101000203166002900480601f0160208091040260200160405190810160405280929190818152602001828054600181600116156101000203166002900480156124705780601f1061244557610100808354040283529160200191612470565b820191906000526020600020905b81548152906001019060200180831161245357829003601f168201915b5050505050905089565b6060600061248783611ddd565b9050601060008281526020019081526020016000206008018054600181600116156101000203166002900480601f0160208091040260200160405190810160405280929190818152602001828054600181600116156101000203166002900480156125335780601f1061250857610100808354040283529160200191612533565b820191906000526020600020905b81548152906001019060200180831161251657829003601f168201915b5050505050915050919050565b6000600d60009054906101000a900473ffffffffffffffffffffffffffffffffffffffff16905090565b6000600d60009054906101000a900473ffffffffffffffffffffffffffffffffffffffff1673ffffffffffffffffffffffffffffffffffffffff166125ad61408f565b73ffffffffffffffffffffffffffffffffffffffff1614905090565b60006125d361256a565b612645576040517f08c379a00000000000000000000000000000000000000000000000000000000081526004018080602001828103825260208152602001807f4f776e61626c653a2063616c6c6572206973206e6f7420746865206f776e657281525060200191505060405180910390fd5b7fffffffffffffffffffffffffffffffffffffffffffffffffffffffffffffffff6fffffffffffffffffffffffffffffffff16881080156126b757507fffffffffffffffffffffffffffffffffffffffffffffffffffffffffffffffff6fffffffffffffffffffffffffffffffff1689105b612729576040517f08c379a000000000000000000000000000000000000000000000000000000000815260040180806020018281038252601a8152602001807f436f6d546f6b656e3a206f7574206f66206d61785f6c696d697400000000000081525060200191505060405180910390fd5b600089905060008114156127705760017fffffffffffffffffffffffffffffffffffffffffffffffffffffffffffffffff6fffffffffffffffffffffffffffffffff160390505b808911156127e6576040517f08c379a00000000000000000000000000000000000000000000000000000000081526004018080602001828103825260188152602001807f436f6d546f6b656e3a206275794c696d6974206572726f72000000000000000081525060200191505060405180910390fd5b7fffffffffffffffffffffffffffffffffffffffffffffffffffffffffffffffff6fffffffffffffffffffffffffffffffff166001600f54011115612876576040517f08c379a00000000000000000000000000000000000000000000000000000000081526004018080602001828103825260278152602001806158be6027913960400191505060405180910390fd5b6080600f60008154600101919050819055901b91506128936155dd565b6040518061012001604052806128a761408f565b73ffffffffffffffffffffffffffffffffffffffff16815260200160008152602001600081526020018381526020018b81526020018a81526020018973ffffffffffffffffffffffffffffffffffffffff16815260200188888080601f016020809104026020016040519081016040528093929190818152602001838380828437600081840152601f19601f82011690508083019250505050505050815260200186868080601f016020809104026020016040519081016040528093929190818152602001838380828437600081840152601f19601f820116905080830192505050505050508152509050806010600085815260200190815260200160002060008201518160000160006101000a81548173ffffffffffffffffffffffffffffffffffffffff021916908373ffffffffffffffffffffffffffffffffffffffff1602179055506020820151816001015560408201518160020155606082015181600301556080820151816004015560a0820151816005015560c08201518160060160006101000a81548173ffffffffffffffffffffffffffffffffffffffff021916908373ffffffffffffffffffffffffffffffffffffffff16021790555060e0820151816007019080519060200190612a82929190615655565b50610100820151816008019080519060200190612aa0929190615655565b5090505060116000612ab061408f565b73ffffffffffffffffffffffffffffffffffffffff1673ffffffffffffffffffffffffffffffffffffffff168152602001908152602001600020600f549080600181540180825580915050906001820390600052602060002001600090919290919091505550612b1e61408f565b73ffffffffffffffffffffffffffffffffffffffff167fb378e89b40ac5bbe0e2241b596fbe1adc3cf1fb7c982aa1b4560165cf264ee93846040518082815260200191505060405180910390a2505098975050505050505050565b612b816156d5565b612b896156f7565b600083118015612b9b5750600f548311155b612c0d576040517f08c379a000000000000000000000000000000000000000000000000000000000815260040180806020018281038252601e8152602001807f436f6d546f6b656e3a206e6f6e6365206973206e6f742065786973746564000081525060200191505060405180910390fd5b6000608084901b9050612c1e6155dd565b60106000838152602001908152602001600020604051806101200160405290816000820160009054906101000a900473ffffffffffffffffffffffffffffffffffffffff1673ffffffffffffffffffffffffffffffffffffffff1673ffffffffffffffffffffffffffffffffffffffff16815260200160018201548152602001600282015481526020016003820154815260200160048201548152602001600582015481526020016006820160009054906101000a900473ffffffffffffffffffffffffffffffffffffffff1673ffffffffffffffffffffffffffffffffffffffff1673ffffffffffffffffffffffffffffffffffffffff168152602001600782018054600181600116156101000203166002900480601f016020809104026020016040519081016040528092919081815260200182805460018160011615610100020316600290048015612db45780601f10612d8957610100808354040283529160200191612db4565b820191906000526020600020905b815481529060010190602001808311612d9757829003601f168201915b50505050508152602001600882018054600181600116156101000203166002900480601f016020809104026020016040519081016040528092919081815260200182805460018160011615610100020316600290048015612e565780601f10612e2b57610100808354040283529160200191612e56565b820191906000526020600020905b815481529060010190602001808311612e3957829003601f168201915b5050505050815250509050806000015184600060028110612e7357fe5b602002019073ffffffffffffffffffffffffffffffffffffffff16908173ffffffffffffffffffffffffffffffffffffffff16815250508060c0015184600160028110612ebc57fe5b602002019073ffffffffffffffffffffffffffffffffffffffff16908173ffffffffffffffffffffffffffffffffffffffff1681525050806060015183600060058110612f0557fe5b602002018181525050806020015183600160058110612f2057fe5b602002018181525050806080015183600260058110612f3b57fe5b602002018181525050806040015183600360058110612f5657fe5b6020020181815250508060a0015183600460058110612f7157fe5b6020020181815250505050915091565b612f8a82611cb0565b612ffc576040517f08c379a00000000000000000000000000000000000000000000000000000000081526004018080602001828103825260148152602001807f436f6d546f6b656e3a206e6f742061207479706500000000000000000000000081525060200191505060405180910390fd5b60006010600084815260200190815260200160002090508060050154341015613070576040517f08c379a000000000000000000000000000000000000000000000000000000000815260040180806020018281038252602b815260200180615a43602b913960400191505060405180910390fd5b8060010160008154809291906001019190505550806002016000815480929190600101919050555080600401548160020154111580156130b857508060030154816001015411155b61312a576040517f08c379a000000000000000000000000000000000000000000000000000000000815260040180806020018281038252601a8152602001807f436f6d546f6b656e3a206f7574206f6620746865206c696d697400000000000081525060200191505060405180910390fd5b600081600101548417905061313f83826141bd565b8160060160009054906101000a900473ffffffffffffffffffffffffffffffffffffffff1673ffffffffffffffffffffffffffffffffffffffff166108fc349081150290604051600060405180830381858888f193505050501580156131a9573d6000803e3d6000fd5b508273ffffffffffffffffffffffffffffffffffffffff166131c961408f565b73ffffffffffffffffffffffffffffffffffffffff167fa5ff468a42a1c7f5a78dd6683a9722f1ef3c388d590959bbd7a6d2c837fcab07836040518082815260200191505060405180910390a350505050565b6060600a8054600181600116156101000203166002900480601f0160208091040260200160405190810160405280929190818152602001828054600181600116156101000203166002900480156132b45780601f10613289576101008083540402835291602001916132b4565b820191906000526020600020905b81548152906001019060200180831161329757829003601f168201915b5050505050905090565b601160205281600052604060002081815481106132d757fe5b90600052602060002001600091509150505481565b6132f461408f565b73ffffffffffffffffffffffffffffffffffffffff168273ffffffffffffffffffffffffffffffffffffffff161415613395576040517f08c379a00000000000000000000000000000000000000000000000000000000081526004018080602001828103825260198152602001807f4552433732313a20617070726f766520746f2063616c6c65720000000000000081525060200191505060405180910390fd5b80600460006133a261408f565b73ffffffffffffffffffffffffffffffffffffffff1673ffffffffffffffffffffffffffffffffffffffff16815260200190815260200160002060008473ffffffffffffffffffffffffffffffffffffffff1673ffffffffffffffffffffffffffffffffffffffff16815260200190815260200160002060006101000a81548160ff0219169083151502179055508173ffffffffffffffffffffffffffffffffffffffff1661344f61408f565b73ffffffffffffffffffffffffffffffffffffffff167f17307eab39ab6107e8899845ad3d59bd9653f200f220920489ca2b5937696c3183604051808215151515815260200191505060405180910390a35050565b826134ad61408f565b73ffffffffffffffffffffffffffffffffffffffff166010600083815260200190815260200160002060000160009054906101000a900473ffffffffffffffffffffffffffffffffffffffff1673ffffffffffffffffffffffffffffffffffffffff1614613583576040517f08c379a000000000000000000000000000000000000000000000000000000000815260040180806020018281038252601b8152602001807f436f6d546f6b656e3a207065726d697373696f6e2064656e696564000000000081525060200191505060405180910390fd5b6000601060008681526020019081526020016000209050600084849050905081600301546135be8284600101546141de90919063ffffffff16565b1115613632576040517f08c379a000000000000000000000000000000000000000000000000000000000815260040180806020018281038252601a8152602001807f436f6d546f6b656e3a206f7574206f6620746865206c696d697400000000000081525060200191505060405180910390fd5b60008090505b81811015613690576000600182856001015401018817905061368287878481811061365f57fe5b9050602002013573ffffffffffffffffffffffffffffffffffffffff16826141bd565b508080600101915050613638565b506136a88183600101546141de90919063ffffffff16565b8260010181905550856136b961408f565b73ffffffffffffffffffffffffffffffffffffffff167fdcdea898caf5576419f89caf69301592a4758349a0bd62300b58849213420a7260405160405180910390a3505050505050565b600f5481565b8161371261408f565b73ffffffffffffffffffffffffffffffffffffffff166010600083815260200190815260200160002060000160009054906101000a900473ffffffffffffffffffffffffffffffffffffffff1673ffffffffffffffffffffffffffffffffffffffff16146137e8576040517f08c379a000000000000000000000000000000000000000000000000000000000815260040180806020018281038252601b8152602001807f436f6d546f6b656e3a207065726d697373696f6e2064656e696564000000000081525060200191505060405180910390fd5b6000601060008581526020019081526020016000209050828160050181905550838160000160009054906101000a900473ffffffffffffffffffffffffffffffffffffffff1673ffffffffffffffffffffffffffffffffffffffff167fe5de233c6530662ac259214d2d41e53a2947e4f5f7db51d03ba4a81d7ddccbf7856040518082815260200191505060405180910390a350505050565b61389261388c61408f565b83614097565b6138e7576040517f08c379a00000000000000000000000000000000000000000000000000000000081526004018080602001828103825260318152602001806159e66031913960400191505060405180910390fd5b6138f384848484614266565b50505050565b606060008211801561390d5750600f548211155b61397f576040517f08c379a000000000000000000000000000000000000000000000000000000000815260040180806020018281038252601e8152602001807f436f6d546f6b656e3a206e6f6e6365206973206e6f742065786973746564000081525060200191505060405180910390fd5b6000608083901b9050601060008281526020019081526020016000206008018054600181600116156101000203166002900480601f016020809104026020016040519081016040528092919081815260200182805460018160011615610100020316600290048015613a325780601f10613a0757610100808354040283529160200191613a32565b820191906000526020600020905b815481529060010190602001808311613a1557829003601f168201915b5050505050915050919050565b6000601160008373ffffffffffffffffffffffffffffffffffffffff1673ffffffffffffffffffffffffffffffffffffffff168152602001908152602001600020805490509050919050565b6060613a96826142d8565b805480602002602001604051908101604052809291908181526020018280548015613ae057602002820191906000526020600020905b815481526020019060010190808311613acc575b50505050509050919050565b6060613af782613df4565b613b69576040517f08c379a00000000000000000000000000000000000000000000000000000000081526004018080602001828103825260208152602001807f436f6d546f6b656e3a20746f6b656e4964206973206e6f74206578697374656481525060200191505060405180910390fd5b6000613b7483611ddd565b90506060601060008381526020019081526020016000206007018054600181600116156101000203166002900480601f016020809104026020016040519081016040528092919081815260200182805460018160011615610100020316600290048015613c225780601f10613bf757610100808354040283529160200191613c22565b820191906000526020600020905b815481529060010190602001808311613c0557829003601f168201915b50505050509050613c3b81613c3686614320565b61444d565b92505050919050565b82613c4d61408f565b73ffffffffffffffffffffffffffffffffffffffff166010600083815260200190815260200160002060000160009054906101000a900473ffffffffffffffffffffffffffffffffffffffff1673ffffffffffffffffffffffffffffffffffffffff1614613d23576040517f08c379a000000000000000000000000000000000000000000000000000000000815260040180806020018281038252601b8152602001807f436f6d546f6b656e3a207065726d697373696f6e2064656e696564000000000081525060200191505060405180910390fd5b60006010600086815260200190815260200160002090508383826007019190613d4d929190615719565b50848160000160009054906101000a900473ffffffffffffffffffffffffffffffffffffffff1673ffffffffffffffffffffffffffffffffffffffff167fe626e260b954a7057102eed183b8bd79284e8580a404ed4b21a79d1d1a9f081c868660405180806020018281038252848482818152602001925080828437600081840152601f19601f820116905080830192505050935050505060405180910390a35050505050565b600080613e0083611ddd565b9050613e0b81611cb0565b613e19576000915050613e61565b6000613e248461227e565b90506000811480613e4a5750601060008381526020019081526020016000206001015481115b15613e5a57600092505050613e61565b6001925050505b919050565b600080600e60009054906101000a900473ffffffffffffffffffffffffffffffffffffffff1690508273ffffffffffffffffffffffffffffffffffffffff168173ffffffffffffffffffffffffffffffffffffffff1663c4552791866040518263ffffffff1660e01b8152600401808273ffffffffffffffffffffffffffffffffffffffff1673ffffffffffffffffffffffffffffffffffffffff16815260200191505060206040518083038186803b158015613f2257600080fd5b505afa158015613f36573d6000803e3d6000fd5b505050506040513d6020811015613f4c57600080fd5b810190808051906020019092919050505073ffffffffffffffffffffffffffffffffffffffff161415613f83576001915050613f91565b613f8d8484614491565b9150505b92915050565b613f9f61256a565b614011576040517f08c379a00000000000000000000000000000000000000000000000000000000081526004018080602001828103825260208152602001807f4f776e61626c653a2063616c6c6572206973206e6f7420746865206f776e657281525060200191505060405180910390fd5b61401a81614525565b50565b6000806001600084815260200190815260200160002060009054906101000a900473ffffffffffffffffffffffffffffffffffffffff169050600073ffffffffffffffffffffffffffffffffffffffff168173ffffffffffffffffffffffffffffffffffffffff161415915050919050565b600033905090565b60006140a28261401d565b6140f7576040517f08c379a000000000000000000000000000000000000000000000000000000000815260040180806020018281038252602c815260200180615892602c913960400191505060405180910390fd5b600061410283611f04565b90508073ffffffffffffffffffffffffffffffffffffffff168473ffffffffffffffffffffffffffffffffffffffff16148061417157508373ffffffffffffffffffffffffffffffffffffffff1661415984611865565b73ffffffffffffffffffffffffffffffffffffffff16145b8061418257506141818185613e66565b5b91505092915050565b61419683838361466b565b6141a083826148c6565b6141aa8282614a64565b505050565b600081600001549050919050565b6141c78282614b2b565b6141d18282614a64565b6141da81614d43565b5050565b60008082840190508381101561425c576040517f08c379a000000000000000000000000000000000000000000000000000000000815260040180806020018281038252601b8152602001807f536166654d6174683a206164646974696f6e206f766572666c6f77000000000081525060200191505060405180910390fd5b8091505092915050565b61427184848461418b565b61427d84848484614d8f565b6142d2576040517f08c379a00000000000000000000000000000000000000000000000000000000081526004018080602001828103825260328152602001806158166032913960400191505060405180910390fd5b50505050565b6000600560008373ffffffffffffffffffffffffffffffffffffffff1673ffffffffffffffffffffffffffffffffffffffff1681526020019081526020016000209050919050565b60606000821415614368576040518060400160405280600181526020017f30000000000000000000000000000000000000000000000000000000000000008152509050614448565b600082905060005b60008214614392578080600101915050600a828161438a57fe5b049150614370565b6060816040519080825280601f01601f1916602001820160405280156143c75781602001600182028038833980820191505090505b50905060006001830390505b6000861461444057600a86816143e557fe5b0660300160f81b828280600190039350815181106143ff57fe5b60200101907effffffffffffffffffffffffffffffffffffffffffffffffffffffffffffff1916908160001a905350600a868161443857fe5b0495506143d3565b819450505050505b919050565b606061448983836040518060200160405280600081525060405180602001604052806000815250604051806020016040528060008152506150cb565b905092915050565b6000600460008473ffffffffffffffffffffffffffffffffffffffff1673ffffffffffffffffffffffffffffffffffffffff16815260200190815260200160002060008373ffffffffffffffffffffffffffffffffffffffff1673ffffffffffffffffffffffffffffffffffffffff16815260200190815260200160002060009054906101000a900460ff16905092915050565b600073ffffffffffffffffffffffffffffffffffffffff168173ffffffffffffffffffffffffffffffffffffffff1614156145ab576040517f08c379a00000000000000000000000000000000000000000000000000000000081526004018080602001828103825260268152602001806158486026913960400191505060405180910390fd5b8073ffffffffffffffffffffffffffffffffffffffff16600d60009054906101000a900473ffffffffffffffffffffffffffffffffffffffff1673ffffffffffffffffffffffffffffffffffffffff167f8be0079c531659141344cd1fd0a4f28419497f9722a3daafe3b4186f6b6457e060405160405180910390a380600d60006101000a81548173ffffffffffffffffffffffffffffffffffffffff021916908373ffffffffffffffffffffffffffffffffffffffff16021790555050565b8273ffffffffffffffffffffffffffffffffffffffff1661468b82611f04565b73ffffffffffffffffffffffffffffffffffffffff16146146f7576040517f08c379a000000000000000000000000000000000000000000000000000000000815260040180806020018281038252602981526020018061599c6029913960400191505060405180910390fd5b600073ffffffffffffffffffffffffffffffffffffffff168273ffffffffffffffffffffffffffffffffffffffff16141561477d576040517f08c379a000000000000000000000000000000000000000000000000000000000815260040180806020018281038252602481526020018061586e6024913960400191505060405180910390fd5b61478681615391565b6147cd600360008573ffffffffffffffffffffffffffffffffffffffff1673ffffffffffffffffffffffffffffffffffffffff16815260200190815260200160002061544f565b614814600360008473ffffffffffffffffffffffffffffffffffffffff1673ffffffffffffffffffffffffffffffffffffffff168152602001908152602001600020615472565b816001600083815260200190815260200160002060006101000a81548173ffffffffffffffffffffffffffffffffffffffff021916908373ffffffffffffffffffffffffffffffffffffffff160217905550808273ffffffffffffffffffffffffffffffffffffffff168473ffffffffffffffffffffffffffffffffffffffff167fddf252ad1be2c89b69c2b068fc378daa952ba7f163c4a11628f55a4df523b3ef60405160405180910390a4505050565b600061491e6001600560008673ffffffffffffffffffffffffffffffffffffffff1673ffffffffffffffffffffffffffffffffffffffff1681526020019081526020016000208054905061548890919063ffffffff16565b9050600060066000848152602001908152602001600020549050818114614a0b576000600560008673ffffffffffffffffffffffffffffffffffffffff1673ffffffffffffffffffffffffffffffffffffffff168152602001908152602001600020838154811061498b57fe5b9060005260206000200154905080600560008773ffffffffffffffffffffffffffffffffffffffff1673ffffffffffffffffffffffffffffffffffffffff16815260200190815260200160002083815481106149e357fe5b9060005260206000200181905550816006600083815260200190815260200160002081905550505b600560008573ffffffffffffffffffffffffffffffffffffffff1673ffffffffffffffffffffffffffffffffffffffff168152602001908152602001600020805480919060019003614a5d9190615799565b5050505050565b600560008373ffffffffffffffffffffffffffffffffffffffff1673ffffffffffffffffffffffffffffffffffffffff168152602001908152602001600020805490506006600083815260200190815260200160002081905550600560008373ffffffffffffffffffffffffffffffffffffffff1673ffffffffffffffffffffffffffffffffffffffff1681526020019081526020016000208190806001815401808255809150509060018203906000526020600020016000909192909190915055505050565b600073ffffffffffffffffffffffffffffffffffffffff168273ffffffffffffffffffffffffffffffffffffffff161415614bce576040517f08c379a00000000000000000000000000000000000000000000000000000000081526004018080602001828103825260208152602001807f4552433732313a206d696e7420746f20746865207a65726f206164647265737381525060200191505060405180910390fd5b614bd78161401d565b15614c4a576040517f08c379a000000000000000000000000000000000000000000000000000000000815260040180806020018281038252601c8152602001807f4552433732313a20746f6b656e20616c7265616479206d696e7465640000000081525060200191505060405180910390fd5b816001600083815260200190815260200160002060006101000a81548173ffffffffffffffffffffffffffffffffffffffff021916908373ffffffffffffffffffffffffffffffffffffffff160217905550614ce3600360008473ffffffffffffffffffffffffffffffffffffffff1673ffffffffffffffffffffffffffffffffffffffff168152602001908152602001600020615472565b808273ffffffffffffffffffffffffffffffffffffffff16600073ffffffffffffffffffffffffffffffffffffffff167fddf252ad1be2c89b69c2b068fc378daa952ba7f163c4a11628f55a4df523b3ef60405160405180910390a45050565b6007805490506008600083815260200190815260200160002081905550600781908060018154018082558091505090600182039060005260206000200160009091929091909150555050565b6000614db08473ffffffffffffffffffffffffffffffffffffffff166154d2565b614dbd57600190506150c3565b600060608573ffffffffffffffffffffffffffffffffffffffff168673ffffffffffffffffffffffffffffffffffffffff1663150b7a02905060e01b614e0161408f565b898888604051602401808573ffffffffffffffffffffffffffffffffffffffff1673ffffffffffffffffffffffffffffffffffffffff1681526020018473ffffffffffffffffffffffffffffffffffffffff1673ffffffffffffffffffffffffffffffffffffffff16815260200183815260200180602001828103825283818151815260200191508051906020019080838360005b83811015614eb1578082015181840152602081019050614e96565b50505050905090810190601f168015614ede5780820380516001836020036101000a031916815260200191505b5095505050505050604051602081830303815290604052907bffffffffffffffffffffffffffffffffffffffffffffffffffffffff19166020820180517bffffffffffffffffffffffffffffffffffffffffffffffffffffffff83818316178352505050506040518082805190602001908083835b60208310614f765780518252602082019150602081019050602083039250614f53565b6001836020036101000a0380198251168184511680821785525050505050509050019150506000604051808303816000865af19150503d8060008114614fd8576040519150601f19603f3d011682016040523d82523d6000602084013e614fdd565b606091505b50915091508161504b57600081511115614ffa5780518082602001fd5b6040517f08c379a00000000000000000000000000000000000000000000000000000000081526004018080602001828103825260328152602001806158166032913960400191505060405180910390fd5b600081806020019051602081101561506257600080fd5b8101908080519060200190929190505050905063150b7a0260e01b7bffffffffffffffffffffffffffffffffffffffffffffffffffffffff1916817bffffffffffffffffffffffffffffffffffffffffffffffffffffffff19161493505050505b949350505050565b6060808690506060869050606086905060608690506060869050606081518351855187518951010101016040519080825280601f01601f1916602001820160405280156151275781602001600182028038833980820191505090505b5090506060819050600080905060008090505b88518110156151a85788818151811061514f57fe5b602001015160f81c60f81b83838060010194508151811061516c57fe5b60200101907effffffffffffffffffffffffffffffffffffffffffffffffffffffffffffff1916908160001a905350808060010191505061513a565b5060008090505b875181101561521d578781815181106151c457fe5b602001015160f81c60f81b8383806001019450815181106151e157fe5b60200101907effffffffffffffffffffffffffffffffffffffffffffffffffffffffffffff1916908160001a90535080806001019150506151af565b5060008090505b86518110156152925786818151811061523957fe5b602001015160f81c60f81b83838060010194508151811061525657fe5b60200101907effffffffffffffffffffffffffffffffffffffffffffffffffffffffffffff1916908160001a9053508080600101915050615224565b5060008090505b8551811015615307578581815181106152ae57fe5b602001015160f81c60f81b8383806001019450815181106152cb57fe5b60200101907effffffffffffffffffffffffffffffffffffffffffffffffffffffffffffff1916908160001a9053508080600101915050615299565b5060008090505b845181101561537c5784818151811061532357fe5b602001015160f81c60f81b83838060010194508151811061534057fe5b60200101907effffffffffffffffffffffffffffffffffffffffffffffffffffffffffffff1916908160001a905350808060010191505061530e565b50819850505050505050505095945050505050565b600073ffffffffffffffffffffffffffffffffffffffff166002600083815260200190815260200160002060009054906101000a900473ffffffffffffffffffffffffffffffffffffffff1673ffffffffffffffffffffffffffffffffffffffff161461544c5760006002600083815260200190815260200160002060006101000a81548173ffffffffffffffffffffffffffffffffffffffff021916908373ffffffffffffffffffffffffffffffffffffffff1602179055505b50565b6154676001826000015461548890919063ffffffff16565b816000018190555050565b6001816000016000828254019250508190555050565b60006154ca83836040518060400160405280601e81526020017f536166654d6174683a207375627472616374696f6e206f766572666c6f77000081525061551d565b905092915050565b60008060007fc5d2460186f7233c927e7db2dcc703c0e500b653ca82273b7bfad8045d85a47060001b9050833f915080821415801561551457506000801b8214155b92505050919050565b60008383111582906155ca576040517f08c379a00000000000000000000000000000000000000000000000000000000081526004018080602001828103825283818151815260200191508051906020019080838360005b8381101561558f578082015181840152602081019050615574565b50505050905090810190601f1680156155bc5780820380516001836020036101000a031916815260200191505b509250505060405180910390fd5b5060008385039050809150509392505050565b604051806101200160405280600073ffffffffffffffffffffffffffffffffffffffff1681526020016000815260200160008152602001600081526020016000815260200160008152602001600073ffffffffffffffffffffffffffffffffffffffff16815260200160608152602001606081525090565b828054600181600116156101000203166002900490600052602060002090601f016020900481019282601f1061569657805160ff19168380011785556156c4565b828001600101855582156156c4579182015b828111156156c35782518255916020019190600101906156a8565b5b5090506156d191906157c5565b5090565b6040518060400160405280600290602082028038833980820191505090505090565b6040518060a00160405280600590602082028038833980820191505090505090565b828054600181600116156101000203166002900490600052602060002090601f016020900481019282601f1061575a57803560ff1916838001178555615788565b82800160010185558215615788579182015b8281111561578757823582559160200191906001019061576c565b5b50905061579591906157c5565b5090565b8154818355818111156157c0578183600052602060002091820191016157bf91906157c5565b5b505050565b6157e791905b808211156157e35760008160009055506001016157cb565b5090565b9056fe455243373231456e756d657261626c653a206f776e657220696e646578206f7574206f6620626f756e64734552433732313a207472616e7366657220746f206e6f6e20455243373231526563656976657220696d706c656d656e7465724f776e61626c653a206e6577206f776e657220697320746865207a65726f20616464726573734552433732313a207472616e7366657220746f20746865207a65726f20616464726573734552433732313a206f70657261746f7220717565727920666f72206e6f6e6578697374656e7420746f6b656e436f6d546f6b656e3a2074686520616d6f756e74206f662074797065206973206d6178696e756d4552433732313a20617070726f76652063616c6c6572206973206e6f74206f776e6572206e6f7220617070726f76656420666f7220616c6c4552433732313a2062616c616e636520717565727920666f7220746865207a65726f20616464726573734552433732313a206f776e657220717565727920666f72206e6f6e6578697374656e7420746f6b656e4552433732313a20617070726f76656420717565727920666f72206e6f6e6578697374656e7420746f6b656e4552433732313a207472616e73666572206f6620746f6b656e2074686174206973206e6f74206f776e4552433732313a20617070726f76616c20746f2063757272656e74206f776e65724552433732313a207472616e736665722063616c6c6572206973206e6f74206f776e6572206e6f7220617070726f766564455243373231456e756d657261626c653a20676c6f62616c20696e646578206f7574206f6620626f756e6473436f6d546f6b656e3a20696e73756666696369656e7420657468657273206f72207a65726f207072696365a265627a7a72315820b60d81b9916a619cb04e7eaa60d8cdecabf231ddaa6d7dd3a85ee16ceb60e8ed64736f6c63430005100032",
  "source": "pragma solidity ^ 0.5.0;\n\n\nimport \"@openzeppelin/contracts/ownership/Ownable.sol\";\nimport \"@openzeppelin/contracts/token/ERC721/ERC721Full.sol\";\nimport './Strings.sol';\n\n\n//opensea\ncontract OwnableDelegateProxy {}\n\n\ncontract ProxyRegistry {\n    mapping(address => OwnableDelegateProxy) public proxies;\n}\n\n\n//721NFT\ncontract ComToken is ERC721Full, Ownable {\n    using Strings for string;\n    //\n    uint constant MAX_LIMIT = uint(uint128(~0));\n    //1281\n    uint256 constant NF_INDEX_MASK = uint(uint128(~0));\n    //1281\n    uint constant TYPE_MASK = uint(uint128(~0)) << 128;\n    //alhpa\n    /* bytes4(keccak256('getBalances(address)')) == 0xc84aae17 */\n    bytes4 private constant _INTERFACE_ID_Token_BALANCES = 0xc84aae17;\n    //\n    /* bytes4(keccak256('getTokenImageSvg(uint256)')) == 0x87d2f48c */\n    bytes4 private constant _INTERFACE_ID_TOKEN_IMAGE_SVG = 0x87d2f48c;\n\n    struct TokenInfo {\n        address creator; //\n        uint amount; //\n        uint buyAmount;//\n        uint limit; //\n        uint buyLimit;//\n        uint price; //\n        address payable beneficiary;     //\n        string baseURI; //baseURI\n        string icon; //SVG\n    }\n\n    //\n    address proxyRegistryAddress;\n    //\n    uint public nonce;\n    //\n    mapping(uint => TokenInfo) public tokenInfos;  // type => info\n    //\n    mapping(address => uint[]) public nftTypes;     //creator => type[]\n\n    //event\n    event CreateToken(address indexed creator,uint typeId);\n    event ChangePrice(address indexed operator,uint indexed typeId,uint newPrice);\n    event ChangeBaseURI(address indexed operator,uint indexed typeId,string newURI);\n    event BuyToken(address indexed _buyer,address indexed _recipient, uint _tokenId);\n    event MintToken(address indexed _operator,uint indexed typeId);\n\n    //\n    modifier onlyCreator(uint typeId) {\n        require(tokenInfos[typeId].creator == _msgSender(),\"ComToken: permission denied\");\n        _;\n    }\n\n    constructor(string memory name, string memory symbol, address _proxyRegistryAddress) public ERC721Full(name, symbol) {\n        require(_proxyRegistryAddress != address(0),\"ComToken: Zero Address\");\n        proxyRegistryAddress = _proxyRegistryAddress;\n        _registerInterface(_INTERFACE_ID_Token_BALANCES);\n        _registerInterface(_INTERFACE_ID_TOKEN_IMAGE_SVG);\n    }\n\n    //ID\n    function isType(uint _typeId) public view returns(bool) {\n        //\n        uint _nonce = getTypeBase(_typeId);\n        if(_nonce == 0 || _nonce > nonce) {\n            return false;\n        }\n        //tokenId\n        return (_typeId & NF_INDEX_MASK) == 0;\n    }\n\n    //\n    function getType(uint _tokenId) public pure returns(uint) {\n        return _tokenId & TYPE_MASK;\n    }\n\n    //tokenId128\n    function getTypeBase(uint _tokenId) public pure returns(uint) {\n        return (_tokenId & TYPE_MASK) >> 128;\n    }\n\n    //tokenId128\n    function getTokenIdBase(uint _tokenId) public pure returns(uint) {\n        return _tokenId & NF_INDEX_MASK;\n    }\n\n    //tokenId\n    function isExisted(uint _tokenId) public view returns(bool) {\n        uint _type = getType(_tokenId);\n        if (!isType(_type)) {\n            return false;\n        }\n        uint token_nonce = getTokenIdBase(_tokenId);\n        if (token_nonce == 0 || token_nonce > tokenInfos[_type].amount) {\n            return false;\n        }\n        return true;\n    }\n\n    //\n    //[][]\n    function getInfoByNonce(uint _nonce) public view returns(address[2] memory addrs,uint[5] memory nums) {\n        require(_nonce > 0 && _nonce <= nonce,\"ComToken: nonce is not existed\");\n        uint type_id = _nonce << 128;\n        TokenInfo memory info = tokenInfos[type_id];\n        addrs[0] = info.creator;\n        addrs[1] = info.beneficiary;\n        nums[0] = info.limit;\n        nums[1] = info.amount;\n        nums[2] = info.buyLimit;\n        nums[3] = info.buyAmount;\n        nums[4] = info.price;\n    }\n\n    //URI\n    function getTypeURI(uint _nonce) external view returns(string memory) {\n        require(_nonce > 0 && _nonce <= nonce,\"ComToken: nonce is not existed\");\n        uint type_id = _nonce << 128;\n        return tokenInfos[type_id].baseURI;\n    }\n\n    //svg\n    function getTypeSVG(uint _nonce) external view returns(string memory) {\n        require(_nonce > 0 && _nonce <= nonce,\"ComToken: nonce is not existed\");\n        uint type_id = _nonce << 128;\n        return tokenInfos[type_id].icon;\n    }\n\n    //uriopensea\n    function tokenURI(uint _tokenId) external view returns(string memory) {\n        require(isExisted(_tokenId),\"ComToken: tokenId is not existed\");\n        uint _type = getType(_tokenId);\n        string memory base_uri = tokenInfos[_type].baseURI;\n        return Strings.strConcat(\n            base_uri,\n            Strings.uint2str(_tokenId)\n        );\n    }\n\n    //\n    function getTokenImageSvg(uint _tokenId) external view returns(string memory) {\n        uint _type = getType(_tokenId);\n        return tokenInfos[_type].icon;\n    }\n\n    /////////////////////////////////----////////////////////////\n    //\n    function getUserCreated(address _creator) public view returns(uint) {\n        return nftTypes[_creator].length;\n    }\n    //ID(128)\n    function getUserAllCreated(address _creator) public view returns(uint[] memory) {\n        return nftTypes[_creator];\n    }\n\n    //\n    function createToken(uint _limit,uint _buyLimt, uint _price,address payable _beneficiary, string calldata _baseURI, string calldata _icon)\n    external\n    onlyOwner\n    returns(uint _typeId) {\n        require(_buyLimt < MAX_LIMIT && _limit < MAX_LIMIT, \"ComToken: out of max_limit\");\n        //0\n        uint limit = _limit;\n        if (limit == 0) {\n            limit = MAX_LIMIT - 1;\n        }\n        require(_buyLimt <= limit, \"ComToken: buyLimit error\");\n        require(nonce + 1 <= MAX_LIMIT,\"ComToken: the amount of type is maxinum\");\n        _typeId = (++nonce) << 128;\n        TokenInfo memory info = TokenInfo(\n            _msgSender(), //\n            0,  //\n            0,  //\n            limit, //\n            _buyLimt,  //\n            _price, //\n            _beneficiary,\n            _baseURI,\n            _icon\n        );\n        tokenInfos[_typeId] = info;\n        nftTypes[_msgSender()].push(nonce);\n        emit CreateToken(_msgSender(),_typeId);\n    }\n\n    //\n    function buyToken(uint typeId, address recipient) external payable {\n        require(isType(typeId), \"ComToken: not a type\");\n        TokenInfo storage info = tokenInfos[typeId];\n        require(msg.value >= info.price, \"ComToken: insufficient ethers or zero price\");\n        //1\n        info.amount ++;\n        info.buyAmount ++;\n        //\n        require(info.buyAmount <= info.buyLimit && info.amount <= info.limit, \"ComToken: out of the limit\");\n        uint id = typeId | info.amount;\n        _mint(recipient, id);\n        info.beneficiary.transfer(msg.value);\n        emit BuyToken(_msgSender(),recipient,id);\n    }\n\n    //\n    function mintToken(uint typeId,address[] calldata to) external onlyCreator(typeId) {\n        TokenInfo storage info = tokenInfos[typeId];\n        uint len = to.length;\n        require(info.amount.add(len) <= info.limit,\"ComToken: out of the limit\");\n        for (uint i = 0;i < len;i++) {\n            uint id = typeId | (info.amount + i + 1);\n            _mint(to[i], id);\n        }\n        info.amount = info.amount.add(len);\n        emit MintToken(_msgSender(),typeId);\n    }\n\n    //\n    function changePrice(uint typeId,uint newPrice) external onlyCreator(typeId) {\n        TokenInfo storage info = tokenInfos[typeId];\n        info.price = newPrice;\n        emit ChangePrice(info.creator,typeId,newPrice);\n    }\n\n    function changeBaseURI(uint typeId,string calldata _url) external onlyCreator(typeId) {\n        TokenInfo storage info = tokenInfos[typeId];\n        info.baseURI = _url;\n        emit ChangeBaseURI(info.creator,typeId,_url);\n    }\n\n    //alpha\n    function getBalances(address owner) public view returns(uint[] memory) {\n        return _tokensOfOwner(owner);\n    }\n\n    /**\n     * Override isApprovedForAll to whitelist user's OpenSea proxy accounts to enable gas-less listings.\n     */\n    function isApprovedForAll(\n        address owner,\n        address operator\n    )\n    public\n    view\n    returns(bool) {\n        // Whitelist OpenSea proxy contract for easy trading.\n        ProxyRegistry proxyRegistry = ProxyRegistry(proxyRegistryAddress);\n        if (address(proxyRegistry.proxies(owner)) == operator) {\n            return true;\n        }\n\n        return super.isApprovedForAll(owner, operator);\n    }\n\n}\n",
  "sourcePath": "/Users/likai/work/htoken/contracts/ComToken.sol",
  "compiler": {
    "name": "solc",
    "version": "0.5.16+commit.9c3226ce.Emscripten.clang"
  },
  "schemaVersion": "3.0.20",
  "updatedAt": "2020-04-05T13:41:06.632Z",
  "networkType": "ethereum",
  "devdoc": {
    "methods": {
      "approve(address,uint256)": {
        "details": "Approves another address to transfer the given token ID The zero address indicates there is no approved address. There can only be one approved address per token at a given time. Can only be called by the token owner or an approved operator.",
        "params": {
          "to": "address to be approved for the given token ID",
          "tokenId": "uint256 ID of the token to be approved"
        }
      },
      "balanceOf(address)": {
        "details": "Gets the balance of the specified address.",
        "params": {
          "owner": "address to query the balance of"
        },
        "return": "uint256 representing the amount owned by the passed address"
      },
      "baseURI()": {
        "details": "Returns the base URI set via {_setBaseURI}. This will be automatically added as a preffix in {tokenURI} to each token's URI, when they are non-empty.    * _Available since v2.5.0._"
      },
      "getApproved(uint256)": {
        "details": "Gets the approved address for a token ID, or zero if no address set Reverts if the token ID does not exist.",
        "params": {
          "tokenId": "uint256 ID of the token to query the approval of"
        },
        "return": "address currently approved for the given token ID"
      },
      "isOwner()": {
        "details": "Returns true if the caller is the current owner."
      },
      "name()": {
        "details": "Gets the token name.",
        "return": "string representing the token name"
      },
      "owner()": {
        "details": "Returns the address of the current owner."
      },
      "ownerOf(uint256)": {
        "details": "Gets the owner of the specified token ID.",
        "params": {
          "tokenId": "uint256 ID of the token to query the owner of"
        },
        "return": "address currently marked as the owner of the given token ID"
      },
      "renounceOwnership()": {
        "details": "Leaves the contract without owner. It will not be possible to call `onlyOwner` functions anymore. Can only be called by the current owner.     * NOTE: Renouncing ownership will leave the contract without an owner, thereby removing any functionality that is only available to the owner."
      },
      "safeTransferFrom(address,address,uint256)": {
        "details": "Safely transfers the ownership of a given token ID to another address If the target address is a contract, it must implement {IERC721Receiver-onERC721Received}, which is called upon a safe transfer, and return the magic value `bytes4(keccak256(\"onERC721Received(address,address,uint256,bytes)\"))`; otherwise, the transfer is reverted. Requires the msg.sender to be the owner, approved, or operator",
        "params": {
          "from": "current owner of the token",
          "to": "address to receive the ownership of the given token ID",
          "tokenId": "uint256 ID of the token to be transferred"
        }
      },
      "safeTransferFrom(address,address,uint256,bytes)": {
        "details": "Safely transfers the ownership of a given token ID to another address If the target address is a contract, it must implement {IERC721Receiver-onERC721Received}, which is called upon a safe transfer, and return the magic value `bytes4(keccak256(\"onERC721Received(address,address,uint256,bytes)\"))`; otherwise, the transfer is reverted. Requires the _msgSender() to be the owner, approved, or operator",
        "params": {
          "_data": "bytes data to send along with a safe transfer check",
          "from": "current owner of the token",
          "to": "address to receive the ownership of the given token ID",
          "tokenId": "uint256 ID of the token to be transferred"
        }
      },
      "setApprovalForAll(address,bool)": {
        "details": "Sets or unsets the approval of a given operator An operator is allowed to transfer all tokens of the sender on their behalf.",
        "params": {
          "approved": "representing the status of the approval to be set",
          "to": "operator address to set the approval"
        }
      },
      "supportsInterface(bytes4)": {
        "details": "See {IERC165-supportsInterface}.     * Time complexity O(1), guaranteed to always use less than 30 000 gas."
      },
      "symbol()": {
        "details": "Gets the token symbol.",
        "return": "string representing the token symbol"
      },
      "tokenByIndex(uint256)": {
        "details": "Gets the token ID at a given index of all the tokens in this contract Reverts if the index is greater or equal to the total number of tokens.",
        "params": {
          "index": "uint256 representing the index to be accessed of the tokens list"
        },
        "return": "uint256 token ID at the given index of the tokens list"
      },
      "tokenOfOwnerByIndex(address,uint256)": {
        "details": "Gets the token ID at a given index of the tokens list of the requested owner.",
        "params": {
          "index": "uint256 representing the index to be accessed of the requested tokens list",
          "owner": "address owning the tokens list to be accessed"
        },
        "return": "uint256 token ID at the given index of the tokens list owned by the requested address"
      },
      "totalSupply()": {
        "details": "Gets the total amount of tokens stored by the contract.",
        "return": "uint256 representing the total amount of tokens"
      },
      "transferFrom(address,address,uint256)": {
        "details": "Transfers the ownership of a given token ID to another address. Usage of this method is discouraged, use {safeTransferFrom} whenever possible. Requires the msg.sender to be the owner, approved, or operator.",
        "params": {
          "from": "current owner of the token",
          "to": "address to receive the ownership of the given token ID",
          "tokenId": "uint256 ID of the token to be transferred"
        }
      },
      "transferOwnership(address)": {
        "details": "Transfers ownership of the contract to a new account (`newOwner`). Can only be called by the current owner."
      }
    }
  },
  "userdoc": {
    "methods": {
      "getUserCreated(address)": {
        "notice": "//////////////////////////////----////////////////////////"
      },
      "isApprovedForAll(address,address)": {
        "notice": "Override isApprovedForAll to whitelist user's OpenSea proxy accounts to enable gas-less listings."
      }
    }
  }
}