{
  "contractName": "ComToken",
  "abi": [
    {
      "inputs": [
        {
          "internalType": "string",
          "name": "name",
          "type": "string"
        },
        {
          "internalType": "string",
          "name": "symbol",
          "type": "string"
        },
        {
          "internalType": "address",
          "name": "_proxyRegistryAddress",
          "type": "address"
        }
      ],
      "payable": false,
      "stateMutability": "nonpayable",
      "type": "constructor"
    },
    {
      "anonymous": false,
      "inputs": [
        {
          "indexed": true,
          "internalType": "address",
          "name": "owner",
          "type": "address"
        },
        {
          "indexed": true,
          "internalType": "address",
          "name": "approved",
          "type": "address"
        },
        {
          "indexed": true,
          "internalType": "uint256",
          "name": "tokenId",
          "type": "uint256"
        }
      ],
      "name": "Approval",
      "type": "event"
    },
    {
      "anonymous": false,
      "inputs": [
        {
          "indexed": true,
          "internalType": "address",
          "name": "owner",
          "type": "address"
        },
        {
          "indexed": true,
          "internalType": "address",
          "name": "operator",
          "type": "address"
        },
        {
          "indexed": false,
          "internalType": "bool",
          "name": "approved",
          "type": "bool"
        }
      ],
      "name": "ApprovalForAll",
      "type": "event"
    },
    {
      "anonymous": false,
      "inputs": [
        {
          "indexed": true,
          "internalType": "address",
          "name": "_buyer",
          "type": "address"
        },
        {
          "indexed": true,
          "internalType": "address",
          "name": "_recipient",
          "type": "address"
        },
        {
          "indexed": false,
          "internalType": "uint256",
          "name": "_tokenId",
          "type": "uint256"
        }
      ],
      "name": "BuyToken",
      "type": "event"
    },
    {
      "anonymous": false,
      "inputs": [
        {
          "indexed": true,
          "internalType": "address",
          "name": "operator",
          "type": "address"
        },
        {
          "indexed": true,
          "internalType": "uint256",
          "name": "typeId",
          "type": "uint256"
        },
        {
          "indexed": false,
          "internalType": "string",
          "name": "newURI",
          "type": "string"
        }
      ],
      "name": "ChangeBaseURI",
      "type": "event"
    },
    {
      "anonymous": false,
      "inputs": [
        {
          "indexed": true,
          "internalType": "address",
          "name": "operator",
          "type": "address"
        },
        {
          "indexed": true,
          "internalType": "uint256",
          "name": "typeId",
          "type": "uint256"
        },
        {
          "indexed": false,
          "internalType": "uint256",
          "name": "newPrice",
          "type": "uint256"
        }
      ],
      "name": "ChangePrice",
      "type": "event"
    },
    {
      "anonymous": false,
      "inputs": [
        {
          "indexed": true,
          "internalType": "address",
          "name": "creator",
          "type": "address"
        },
        {
          "indexed": false,
          "internalType": "uint256",
          "name": "typeId",
          "type": "uint256"
        }
      ],
      "name": "CreateToken",
      "type": "event"
    },
    {
      "anonymous": false,
      "inputs": [
        {
          "indexed": true,
          "internalType": "address",
          "name": "_operator",
          "type": "address"
        },
        {
          "indexed": true,
          "internalType": "uint256",
          "name": "typeId",
          "type": "uint256"
        }
      ],
      "name": "MintToken",
      "type": "event"
    },
    {
      "anonymous": false,
      "inputs": [
        {
          "indexed": true,
          "internalType": "address",
          "name": "previousOwner",
          "type": "address"
        },
        {
          "indexed": true,
          "internalType": "address",
          "name": "newOwner",
          "type": "address"
        }
      ],
      "name": "OwnershipTransferred",
      "type": "event"
    },
    {
      "anonymous": false,
      "inputs": [
        {
          "indexed": true,
          "internalType": "address",
          "name": "from",
          "type": "address"
        },
        {
          "indexed": true,
          "internalType": "address",
          "name": "to",
          "type": "address"
        },
        {
          "indexed": true,
          "internalType": "uint256",
          "name": "tokenId",
          "type": "uint256"
        }
      ],
      "name": "Transfer",
      "type": "event"
    },
    {
      "constant": false,
      "inputs": [
        {
          "internalType": "address",
          "name": "to",
          "type": "address"
        },
        {
          "internalType": "uint256",
          "name": "tokenId",
          "type": "uint256"
        }
      ],
      "name": "approve",
      "outputs": [],
      "payable": false,
      "stateMutability": "nonpayable",
      "type": "function"
    },
    {
      "constant": true,
      "inputs": [
        {
          "internalType": "address",
          "name": "owner",
          "type": "address"
        }
      ],
      "name": "balanceOf",
      "outputs": [
        {
          "internalType": "uint256",
          "name": "",
          "type": "uint256"
        }
      ],
      "payable": false,
      "stateMutability": "view",
      "type": "function"
    },
    {
      "constant": true,
      "inputs": [],
      "name": "baseURI",
      "outputs": [
        {
          "internalType": "string",
          "name": "",
          "type": "string"
        }
      ],
      "payable": false,
      "stateMutability": "view",
      "type": "function"
    },
    {
      "constant": true,
      "inputs": [
        {
          "internalType": "uint256",
          "name": "tokenId",
          "type": "uint256"
        }
      ],
      "name": "getApproved",
      "outputs": [
        {
          "internalType": "address",
          "name": "",
          "type": "address"
        }
      ],
      "payable": false,
      "stateMutability": "view",
      "type": "function"
    },
    {
      "constant": true,
      "inputs": [],
      "name": "isOwner",
      "outputs": [
        {
          "internalType": "bool",
          "name": "",
          "type": "bool"
        }
      ],
      "payable": false,
      "stateMutability": "view",
      "type": "function"
    },
    {
      "constant": true,
      "inputs": [],
      "name": "name",
      "outputs": [
        {
          "internalType": "string",
          "name": "",
          "type": "string"
        }
      ],
      "payable": false,
      "stateMutability": "view",
      "type": "function"
    },
    {
      "constant": true,
      "inputs": [
        {
          "internalType": "address",
          "name": "",
          "type": "address"
        },
        {
          "internalType": "uint256",
          "name": "",
          "type": "uint256"
        }
      ],
      "name": "nftTypes",
      "outputs": [
        {
          "internalType": "uint256",
          "name": "",
          "type": "uint256"
        }
      ],
      "payable": false,
      "stateMutability": "view",
      "type": "function"
    },
    {
      "constant": true,
      "inputs": [],
      "name": "nonce",
      "outputs": [
        {
          "internalType": "uint256",
          "name": "",
          "type": "uint256"
        }
      ],
      "payable": false,
      "stateMutability": "view",
      "type": "function"
    },
    {
      "constant": true,
      "inputs": [],
      "name": "owner",
      "outputs": [
        {
          "internalType": "address",
          "name": "",
          "type": "address"
        }
      ],
      "payable": false,
      "stateMutability": "view",
      "type": "function"
    },
    {
      "constant": true,
      "inputs": [
        {
          "internalType": "uint256",
          "name": "tokenId",
          "type": "uint256"
        }
      ],
      "name": "ownerOf",
      "outputs": [
        {
          "internalType": "address",
          "name": "",
          "type": "address"
        }
      ],
      "payable": false,
      "stateMutability": "view",
      "type": "function"
    },
    {
      "constant": false,
      "inputs": [],
      "name": "renounceOwnership",
      "outputs": [],
      "payable": false,
      "stateMutability": "nonpayable",
      "type": "function"
    },
    {
      "constant": false,
      "inputs": [
        {
          "internalType": "address",
          "name": "from",
          "type": "address"
        },
        {
          "internalType": "address",
          "name": "to",
          "type": "address"
        },
        {
          "internalType": "uint256",
          "name": "tokenId",
          "type": "uint256"
        }
      ],
      "name": "safeTransferFrom",
      "outputs": [],
      "payable": false,
      "stateMutability": "nonpayable",
      "type": "function"
    },
    {
      "constant": false,
      "inputs": [
        {
          "internalType": "address",
          "name": "from",
          "type": "address"
        },
        {
          "internalType": "address",
          "name": "to",
          "type": "address"
        },
        {
          "internalType": "uint256",
          "name": "tokenId",
          "type": "uint256"
        },
        {
          "internalType": "bytes",
          "name": "_data",
          "type": "bytes"
        }
      ],
      "name": "safeTransferFrom",
      "outputs": [],
      "payable": false,
      "stateMutability": "nonpayable",
      "type": "function"
    },
    {
      "constant": false,
      "inputs": [
        {
          "internalType": "address",
          "name": "to",
          "type": "address"
        },
        {
          "internalType": "bool",
          "name": "approved",
          "type": "bool"
        }
      ],
      "name": "setApprovalForAll",
      "outputs": [],
      "payable": false,
      "stateMutability": "nonpayable",
      "type": "function"
    },
    {
      "constant": true,
      "inputs": [
        {
          "internalType": "bytes4",
          "name": "interfaceId",
          "type": "bytes4"
        }
      ],
      "name": "supportsInterface",
      "outputs": [
        {
          "internalType": "bool",
          "name": "",
          "type": "bool"
        }
      ],
      "payable": false,
      "stateMutability": "view",
      "type": "function"
    },
    {
      "constant": true,
      "inputs": [],
      "name": "symbol",
      "outputs": [
        {
          "internalType": "string",
          "name": "",
          "type": "string"
        }
      ],
      "payable": false,
      "stateMutability": "view",
      "type": "function"
    },
    {
      "constant": true,
      "inputs": [
        {
          "internalType": "uint256",
          "name": "index",
          "type": "uint256"
        }
      ],
      "name": "tokenByIndex",
      "outputs": [
        {
          "internalType": "uint256",
          "name": "",
          "type": "uint256"
        }
      ],
      "payable": false,
      "stateMutability": "view",
      "type": "function"
    },
    {
      "constant": true,
      "inputs": [
        {
          "internalType": "uint256",
          "name": "",
          "type": "uint256"
        }
      ],
      "name": "tokenInfos",
      "outputs": [
        {
          "internalType": "address",
          "name": "creator",
          "type": "address"
        },
        {
          "internalType": "uint256",
          "name": "amount",
          "type": "uint256"
        },
        {
          "internalType": "uint256",
          "name": "buyAmount",
          "type": "uint256"
        },
        {
          "internalType": "uint256",
          "name": "limit",
          "type": "uint256"
        },
        {
          "internalType": "uint256",
          "name": "buyLimit",
          "type": "uint256"
        },
        {
          "internalType": "uint256",
          "name": "price",
          "type": "uint256"
        },
        {
          "internalType": "address payable",
          "name": "beneficiary",
          "type": "address"
        },
        {
          "internalType": "string",
          "name": "baseURI",
          "type": "string"
        },
        {
          "internalType": "string",
          "name": "icon",
          "type": "string"
        }
      ],
      "payable": false,
      "stateMutability": "view",
      "type": "function"
    },
    {
      "constant": true,
      "inputs": [
        {
          "internalType": "address",
          "name": "owner",
          "type": "address"
        },
        {
          "internalType": "uint256",
          "name": "index",
          "type": "uint256"
        }
      ],
      "name": "tokenOfOwnerByIndex",
      "outputs": [
        {
          "internalType": "uint256",
          "name": "",
          "type": "uint256"
        }
      ],
      "payable": false,
      "stateMutability": "view",
      "type": "function"
    },
    {
      "constant": true,
      "inputs": [],
      "name": "totalSupply",
      "outputs": [
        {
          "internalType": "uint256",
          "name": "",
          "type": "uint256"
        }
      ],
      "payable": false,
      "stateMutability": "view",
      "type": "function"
    },
    {
      "constant": false,
      "inputs": [
        {
          "internalType": "address",
          "name": "from",
          "type": "address"
        },
        {
          "internalType": "address",
          "name": "to",
          "type": "address"
        },
        {
          "internalType": "uint256",
          "name": "tokenId",
          "type": "uint256"
        }
      ],
      "name": "transferFrom",
      "outputs": [],
      "payable": false,
      "stateMutability": "nonpayable",
      "type": "function"
    },
    {
      "constant": false,
      "inputs": [
        {
          "internalType": "address",
          "name": "newOwner",
          "type": "address"
        }
      ],
      "name": "transferOwnership",
      "outputs": [],
      "payable": false,
      "stateMutability": "nonpayable",
      "type": "function"
    },
    {
      "constant": true,
      "inputs": [
        {
          "internalType": "uint256",
          "name": "_typeId",
          "type": "uint256"
        }
      ],
      "name": "isType",
      "outputs": [
        {
          "internalType": "bool",
          "name": "",
          "type": "bool"
        }
      ],
      "payable": false,
      "stateMutability": "view",
      "type": "function"
    },
    {
      "constant": true,
      "inputs": [
        {
          "internalType": "uint256",
          "name": "_tokenId",
          "type": "uint256"
        }
      ],
      "name": "getType",
      "outputs": [
        {
          "internalType": "uint256",
          "name": "",
          "type": "uint256"
        }
      ],
      "payable": false,
      "stateMutability": "pure",
      "type": "function"
    },
    {
      "constant": true,
      "inputs": [
        {
          "internalType": "uint256",
          "name": "_tokenId",
          "type": "uint256"
        }
      ],
      "name": "getTypeBase",
      "outputs": [
        {
          "internalType": "uint256",
          "name": "",
          "type": "uint256"
        }
      ],
      "payable": false,
      "stateMutability": "pure",
      "type": "function"
    },
    {
      "constant": true,
      "inputs": [
        {
          "internalType": "uint256",
          "name": "_tokenId",
          "type": "uint256"
        }
      ],
      "name": "getTokenIdBase",
      "outputs": [
        {
          "internalType": "uint256",
          "name": "",
          "type": "uint256"
        }
      ],
      "payable": false,
      "stateMutability": "pure",
      "type": "function"
    },
    {
      "constant": true,
      "inputs": [
        {
          "internalType": "uint256",
          "name": "_tokenId",
          "type": "uint256"
        }
      ],
      "name": "isExisted",
      "outputs": [
        {
          "internalType": "bool",
          "name": "",
          "type": "bool"
        }
      ],
      "payable": false,
      "stateMutability": "view",
      "type": "function"
    },
    {
      "constant": true,
      "inputs": [
        {
          "internalType": "uint256",
          "name": "_nonce",
          "type": "uint256"
        }
      ],
      "name": "getInfoByNonce",
      "outputs": [
        {
          "internalType": "address[2]",
          "name": "addrs",
          "type": "address[2]"
        },
        {
          "internalType": "uint256[5]",
          "name": "nums",
          "type": "uint256[5]"
        }
      ],
      "payable": false,
      "stateMutability": "view",
      "type": "function"
    },
    {
      "constant": true,
      "inputs": [
        {
          "internalType": "uint256",
          "name": "_nonce",
          "type": "uint256"
        }
      ],
      "name": "getTypeURI",
      "outputs": [
        {
          "internalType": "string",
          "name": "",
          "type": "string"
        }
      ],
      "payable": false,
      "stateMutability": "view",
      "type": "function"
    },
    {
      "constant": true,
      "inputs": [
        {
          "internalType": "uint256",
          "name": "_tokenId",
          "type": "uint256"
        }
      ],
      "name": "tokenURI",
      "outputs": [
        {
          "internalType": "string",
          "name": "",
          "type": "string"
        }
      ],
      "payable": false,
      "stateMutability": "view",
      "type": "function"
    },
    {
      "constant": true,
      "inputs": [
        {
          "internalType": "uint256",
          "name": "_tokenId",
          "type": "uint256"
        }
      ],
      "name": "getTokenImageSvg",
      "outputs": [
        {
          "internalType": "string",
          "name": "",
          "type": "string"
        }
      ],
      "payable": false,
      "stateMutability": "view",
      "type": "function"
    },
    {
      "constant": true,
      "inputs": [
        {
          "internalType": "address",
          "name": "_creator",
          "type": "address"
        }
      ],
      "name": "getUserCreated",
      "outputs": [
        {
          "internalType": "uint256",
          "name": "",
          "type": "uint256"
        }
      ],
      "payable": false,
      "stateMutability": "view",
      "type": "function"
    },
    {
      "constant": true,
      "inputs": [
        {
          "internalType": "address",
          "name": "_creator",
          "type": "address"
        }
      ],
      "name": "getUserAllCreated",
      "outputs": [
        {
          "internalType": "uint256[]",
          "name": "",
          "type": "uint256[]"
        }
      ],
      "payable": false,
      "stateMutability": "view",
      "type": "function"
    },
    {
      "constant": false,
      "inputs": [
        {
          "internalType": "uint256",
          "name": "_limit",
          "type": "uint256"
        },
        {
          "internalType": "uint256",
          "name": "_buyLimt",
          "type": "uint256"
        },
        {
          "internalType": "uint256",
          "name": "_price",
          "type": "uint256"
        },
        {
          "internalType": "address payable",
          "name": "_beneficiary",
          "type": "address"
        },
        {
          "internalType": "string",
          "name": "_baseURI",
          "type": "string"
        },
        {
          "internalType": "string",
          "name": "_icon",
          "type": "string"
        }
      ],
      "name": "createToken",
      "outputs": [
        {
          "internalType": "uint256",
          "name": "_typeId",
          "type": "uint256"
        }
      ],
      "payable": false,
      "stateMutability": "nonpayable",
      "type": "function"
    },
    {
      "constant": false,
      "inputs": [
        {
          "internalType": "uint256",
          "name": "typeId",
          "type": "uint256"
        },
        {
          "internalType": "address",
          "name": "recipient",
          "type": "address"
        }
      ],
      "name": "buyToken",
      "outputs": [],
      "payable": true,
      "stateMutability": "payable",
      "type": "function"
    },
    {
      "constant": false,
      "inputs": [
        {
          "internalType": "uint256",
          "name": "typeId",
          "type": "uint256"
        },
        {
          "internalType": "address[]",
          "name": "to",
          "type": "address[]"
        }
      ],
      "name": "mintToken",
      "outputs": [],
      "payable": false,
      "stateMutability": "nonpayable",
      "type": "function"
    },
    {
      "constant": false,
      "inputs": [
        {
          "internalType": "uint256",
          "name": "typeId",
          "type": "uint256"
        },
        {
          "internalType": "uint256",
          "name": "newPrice",
          "type": "uint256"
        }
      ],
      "name": "changePrice",
      "outputs": [],
      "payable": false,
      "stateMutability": "nonpayable",
      "type": "function"
    },
    {
      "constant": false,
      "inputs": [
        {
          "internalType": "uint256",
          "name": "typeId",
          "type": "uint256"
        },
        {
          "internalType": "string",
          "name": "_url",
          "type": "string"
        }
      ],
      "name": "changeBaseURI",
      "outputs": [],
      "payable": false,
      "stateMutability": "nonpayable",
      "type": "function"
    },
    {
      "constant": true,
      "inputs": [
        {
          "internalType": "address",
          "name": "owner",
          "type": "address"
        }
      ],
      "name": "getBalances",
      "outputs": [
        {
          "internalType": "uint256[]",
          "name": "",
          "type": "uint256[]"
        }
      ],
      "payable": false,
      "stateMutability": "view",
      "type": "function"
    },
    {
      "constant": true,
      "inputs": [
        {
          "internalType": "address",
          "name": "owner",
          "type": "address"
        },
        {
          "internalType": "address",
          "name": "operator",
          "type": "address"
        }
      ],
      "name": "isApprovedForAll",
      "outputs": [
        {
          "internalType": "bool",
          "name": "",
          "type": "bool"
        }
      ],
      "payable": false,
      "stateMutability": "view",
      "type": "function"
    }
  ],
  "bytecode": "0x60806040523480156200001157600080fd5b5060405162005e9638038062005e96833981810160405260608110156200003757600080fd5b81019080805160405193929190846401000000008211156200005857600080fd5b838201915060208201858111156200006f57600080fd5b82518660018202830111640100000000821117156200008d57600080fd5b8083526020830192505050908051906020019080838360005b83811015620000c3578082015181840152602081019050620000a6565b50505050905090810190601f168015620000f15780820380516001836020036101000a031916815260200191505b50604052602001805160405193929190846401000000008211156200011557600080fd5b838201915060208201858111156200012c57600080fd5b82518660018202830111640100000000821117156200014a57600080fd5b8083526020830192505050908051906020019080838360005b838110156200018057808201518184015260208101905062000163565b50505050905090810190601f168015620001ae5780820380516001836020036101000a031916815260200191505b506040526020018051906020019092919050505082828181620001de6301ffc9a760e01b6200042b60201b60201c565b620001f66380ac58cd60e01b6200042b60201b60201c565b6200020e63780e9d6360e01b6200042b60201b60201c565b8160099080519060200190620002269291906200053c565b5080600a90805190602001906200023f9291906200053c565b5062000258635b5e139f60e01b6200042b60201b60201c565b5050505060006200026e6200053460201b60201c565b905080600d60006101000a81548173ffffffffffffffffffffffffffffffffffffffff021916908373ffffffffffffffffffffffffffffffffffffffff1602179055508073ffffffffffffffffffffffffffffffffffffffff16600073ffffffffffffffffffffffffffffffffffffffff167f8be0079c531659141344cd1fd0a4f28419497f9722a3daafe3b4186f6b6457e060405160405180910390a350600073ffffffffffffffffffffffffffffffffffffffff168173ffffffffffffffffffffffffffffffffffffffff161415620003b1576040517f08c379a00000000000000000000000000000000000000000000000000000000081526004018080602001828103825260168152602001807f436f6d546f6b656e3a205a65726f20416464726573730000000000000000000081525060200191505060405180910390fd5b80600e60006101000a81548173ffffffffffffffffffffffffffffffffffffffff021916908373ffffffffffffffffffffffffffffffffffffffff1602179055506200040a63c84aae1760e01b6200042b60201b60201c565b620004226387d2f48c60e01b6200042b60201b60201c565b505050620005eb565b63ffffffff60e01b817bffffffffffffffffffffffffffffffffffffffffffffffffffffffff19161415620004c8576040517f08c379a000000000000000000000000000000000000000000000000000000000815260040180806020018281038252601c8152602001807f4552433136353a20696e76616c696420696e746572666163652069640000000081525060200191505060405180910390fd5b6001600080837bffffffffffffffffffffffffffffffffffffffffffffffffffffffff19167bffffffffffffffffffffffffffffffffffffffffffffffffffffffff1916815260200190815260200160002060006101000a81548160ff02191690831515021790555050565b600033905090565b828054600181600116156101000203166002900490600052602060002090601f016020900481019282601f106200057f57805160ff1916838001178555620005b0565b82800160010185558215620005b0579182015b82811115620005af57825182559160200191906001019062000592565b5b509050620005bf9190620005c3565b5090565b620005e891905b80821115620005e4576000816000905550600101620005ca565b5090565b90565b61589b80620005fb6000396000f3fe60806040526004361061023b5760003560e01c806387d2f48c1161012e578063affed0e0116100ab578063c87b56dd1161006f578063c87b56dd14611395578063c92926fc14611449578063e1ba8bba146114d9578063e985e9c51461152c578063f2fde38b146115b55761023b565b8063affed0e014611108578063b3de019c14611133578063b88d4fde14611178578063c3e38a2f1461128a578063c84aae17146112ef5761023b565b80639134709e116100f25780639134709e14610ece57806395d89b4114610f1c5780639cf1e72714610fac578063a22cb4651461101b578063a5ce883a146110785761023b565b806387d2f48c14610bc15780638da5cb5b14610c755780638f32d59b14610ccc5780638f4af57a14610cfb5780638fd87ad014610e285761023b565b80634036ab78116101bc5780636c0360eb116101805780636c0360eb146108bd57806370a082311461094d578063715018a6146109b25780637656c5a9146109c95780637c13774b14610a185761023b565b80634036ab78146106da57806342842e0e14610729578063476f1667146107a45780634f6ccce7146107f35780636352211e146108425761023b565b806309e1416d1161020357806309e1416d146104be57806318160ddd1461057257806323b872dd1461059d5780632582a616146106185780632f745c591461066b5761023b565b806301ffc9a71461024057806303b54c52146102b257806306fdde0314610358578063081812fc146103e8578063095ea7b314610463575b600080fd5b34801561024c57600080fd5b506102986004803603602081101561026357600080fd5b8101908080357bffffffffffffffffffffffffffffffffffffffffffffffffffffffff19169060200190929190505050611606565b604051808215151515815260200191505060405180910390f35b3480156102be57600080fd5b50610301600480360360208110156102d557600080fd5b81019080803573ffffffffffffffffffffffffffffffffffffffff16906020019092919050505061166d565b6040518080602001828103825283818151815260200191508051906020019060200280838360005b83811015610344578082015181840152602081019050610329565b505050509050019250505060405180910390f35b34801561036457600080fd5b5061036d611704565b6040518080602001828103825283818151815260200191508051906020019080838360005b838110156103ad578082015181840152602081019050610392565b50505050905090810190601f1680156103da5780820380516001836020036101000a031916815260200191505b509250505060405180910390f35b3480156103f457600080fd5b506104216004803603602081101561040b57600080fd5b81019080803590602001909291905050506117a6565b604051808273ffffffffffffffffffffffffffffffffffffffff1673ffffffffffffffffffffffffffffffffffffffff16815260200191505060405180910390f35b34801561046f57600080fd5b506104bc6004803603604081101561048657600080fd5b81019080803573ffffffffffffffffffffffffffffffffffffffff16906020019092919080359060200190929190505050611841565b005b3480156104ca57600080fd5b506104f7600480360360208110156104e157600080fd5b8101908080359060200190929190505050611a28565b6040518080602001828103825283818151815260200191508051906020019080838360005b8381101561053757808201518184015260208101905061051c565b50505050905090810190601f1680156105645780820380516001836020036101000a031916815260200191505b509250505060405180910390f35b34801561057e57600080fd5b50610587611b6e565b6040518082815260200191505060405180910390f35b3480156105a957600080fd5b50610616600480360360608110156105c057600080fd5b81019080803573ffffffffffffffffffffffffffffffffffffffff169060200190929190803573ffffffffffffffffffffffffffffffffffffffff16906020019092919080359060200190929190505050611b7b565b005b34801561062457600080fd5b506106516004803603602081101561063b57600080fd5b8101908080359060200190929190505050611bf1565b604051808215151515815260200191505060405180910390f35b34801561067757600080fd5b506106c46004803603604081101561068e57600080fd5b81019080803573ffffffffffffffffffffffffffffffffffffffff16906020019092919080359060200190929190505050611c5f565b6040518082815260200191505060405180910390f35b3480156106e657600080fd5b50610713600480360360208110156106fd57600080fd5b8101908080359060200190929190505050611d1e565b6040518082815260200191505060405180910390f35b34801561073557600080fd5b506107a26004803603606081101561074c57600080fd5b81019080803573ffffffffffffffffffffffffffffffffffffffff169060200190929190803573ffffffffffffffffffffffffffffffffffffffff16906020019092919080359060200190929190505050611d60565b005b3480156107b057600080fd5b506107dd600480360360208110156107c757600080fd5b8101908080359060200190929190505050611d80565b6040518082815260200191505060405180910390f35b3480156107ff57600080fd5b5061082c6004803603602081101561081657600080fd5b8101908080359060200190929190505050611dc5565b6040518082815260200191505060405180910390f35b34801561084e57600080fd5b5061087b6004803603602081101561086557600080fd5b8101908080359060200190929190505050611e45565b604051808273ffffffffffffffffffffffffffffffffffffffff1673ffffffffffffffffffffffffffffffffffffffff16815260200191505060405180910390f35b3480156108c957600080fd5b506108d2611f0d565b6040518080602001828103825283818151815260200191508051906020019080838360005b838110156109125780820151818401526020810190506108f7565b50505050905090810190601f16801561093f5780820380516001836020036101000a031916815260200191505b509250505060405180910390f35b34801561095957600080fd5b5061099c6004803603602081101561097057600080fd5b81019080803573ffffffffffffffffffffffffffffffffffffffff169060200190929190505050611faf565b6040518082815260200191505060405180910390f35b3480156109be57600080fd5b506109c7612084565b005b3480156109d557600080fd5b50610a02600480360360208110156109ec57600080fd5b81019080803590602001909291905050506121bf565b6040518082815260200191505060405180910390f35b348015610a2457600080fd5b50610a5160048036036020811015610a3b57600080fd5b81019080803590602001909291905050506121fd565b604051808a73ffffffffffffffffffffffffffffffffffffffff1673ffffffffffffffffffffffffffffffffffffffff1681526020018981526020018881526020018781526020018681526020018581526020018473ffffffffffffffffffffffffffffffffffffffff1673ffffffffffffffffffffffffffffffffffffffff1681526020018060200180602001838103835285818151815260200191508051906020019080838360005b83811015610b17578082015181840152602081019050610afc565b50505050905090810190601f168015610b445780820380516001836020036101000a031916815260200191505b50838103825284818151815260200191508051906020019080838360005b83811015610b7d578082015181840152602081019050610b62565b50505050905090810190601f168015610baa5780820380516001836020036101000a031916815260200191505b509b50505050505050505050505060405180910390f35b348015610bcd57600080fd5b50610bfa60048036036020811015610be457600080fd5b81019080803590602001909291905050506123bb565b6040518080602001828103825283818151815260200191508051906020019080838360005b83811015610c3a578082015181840152602081019050610c1f565b50505050905090810190601f168015610c675780820380516001836020036101000a031916815260200191505b509250505060405180910390f35b348015610c8157600080fd5b50610c8a612481565b604051808273ffffffffffffffffffffffffffffffffffffffff1673ffffffffffffffffffffffffffffffffffffffff16815260200191505060405180910390f35b348015610cd857600080fd5b50610ce16124ab565b604051808215151515815260200191505060405180910390f35b348015610d0757600080fd5b50610e12600480360360c0811015610d1e57600080fd5b81019080803590602001909291908035906020019092919080359060200190929190803573ffffffffffffffffffffffffffffffffffffffff16906020019092919080359060200190640100000000811115610d7957600080fd5b820183602082011115610d8b57600080fd5b80359060200191846001830284011164010000000083111715610dad57600080fd5b909192939192939080359060200190640100000000811115610dce57600080fd5b820183602082011115610de057600080fd5b80359060200191846001830284011164010000000083111715610e0257600080fd5b909192939192939050505061250a565b6040518082815260200191505060405180910390f35b348015610e3457600080fd5b50610e6160048036036020811015610e4b57600080fd5b8101908080359060200190929190505050612ab8565b6040518083600260200280838360005b83811015610e8c578082015181840152602081019050610e71565b5050505090500182600560200280838360005b83811015610eba578082015181840152602081019050610e9f565b505050509050019250505060405180910390f35b610f1a60048036036040811015610ee457600080fd5b8101908080359060200190929190803573ffffffffffffffffffffffffffffffffffffffff169060200190929190505050612ec0565b005b348015610f2857600080fd5b50610f3161315b565b6040518080602001828103825283818151815260200191508051906020019080838360005b83811015610f71578082015181840152602081019050610f56565b50505050905090810190601f168015610f9e5780820380516001836020036101000a031916815260200191505b509250505060405180910390f35b348015610fb857600080fd5b5061100560048036036040811015610fcf57600080fd5b81019080803573ffffffffffffffffffffffffffffffffffffffff169060200190929190803590602001909291905050506131fd565b6040518082815260200191505060405180910390f35b34801561102757600080fd5b506110766004803603604081101561103e57600080fd5b81019080803573ffffffffffffffffffffffffffffffffffffffff16906020019092919080351515906020019092919050505061322b565b005b34801561108457600080fd5b506111066004803603604081101561109b57600080fd5b8101908080359060200190929190803590602001906401000000008111156110c257600080fd5b8201836020820111156110d457600080fd5b803590602001918460208302840111640100000000831117156110f657600080fd5b90919293919293905050506133e3565b005b34801561111457600080fd5b5061111d613642565b6040518082815260200191505060405180910390f35b34801561113f57600080fd5b506111766004803603604081101561115657600080fd5b810190808035906020019092919080359060200190929190505050613648565b005b34801561118457600080fd5b506112886004803603608081101561119b57600080fd5b81019080803573ffffffffffffffffffffffffffffffffffffffff169060200190929190803573ffffffffffffffffffffffffffffffffffffffff169060200190929190803590602001909291908035906020019064010000000081111561120257600080fd5b82018360208201111561121457600080fd5b8035906020019184600183028401116401000000008311171561123657600080fd5b91908080601f016020809104026020016040519081016040528093929190818152602001838380828437600081840152601f19601f8201169050808301925050505050505091929192905050506137c0565b005b34801561129657600080fd5b506112d9600480360360208110156112ad57600080fd5b81019080803573ffffffffffffffffffffffffffffffffffffffff169060200190929190505050613838565b6040518082815260200191505060405180910390f35b3480156112fb57600080fd5b5061133e6004803603602081101561131257600080fd5b81019080803573ffffffffffffffffffffffffffffffffffffffff169060200190929190505050613884565b6040518080602001828103825283818151815260200191508051906020019060200280838360005b83811015611381578082015181840152602081019050611366565b505050509050019250505060405180910390f35b3480156113a157600080fd5b506113ce600480360360208110156113b857600080fd5b81019080803590602001909291905050506138e5565b6040518080602001828103825283818151815260200191508051906020019080838360005b8381101561140e5780820151818401526020810190506113f3565b50505050905090810190601f16801561143b5780820380516001836020036101000a031916815260200191505b509250505060405180910390f35b34801561145557600080fd5b506114d76004803603604081101561146c57600080fd5b81019080803590602001909291908035906020019064010000000081111561149357600080fd5b8201836020820111156114a557600080fd5b803590602001918460018302840111640100000000831117156114c757600080fd5b9091929391929390505050613a3d565b005b3480156114e557600080fd5b50611512600480360360208110156114fc57600080fd5b8101908080359060200190929190505050613bed565b604051808215151515815260200191505060405180910390f35b34801561153857600080fd5b5061159b6004803603604081101561154f57600080fd5b81019080803573ffffffffffffffffffffffffffffffffffffffff169060200190929190803573ffffffffffffffffffffffffffffffffffffffff169060200190929190505050613c5f565b604051808215151515815260200191505060405180910390f35b3480156115c157600080fd5b50611604600480360360208110156115d857600080fd5b81019080803573ffffffffffffffffffffffffffffffffffffffff169060200190929190505050613d90565b005b6000806000837bffffffffffffffffffffffffffffffffffffffffffffffffffffffff19167bffffffffffffffffffffffffffffffffffffffffffffffffffffffff1916815260200190815260200160002060009054906101000a900460ff169050919050565b6060601160008373ffffffffffffffffffffffffffffffffffffffff1673ffffffffffffffffffffffffffffffffffffffff1681526020019081526020016000208054806020026020016040519081016040528092919081815260200182805480156116f857602002820191906000526020600020905b8154815260200190600101908083116116e4575b50505050509050919050565b606060098054600181600116156101000203166002900480601f01602080910402602001604051908101604052809291908181526020018280546001816001161561010002031660029004801561179c5780601f106117715761010080835404028352916020019161179c565b820191906000526020600020905b81548152906001019060200180831161177f57829003601f168201915b5050505050905090565b60006117b182613e16565b611806576040517f08c379a000000000000000000000000000000000000000000000000000000000815260040180806020018281038252602c815260200180615769602c913960400191505060405180910390fd5b6002600083815260200190815260200160002060009054906101000a900473ffffffffffffffffffffffffffffffffffffffff169050919050565b600061184c82611e45565b90508073ffffffffffffffffffffffffffffffffffffffff168373ffffffffffffffffffffffffffffffffffffffff1614156118d3576040517f08c379a00000000000000000000000000000000000000000000000000000000081526004018080602001828103825260218152602001806157be6021913960400191505060405180910390fd5b8073ffffffffffffffffffffffffffffffffffffffff166118f2613e88565b73ffffffffffffffffffffffffffffffffffffffff16148061192157506119208161191b613e88565b613c5f565b5b611976576040517f08c379a00000000000000000000000000000000000000000000000000000000081526004018080602001828103825260388152602001806156de6038913960400191505060405180910390fd5b826002600084815260200190815260200160002060006101000a81548173ffffffffffffffffffffffffffffffffffffffff021916908373ffffffffffffffffffffffffffffffffffffffff160217905550818373ffffffffffffffffffffffffffffffffffffffff168273ffffffffffffffffffffffffffffffffffffffff167f8c5be1e5ebec7d5bd14f71427d1e84f3dd0314c0f7b2291e5b200ac8c7c3b92560405160405180910390a4505050565b6060600082118015611a3c5750600f548211155b611aae576040517f08c379a000000000000000000000000000000000000000000000000000000000815260040180806020018281038252601e8152602001807f436f6d546f6b656e3a206e6f6e6365206973206e6f742065786973746564000081525060200191505060405180910390fd5b6000608083901b9050601060008281526020019081526020016000206007018054600181600116156101000203166002900480601f016020809104026020016040519081016040528092919081815260200182805460018160011615610100020316600290048015611b615780601f10611b3657610100808354040283529160200191611b61565b820191906000526020600020905b815481529060010190602001808311611b4457829003601f168201915b5050505050915050919050565b6000600780549050905090565b611b8c611b86613e88565b82613e90565b611be1576040517f08c379a00000000000000000000000000000000000000000000000000000000081526004018080602001828103825260318152602001806157df6031913960400191505060405180910390fd5b611bec838383613f84565b505050565b600080611bfd83611d80565b90506000811480611c0f5750600f5481115b15611c1e576000915050611c5a565b60007fffffffffffffffffffffffffffffffffffffffffffffffffffffffffffffffff6fffffffffffffffffffffffffffffffff168416149150505b919050565b6000611c6a83611faf565b8210611cc1576040517f08c379a000000000000000000000000000000000000000000000000000000000815260040180806020018281038252602b8152602001806155e4602b913960400191505060405180910390fd5b600560008473ffffffffffffffffffffffffffffffffffffffff1673ffffffffffffffffffffffffffffffffffffffff1681526020019081526020016000208281548110611d0b57fe5b9060005260206000200154905092915050565b600060807fffffffffffffffffffffffffffffffffffffffffffffffffffffffffffffffff6fffffffffffffffffffffffffffffffff16901b82169050919050565b611d7b838383604051806020016040528060008152506137c0565b505050565b60006080807fffffffffffffffffffffffffffffffffffffffffffffffffffffffffffffffff6fffffffffffffffffffffffffffffffff16901b8316901c9050919050565b6000611dcf611b6e565b8210611e26576040517f08c379a000000000000000000000000000000000000000000000000000000000815260040180806020018281038252602c815260200180615810602c913960400191505060405180910390fd5b60078281548110611e3357fe5b90600052602060002001549050919050565b6000806001600084815260200190815260200160002060009054906101000a900473ffffffffffffffffffffffffffffffffffffffff169050600073ffffffffffffffffffffffffffffffffffffffff168173ffffffffffffffffffffffffffffffffffffffff161415611f04576040517f08c379a00000000000000000000000000000000000000000000000000000000081526004018080602001828103825260298152602001806157406029913960400191505060405180910390fd5b80915050919050565b6060600b8054600181600116156101000203166002900480601f016020809104026020016040519081016040528092919081815260200182805460018160011615610100020316600290048015611fa55780601f10611f7a57610100808354040283529160200191611fa5565b820191906000526020600020905b815481529060010190602001808311611f8857829003601f168201915b5050505050905090565b60008073ffffffffffffffffffffffffffffffffffffffff168273ffffffffffffffffffffffffffffffffffffffff161415612036576040517f08c379a000000000000000000000000000000000000000000000000000000000815260040180806020018281038252602a815260200180615716602a913960400191505060405180910390fd5b61207d600360008473ffffffffffffffffffffffffffffffffffffffff1673ffffffffffffffffffffffffffffffffffffffff168152602001908152602001600020613fa8565b9050919050565b61208c6124ab565b6120fe576040517f08c379a00000000000000000000000000000000000000000000000000000000081526004018080602001828103825260208152602001807f4f776e61626c653a2063616c6c6572206973206e6f7420746865206f776e657281525060200191505060405180910390fd5b600073ffffffffffffffffffffffffffffffffffffffff16600d60009054906101000a900473ffffffffffffffffffffffffffffffffffffffff1673ffffffffffffffffffffffffffffffffffffffff167f8be0079c531659141344cd1fd0a4f28419497f9722a3daafe3b4186f6b6457e060405160405180910390a36000600d60006101000a81548173ffffffffffffffffffffffffffffffffffffffff021916908373ffffffffffffffffffffffffffffffffffffffff160217905550565b60007fffffffffffffffffffffffffffffffffffffffffffffffffffffffffffffffff6fffffffffffffffffffffffffffffffff1682169050919050565b60106020528060005260406000206000915090508060000160009054906101000a900473ffffffffffffffffffffffffffffffffffffffff16908060010154908060020154908060030154908060040154908060050154908060060160009054906101000a900473ffffffffffffffffffffffffffffffffffffffff1690806007018054600181600116156101000203166002900480601f0160208091040260200160405190810160405280929190818152602001828054600181600116156101000203166002900480156123135780601f106122e857610100808354040283529160200191612313565b820191906000526020600020905b8154815290600101906020018083116122f657829003601f168201915b505050505090806008018054600181600116156101000203166002900480601f0160208091040260200160405190810160405280929190818152602001828054600181600116156101000203166002900480156123b15780601f10612386576101008083540402835291602001916123b1565b820191906000526020600020905b81548152906001019060200180831161239457829003601f168201915b5050505050905089565b606060006123c883611d1e565b9050601060008281526020019081526020016000206008018054600181600116156101000203166002900480601f0160208091040260200160405190810160405280929190818152602001828054600181600116156101000203166002900480156124745780601f1061244957610100808354040283529160200191612474565b820191906000526020600020905b81548152906001019060200180831161245757829003601f168201915b5050505050915050919050565b6000600d60009054906101000a900473ffffffffffffffffffffffffffffffffffffffff16905090565b6000600d60009054906101000a900473ffffffffffffffffffffffffffffffffffffffff1673ffffffffffffffffffffffffffffffffffffffff166124ee613e88565b73ffffffffffffffffffffffffffffffffffffffff1614905090565b60006125146124ab565b612586576040517f08c379a00000000000000000000000000000000000000000000000000000000081526004018080602001828103825260208152602001807f4f776e61626c653a2063616c6c6572206973206e6f7420746865206f776e657281525060200191505060405180910390fd5b7fffffffffffffffffffffffffffffffffffffffffffffffffffffffffffffffff6fffffffffffffffffffffffffffffffff16881080156125f857507fffffffffffffffffffffffffffffffffffffffffffffffffffffffffffffffff6fffffffffffffffffffffffffffffffff1689105b61266a576040517f08c379a000000000000000000000000000000000000000000000000000000000815260040180806020018281038252601a8152602001807f436f6d546f6b656e3a206f7574206f66206d61785f6c696d697400000000000081525060200191505060405180910390fd5b600089905060008114156126b15760017fffffffffffffffffffffffffffffffffffffffffffffffffffffffffffffffff6fffffffffffffffffffffffffffffffff160390505b80891115612727576040517f08c379a00000000000000000000000000000000000000000000000000000000081526004018080602001828103825260188152602001807f436f6d546f6b656e3a206275794c696d6974206572726f72000000000000000081525060200191505060405180910390fd5b7fffffffffffffffffffffffffffffffffffffffffffffffffffffffffffffffff6fffffffffffffffffffffffffffffffff166001600f540111156127b7576040517f08c379a00000000000000000000000000000000000000000000000000000000081526004018080602001828103825260278152602001806156b76027913960400191505060405180910390fd5b6080600f60008154600101919050819055901b91506127d46153d6565b6040518061012001604052806127e8613e88565b73ffffffffffffffffffffffffffffffffffffffff16815260200160008152602001600081526020018381526020018b81526020018a81526020018973ffffffffffffffffffffffffffffffffffffffff16815260200188888080601f016020809104026020016040519081016040528093929190818152602001838380828437600081840152601f19601f82011690508083019250505050505050815260200186868080601f016020809104026020016040519081016040528093929190818152602001838380828437600081840152601f19601f820116905080830192505050505050508152509050806010600085815260200190815260200160002060008201518160000160006101000a81548173ffffffffffffffffffffffffffffffffffffffff021916908373ffffffffffffffffffffffffffffffffffffffff1602179055506020820151816001015560408201518160020155606082015181600301556080820151816004015560a0820151816005015560c08201518160060160006101000a81548173ffffffffffffffffffffffffffffffffffffffff021916908373ffffffffffffffffffffffffffffffffffffffff16021790555060e08201518160070190805190602001906129c392919061544e565b506101008201518160080190805190602001906129e192919061544e565b50905050601160006129f1613e88565b73ffffffffffffffffffffffffffffffffffffffff1673ffffffffffffffffffffffffffffffffffffffff168152602001908152602001600020839080600181540180825580915050906001820390600052602060002001600090919290919091505550612a5d613e88565b73ffffffffffffffffffffffffffffffffffffffff167fb378e89b40ac5bbe0e2241b596fbe1adc3cf1fb7c982aa1b4560165cf264ee93846040518082815260200191505060405180910390a2505098975050505050505050565b612ac06154ce565b612ac86154f0565b600083118015612ada5750600f548311155b612b4c576040517f08c379a000000000000000000000000000000000000000000000000000000000815260040180806020018281038252601e8152602001807f436f6d546f6b656e3a206e6f6e6365206973206e6f742065786973746564000081525060200191505060405180910390fd5b6000608084901b9050612b5d6153d6565b60106000838152602001908152602001600020604051806101200160405290816000820160009054906101000a900473ffffffffffffffffffffffffffffffffffffffff1673ffffffffffffffffffffffffffffffffffffffff1673ffffffffffffffffffffffffffffffffffffffff16815260200160018201548152602001600282015481526020016003820154815260200160048201548152602001600582015481526020016006820160009054906101000a900473ffffffffffffffffffffffffffffffffffffffff1673ffffffffffffffffffffffffffffffffffffffff1673ffffffffffffffffffffffffffffffffffffffff168152602001600782018054600181600116156101000203166002900480601f016020809104026020016040519081016040528092919081815260200182805460018160011615610100020316600290048015612cf35780601f10612cc857610100808354040283529160200191612cf3565b820191906000526020600020905b815481529060010190602001808311612cd657829003601f168201915b50505050508152602001600882018054600181600116156101000203166002900480601f016020809104026020016040519081016040528092919081815260200182805460018160011615610100020316600290048015612d955780601f10612d6a57610100808354040283529160200191612d95565b820191906000526020600020905b815481529060010190602001808311612d7857829003601f168201915b5050505050815250509050806000015184600060028110612db257fe5b602002019073ffffffffffffffffffffffffffffffffffffffff16908173ffffffffffffffffffffffffffffffffffffffff16815250508060c0015184600160028110612dfb57fe5b602002019073ffffffffffffffffffffffffffffffffffffffff16908173ffffffffffffffffffffffffffffffffffffffff1681525050806060015183600060058110612e4457fe5b602002018181525050806020015183600160058110612e5f57fe5b602002018181525050806080015183600260058110612e7a57fe5b602002018181525050806040015183600360058110612e9557fe5b6020020181815250508060a0015183600460058110612eb057fe5b6020020181815250505050915091565b612ec982611bf1565b612f3b576040517f08c379a00000000000000000000000000000000000000000000000000000000081526004018080602001828103825260148152602001807f436f6d546f6b656e3a206e6f742061207479706500000000000000000000000081525060200191505060405180910390fd5b60006010600084815260200190815260200160002090508060050154341015612faf576040517f08c379a000000000000000000000000000000000000000000000000000000000815260040180806020018281038252602b81526020018061583c602b913960400191505060405180910390fd5b806001016000815480929190600101919050555080600201600081548092919060010191905055508060040154816002015411158015612ff757508060030154816001015411155b613069576040517f08c379a000000000000000000000000000000000000000000000000000000000815260040180806020018281038252601a8152602001807f436f6d546f6b656e3a206f7574206f6620746865206c696d697400000000000081525060200191505060405180910390fd5b600081600101548417905061307e8382613fb6565b8160060160009054906101000a900473ffffffffffffffffffffffffffffffffffffffff1673ffffffffffffffffffffffffffffffffffffffff166108fc349081150290604051600060405180830381858888f193505050501580156130e8573d6000803e3d6000fd5b508273ffffffffffffffffffffffffffffffffffffffff16613108613e88565b73ffffffffffffffffffffffffffffffffffffffff167fa5ff468a42a1c7f5a78dd6683a9722f1ef3c388d590959bbd7a6d2c837fcab07836040518082815260200191505060405180910390a350505050565b6060600a8054600181600116156101000203166002900480601f0160208091040260200160405190810160405280929190818152602001828054600181600116156101000203166002900480156131f35780601f106131c8576101008083540402835291602001916131f3565b820191906000526020600020905b8154815290600101906020018083116131d657829003601f168201915b5050505050905090565b6011602052816000526040600020818154811061321657fe5b90600052602060002001600091509150505481565b613233613e88565b73ffffffffffffffffffffffffffffffffffffffff168273ffffffffffffffffffffffffffffffffffffffff1614156132d4576040517f08c379a00000000000000000000000000000000000000000000000000000000081526004018080602001828103825260198152602001807f4552433732313a20617070726f766520746f2063616c6c65720000000000000081525060200191505060405180910390fd5b80600460006132e1613e88565b73ffffffffffffffffffffffffffffffffffffffff1673ffffffffffffffffffffffffffffffffffffffff16815260200190815260200160002060008473ffffffffffffffffffffffffffffffffffffffff1673ffffffffffffffffffffffffffffffffffffffff16815260200190815260200160002060006101000a81548160ff0219169083151502179055508173ffffffffffffffffffffffffffffffffffffffff1661338e613e88565b73ffffffffffffffffffffffffffffffffffffffff167f17307eab39ab6107e8899845ad3d59bd9653f200f220920489ca2b5937696c3183604051808215151515815260200191505060405180910390a35050565b826133ec613e88565b73ffffffffffffffffffffffffffffffffffffffff166010600083815260200190815260200160002060000160009054906101000a900473ffffffffffffffffffffffffffffffffffffffff1673ffffffffffffffffffffffffffffffffffffffff16146134c2576040517f08c379a000000000000000000000000000000000000000000000000000000000815260040180806020018281038252601b8152602001807f436f6d546f6b656e3a207065726d697373696f6e2064656e696564000000000081525060200191505060405180910390fd5b6000601060008681526020019081526020016000209050600084849050905081600301546134fd828460010154613fd790919063ffffffff16565b1115613571576040517f08c379a000000000000000000000000000000000000000000000000000000000815260040180806020018281038252601a8152602001807f436f6d546f6b656e3a206f7574206f6620746865206c696d697400000000000081525060200191505060405180910390fd5b60008090505b818110156135cf57600060018285600101540101881790506135c187878481811061359e57fe5b9050602002013573ffffffffffffffffffffffffffffffffffffffff1682613fb6565b508080600101915050613577565b506135e7818360010154613fd790919063ffffffff16565b8260010181905550856135f8613e88565b73ffffffffffffffffffffffffffffffffffffffff167fdcdea898caf5576419f89caf69301592a4758349a0bd62300b58849213420a7260405160405180910390a3505050505050565b600f5481565b81613651613e88565b73ffffffffffffffffffffffffffffffffffffffff166010600083815260200190815260200160002060000160009054906101000a900473ffffffffffffffffffffffffffffffffffffffff1673ffffffffffffffffffffffffffffffffffffffff1614613727576040517f08c379a000000000000000000000000000000000000000000000000000000000815260040180806020018281038252601b8152602001807f436f6d546f6b656e3a207065726d697373696f6e2064656e696564000000000081525060200191505060405180910390fd5b6000601060008581526020019081526020016000209050828160050181905550838160000160009054906101000a900473ffffffffffffffffffffffffffffffffffffffff1673ffffffffffffffffffffffffffffffffffffffff167fe5de233c6530662ac259214d2d41e53a2947e4f5f7db51d03ba4a81d7ddccbf7856040518082815260200191505060405180910390a350505050565b6137d16137cb613e88565b83613e90565b613826576040517f08c379a00000000000000000000000000000000000000000000000000000000081526004018080602001828103825260318152602001806157df6031913960400191505060405180910390fd5b6138328484848461405f565b50505050565b6000601160008373ffffffffffffffffffffffffffffffffffffffff1673ffffffffffffffffffffffffffffffffffffffff168152602001908152602001600020805490509050919050565b606061388f826140d1565b8054806020026020016040519081016040528092919081815260200182805480156138d957602002820191906000526020600020905b8154815260200190600101908083116138c5575b50505050509050919050565b60606138f082613bed565b613962576040517f08c379a00000000000000000000000000000000000000000000000000000000081526004018080602001828103825260208152602001807f436f6d546f6b656e3a20746f6b656e4964206973206e6f74206578697374656481525060200191505060405180910390fd5b600061396d83611d1e565b90506060601060008381526020019081526020016000206007018054600181600116156101000203166002900480601f016020809104026020016040519081016040528092919081815260200182805460018160011615610100020316600290048015613a1b5780601f106139f057610100808354040283529160200191613a1b565b820191906000526020600020905b8154815290600101906020018083116139fe57829003601f168201915b50505050509050613a3481613a2f86614119565b614246565b92505050919050565b82613a46613e88565b73ffffffffffffffffffffffffffffffffffffffff166010600083815260200190815260200160002060000160009054906101000a900473ffffffffffffffffffffffffffffffffffffffff1673ffffffffffffffffffffffffffffffffffffffff1614613b1c576040517f08c379a000000000000000000000000000000000000000000000000000000000815260040180806020018281038252601b8152602001807f436f6d546f6b656e3a207065726d697373696f6e2064656e696564000000000081525060200191505060405180910390fd5b60006010600086815260200190815260200160002090508383826007019190613b46929190615512565b50848160000160009054906101000a900473ffffffffffffffffffffffffffffffffffffffff1673ffffffffffffffffffffffffffffffffffffffff167fe626e260b954a7057102eed183b8bd79284e8580a404ed4b21a79d1d1a9f081c868660405180806020018281038252848482818152602001925080828437600081840152601f19601f820116905080830192505050935050505060405180910390a35050505050565b600080613bf983611d1e565b9050613c0481611bf1565b613c12576000915050613c5a565b6000613c1d846121bf565b90506000811480613c435750601060008381526020019081526020016000206001015481115b15613c5357600092505050613c5a565b6001925050505b919050565b600080600e60009054906101000a900473ffffffffffffffffffffffffffffffffffffffff1690508273ffffffffffffffffffffffffffffffffffffffff168173ffffffffffffffffffffffffffffffffffffffff1663c4552791866040518263ffffffff1660e01b8152600401808273ffffffffffffffffffffffffffffffffffffffff1673ffffffffffffffffffffffffffffffffffffffff16815260200191505060206040518083038186803b158015613d1b57600080fd5b505afa158015613d2f573d6000803e3d6000fd5b505050506040513d6020811015613d4557600080fd5b810190808051906020019092919050505073ffffffffffffffffffffffffffffffffffffffff161415613d7c576001915050613d8a565b613d86848461428a565b9150505b92915050565b613d986124ab565b613e0a576040517f08c379a00000000000000000000000000000000000000000000000000000000081526004018080602001828103825260208152602001807f4f776e61626c653a2063616c6c6572206973206e6f7420746865206f776e657281525060200191505060405180910390fd5b613e138161431e565b50565b6000806001600084815260200190815260200160002060009054906101000a900473ffffffffffffffffffffffffffffffffffffffff169050600073ffffffffffffffffffffffffffffffffffffffff168173ffffffffffffffffffffffffffffffffffffffff161415915050919050565b600033905090565b6000613e9b82613e16565b613ef0576040517f08c379a000000000000000000000000000000000000000000000000000000000815260040180806020018281038252602c81526020018061568b602c913960400191505060405180910390fd5b6000613efb83611e45565b90508073ffffffffffffffffffffffffffffffffffffffff168473ffffffffffffffffffffffffffffffffffffffff161480613f6a57508373ffffffffffffffffffffffffffffffffffffffff16613f52846117a6565b73ffffffffffffffffffffffffffffffffffffffff16145b80613f7b5750613f7a8185613c5f565b5b91505092915050565b613f8f838383614464565b613f9983826146bf565b613fa3828261485d565b505050565b600081600001549050919050565b613fc08282614924565b613fca828261485d565b613fd381614b3c565b5050565b600080828401905083811015614055576040517f08c379a000000000000000000000000000000000000000000000000000000000815260040180806020018281038252601b8152602001807f536166654d6174683a206164646974696f6e206f766572666c6f77000000000081525060200191505060405180910390fd5b8091505092915050565b61406a848484613f84565b61407684848484614b88565b6140cb576040517f08c379a000000000000000000000000000000000000000000000000000000000815260040180806020018281038252603281526020018061560f6032913960400191505060405180910390fd5b50505050565b6000600560008373ffffffffffffffffffffffffffffffffffffffff1673ffffffffffffffffffffffffffffffffffffffff1681526020019081526020016000209050919050565b60606000821415614161576040518060400160405280600181526020017f30000000000000000000000000000000000000000000000000000000000000008152509050614241565b600082905060005b6000821461418b578080600101915050600a828161418357fe5b049150614169565b6060816040519080825280601f01601f1916602001820160405280156141c05781602001600182028038833980820191505090505b50905060006001830390505b6000861461423957600a86816141de57fe5b0660300160f81b828280600190039350815181106141f857fe5b60200101907effffffffffffffffffffffffffffffffffffffffffffffffffffffffffffff1916908160001a905350600a868161423157fe5b0495506141cc565b819450505050505b919050565b60606142828383604051806020016040528060008152506040518060200160405280600081525060405180602001604052806000815250614ec4565b905092915050565b6000600460008473ffffffffffffffffffffffffffffffffffffffff1673ffffffffffffffffffffffffffffffffffffffff16815260200190815260200160002060008373ffffffffffffffffffffffffffffffffffffffff1673ffffffffffffffffffffffffffffffffffffffff16815260200190815260200160002060009054906101000a900460ff16905092915050565b600073ffffffffffffffffffffffffffffffffffffffff168173ffffffffffffffffffffffffffffffffffffffff1614156143a4576040517f08c379a00000000000000000000000000000000000000000000000000000000081526004018080602001828103825260268152602001806156416026913960400191505060405180910390fd5b8073ffffffffffffffffffffffffffffffffffffffff16600d60009054906101000a900473ffffffffffffffffffffffffffffffffffffffff1673ffffffffffffffffffffffffffffffffffffffff167f8be0079c531659141344cd1fd0a4f28419497f9722a3daafe3b4186f6b6457e060405160405180910390a380600d60006101000a81548173ffffffffffffffffffffffffffffffffffffffff021916908373ffffffffffffffffffffffffffffffffffffffff16021790555050565b8273ffffffffffffffffffffffffffffffffffffffff1661448482611e45565b73ffffffffffffffffffffffffffffffffffffffff16146144f0576040517f08c379a00000000000000000000000000000000000000000000000000000000081526004018080602001828103825260298152602001806157956029913960400191505060405180910390fd5b600073ffffffffffffffffffffffffffffffffffffffff168273ffffffffffffffffffffffffffffffffffffffff161415614576576040517f08c379a00000000000000000000000000000000000000000000000000000000081526004018080602001828103825260248152602001806156676024913960400191505060405180910390fd5b61457f8161518a565b6145c6600360008573ffffffffffffffffffffffffffffffffffffffff1673ffffffffffffffffffffffffffffffffffffffff168152602001908152602001600020615248565b61460d600360008473ffffffffffffffffffffffffffffffffffffffff1673ffffffffffffffffffffffffffffffffffffffff16815260200190815260200160002061526b565b816001600083815260200190815260200160002060006101000a81548173ffffffffffffffffffffffffffffffffffffffff021916908373ffffffffffffffffffffffffffffffffffffffff160217905550808273ffffffffffffffffffffffffffffffffffffffff168473ffffffffffffffffffffffffffffffffffffffff167fddf252ad1be2c89b69c2b068fc378daa952ba7f163c4a11628f55a4df523b3ef60405160405180910390a4505050565b60006147176001600560008673ffffffffffffffffffffffffffffffffffffffff1673ffffffffffffffffffffffffffffffffffffffff1681526020019081526020016000208054905061528190919063ffffffff16565b9050600060066000848152602001908152602001600020549050818114614804576000600560008673ffffffffffffffffffffffffffffffffffffffff1673ffffffffffffffffffffffffffffffffffffffff168152602001908152602001600020838154811061478457fe5b9060005260206000200154905080600560008773ffffffffffffffffffffffffffffffffffffffff1673ffffffffffffffffffffffffffffffffffffffff16815260200190815260200160002083815481106147dc57fe5b9060005260206000200181905550816006600083815260200190815260200160002081905550505b600560008573ffffffffffffffffffffffffffffffffffffffff1673ffffffffffffffffffffffffffffffffffffffff1681526020019081526020016000208054809190600190036148569190615592565b5050505050565b600560008373ffffffffffffffffffffffffffffffffffffffff1673ffffffffffffffffffffffffffffffffffffffff168152602001908152602001600020805490506006600083815260200190815260200160002081905550600560008373ffffffffffffffffffffffffffffffffffffffff1673ffffffffffffffffffffffffffffffffffffffff1681526020019081526020016000208190806001815401808255809150509060018203906000526020600020016000909192909190915055505050565b600073ffffffffffffffffffffffffffffffffffffffff168273ffffffffffffffffffffffffffffffffffffffff1614156149c7576040517f08c379a00000000000000000000000000000000000000000000000000000000081526004018080602001828103825260208152602001807f4552433732313a206d696e7420746f20746865207a65726f206164647265737381525060200191505060405180910390fd5b6149d081613e16565b15614a43576040517f08c379a000000000000000000000000000000000000000000000000000000000815260040180806020018281038252601c8152602001807f4552433732313a20746f6b656e20616c7265616479206d696e7465640000000081525060200191505060405180910390fd5b816001600083815260200190815260200160002060006101000a81548173ffffffffffffffffffffffffffffffffffffffff021916908373ffffffffffffffffffffffffffffffffffffffff160217905550614adc600360008473ffffffffffffffffffffffffffffffffffffffff1673ffffffffffffffffffffffffffffffffffffffff16815260200190815260200160002061526b565b808273ffffffffffffffffffffffffffffffffffffffff16600073ffffffffffffffffffffffffffffffffffffffff167fddf252ad1be2c89b69c2b068fc378daa952ba7f163c4a11628f55a4df523b3ef60405160405180910390a45050565b6007805490506008600083815260200190815260200160002081905550600781908060018154018082558091505090600182039060005260206000200160009091929091909150555050565b6000614ba98473ffffffffffffffffffffffffffffffffffffffff166152cb565b614bb65760019050614ebc565b600060608573ffffffffffffffffffffffffffffffffffffffff168673ffffffffffffffffffffffffffffffffffffffff1663150b7a02905060e01b614bfa613e88565b898888604051602401808573ffffffffffffffffffffffffffffffffffffffff1673ffffffffffffffffffffffffffffffffffffffff1681526020018473ffffffffffffffffffffffffffffffffffffffff1673ffffffffffffffffffffffffffffffffffffffff16815260200183815260200180602001828103825283818151815260200191508051906020019080838360005b83811015614caa578082015181840152602081019050614c8f565b50505050905090810190601f168015614cd75780820380516001836020036101000a031916815260200191505b5095505050505050604051602081830303815290604052907bffffffffffffffffffffffffffffffffffffffffffffffffffffffff19166020820180517bffffffffffffffffffffffffffffffffffffffffffffffffffffffff83818316178352505050506040518082805190602001908083835b60208310614d6f5780518252602082019150602081019050602083039250614d4c565b6001836020036101000a0380198251168184511680821785525050505050509050019150506000604051808303816000865af19150503d8060008114614dd1576040519150601f19603f3d011682016040523d82523d6000602084013e614dd6565b606091505b509150915081614e4457600081511115614df35780518082602001fd5b6040517f08c379a000000000000000000000000000000000000000000000000000000000815260040180806020018281038252603281526020018061560f6032913960400191505060405180910390fd5b6000818060200190516020811015614e5b57600080fd5b8101908080519060200190929190505050905063150b7a0260e01b7bffffffffffffffffffffffffffffffffffffffffffffffffffffffff1916817bffffffffffffffffffffffffffffffffffffffffffffffffffffffff19161493505050505b949350505050565b6060808690506060869050606086905060608690506060869050606081518351855187518951010101016040519080825280601f01601f191660200182016040528015614f205781602001600182028038833980820191505090505b5090506060819050600080905060008090505b8851811015614fa157888181518110614f4857fe5b602001015160f81c60f81b838380600101945081518110614f6557fe5b60200101907effffffffffffffffffffffffffffffffffffffffffffffffffffffffffffff1916908160001a9053508080600101915050614f33565b5060008090505b875181101561501657878181518110614fbd57fe5b602001015160f81c60f81b838380600101945081518110614fda57fe5b60200101907effffffffffffffffffffffffffffffffffffffffffffffffffffffffffffff1916908160001a9053508080600101915050614fa8565b5060008090505b865181101561508b5786818151811061503257fe5b602001015160f81c60f81b83838060010194508151811061504f57fe5b60200101907effffffffffffffffffffffffffffffffffffffffffffffffffffffffffffff1916908160001a905350808060010191505061501d565b5060008090505b8551811015615100578581815181106150a757fe5b602001015160f81c60f81b8383806001019450815181106150c457fe5b60200101907effffffffffffffffffffffffffffffffffffffffffffffffffffffffffffff1916908160001a9053508080600101915050615092565b5060008090505b84518110156151755784818151811061511c57fe5b602001015160f81c60f81b83838060010194508151811061513957fe5b60200101907effffffffffffffffffffffffffffffffffffffffffffffffffffffffffffff1916908160001a9053508080600101915050615107565b50819850505050505050505095945050505050565b600073ffffffffffffffffffffffffffffffffffffffff166002600083815260200190815260200160002060009054906101000a900473ffffffffffffffffffffffffffffffffffffffff1673ffffffffffffffffffffffffffffffffffffffff16146152455760006002600083815260200190815260200160002060006101000a81548173ffffffffffffffffffffffffffffffffffffffff021916908373ffffffffffffffffffffffffffffffffffffffff1602179055505b50565b6152606001826000015461528190919063ffffffff16565b816000018190555050565b6001816000016000828254019250508190555050565b60006152c383836040518060400160405280601e81526020017f536166654d6174683a207375627472616374696f6e206f766572666c6f770000815250615316565b905092915050565b60008060007fc5d2460186f7233c927e7db2dcc703c0e500b653ca82273b7bfad8045d85a47060001b9050833f915080821415801561530d57506000801b8214155b92505050919050565b60008383111582906153c3576040517f08c379a00000000000000000000000000000000000000000000000000000000081526004018080602001828103825283818151815260200191508051906020019080838360005b8381101561538857808201518184015260208101905061536d565b50505050905090810190601f1680156153b55780820380516001836020036101000a031916815260200191505b509250505060405180910390fd5b5060008385039050809150509392505050565b604051806101200160405280600073ffffffffffffffffffffffffffffffffffffffff1681526020016000815260200160008152602001600081526020016000815260200160008152602001600073ffffffffffffffffffffffffffffffffffffffff16815260200160608152602001606081525090565b828054600181600116156101000203166002900490600052602060002090601f016020900481019282601f1061548f57805160ff19168380011785556154bd565b828001600101855582156154bd579182015b828111156154bc5782518255916020019190600101906154a1565b5b5090506154ca91906155be565b5090565b6040518060400160405280600290602082028038833980820191505090505090565b6040518060a00160405280600590602082028038833980820191505090505090565b828054600181600116156101000203166002900490600052602060002090601f016020900481019282601f1061555357803560ff1916838001178555615581565b82800160010185558215615581579182015b82811115615580578235825591602001919060010190615565565b5b50905061558e91906155be565b5090565b8154818355818111156155b9578183600052602060002091820191016155b891906155be565b5b505050565b6155e091905b808211156155dc5760008160009055506001016155c4565b5090565b9056fe455243373231456e756d657261626c653a206f776e657220696e646578206f7574206f6620626f756e64734552433732313a207472616e7366657220746f206e6f6e20455243373231526563656976657220696d706c656d656e7465724f776e61626c653a206e6577206f776e657220697320746865207a65726f20616464726573734552433732313a207472616e7366657220746f20746865207a65726f20616464726573734552433732313a206f70657261746f7220717565727920666f72206e6f6e6578697374656e7420746f6b656e436f6d546f6b656e3a2074686520616d6f756e74206f662074797065206973206d6178696e756d4552433732313a20617070726f76652063616c6c6572206973206e6f74206f776e6572206e6f7220617070726f76656420666f7220616c6c4552433732313a2062616c616e636520717565727920666f7220746865207a65726f20616464726573734552433732313a206f776e657220717565727920666f72206e6f6e6578697374656e7420746f6b656e4552433732313a20617070726f76656420717565727920666f72206e6f6e6578697374656e7420746f6b656e4552433732313a207472616e73666572206f6620746f6b656e2074686174206973206e6f74206f776e4552433732313a20617070726f76616c20746f2063757272656e74206f776e65724552433732313a207472616e736665722063616c6c6572206973206e6f74206f776e6572206e6f7220617070726f766564455243373231456e756d657261626c653a20676c6f62616c20696e646578206f7574206f6620626f756e6473436f6d546f6b656e3a20696e73756666696369656e7420657468657273206f72207a65726f207072696365a265627a7a72315820eeff533d8b347f3b451b1c9c132d12a7e2c3abf4f1a94af117fc17f725f26b6c64736f6c63430005100032",
  "source": "pragma solidity ^ 0.5.0;\n\n\nimport \"@openzeppelin/contracts/ownership/Ownable.sol\";\nimport \"@openzeppelin/contracts/token/ERC721/ERC721Full.sol\";\nimport './Strings.sol';\n\n\n//opensea\ncontract OwnableDelegateProxy {}\n\n\ncontract ProxyRegistry {\n    mapping(address => OwnableDelegateProxy) public proxies;\n}\n\n\n//721NFT\ncontract ComToken is ERC721Full, Ownable {\n    using Strings for string;\n    //\n    uint constant MAX_LIMIT = uint(uint128(~0));\n    //1281\n    uint256 constant NF_INDEX_MASK = uint(uint128(~0));\n    //1281\n    uint constant TYPE_MASK = uint(uint128(~0)) << 128;\n    //alhpa\n    /* bytes4(keccak256('getBalances(address)')) == 0xc84aae17 */\n    bytes4 private constant _INTERFACE_ID_Token_BALANCES = 0xc84aae17;\n    //\n    /* bytes4(keccak256('getTokenImageSvg(uint256)')) == 0x87d2f48c */\n    bytes4 private constant _INTERFACE_ID_TOKEN_IMAGE_SVG = 0x87d2f48c;\n\n    struct TokenInfo {\n        address creator; //\n        uint amount; //\n        uint buyAmount;//\n        uint limit; //\n        uint buyLimit;//\n        uint price; //\n        address payable beneficiary;     //\n        string baseURI; //baseURI\n        string icon; //SVG\n    }\n\n    //\n    address proxyRegistryAddress;\n    //\n    uint public nonce;\n    //\n    mapping(uint => TokenInfo) public tokenInfos;  // type => info\n    //\n    mapping(address => uint[]) public nftTypes;     //creator => type[]\n\n    //event\n    event CreateToken(address indexed creator,uint typeId);\n    event ChangePrice(address indexed operator,uint indexed typeId,uint newPrice);\n    event ChangeBaseURI(address indexed operator,uint indexed typeId,string newURI);\n    event BuyToken(address indexed _buyer,address indexed _recipient, uint _tokenId);\n    event MintToken(address indexed _operator,uint indexed typeId);\n\n    //\n    modifier onlyCreator(uint typeId) {\n        require(tokenInfos[typeId].creator == _msgSender(),\"ComToken: permission denied\");\n        _;\n    }\n\n    constructor(string memory name, string memory symbol, address _proxyRegistryAddress) public ERC721Full(name, symbol) {\n        require(_proxyRegistryAddress != address(0),\"ComToken: Zero Address\");\n        proxyRegistryAddress = _proxyRegistryAddress;\n        _registerInterface(_INTERFACE_ID_Token_BALANCES);\n        _registerInterface(_INTERFACE_ID_TOKEN_IMAGE_SVG);\n    }\n\n    //ID\n    function isType(uint _typeId) public view returns(bool) {\n        //\n        uint _nonce = getTypeBase(_typeId);\n        if(_nonce == 0 || _nonce > nonce) {\n            return false;\n        }\n        //tokenId\n        return (_typeId & NF_INDEX_MASK) == 0;\n    }\n\n    //\n    function getType(uint _tokenId) public pure returns(uint) {\n        return _tokenId & TYPE_MASK;\n    }\n\n    //tokenId128\n    function getTypeBase(uint _tokenId) public pure returns(uint) {\n        return (_tokenId & TYPE_MASK) >> 128;\n    }\n\n    //tokenId128\n    function getTokenIdBase(uint _tokenId) public pure returns(uint) {\n        return _tokenId & NF_INDEX_MASK;\n    }\n\n    //tokenId\n    function isExisted(uint _tokenId) public view returns(bool) {\n        uint _type = getType(_tokenId);\n        if (!isType(_type)) {\n            return false;\n        }\n        uint token_nonce = getTokenIdBase(_tokenId);\n        if (token_nonce == 0 || token_nonce > tokenInfos[_type].amount) {\n            return false;\n        }\n        return true;\n    }\n\n    //\n    //[][]\n    function getInfoByNonce(uint _nonce) public view returns(address[2] memory addrs,uint[5] memory nums) {\n        require(_nonce > 0 && _nonce <= nonce,\"ComToken: nonce is not existed\");\n        uint type_id = _nonce << 128;\n        TokenInfo memory info = tokenInfos[type_id];\n        addrs[0] = info.creator;\n        addrs[1] = info.beneficiary;\n        nums[0] = info.limit;\n        nums[1] = info.amount;\n        nums[2] = info.buyLimit;\n        nums[3] = info.buyAmount;\n        nums[4] = info.price;\n    }\n\n    //URI\n    function getTypeURI(uint _nonce) public view returns(string memory) {\n        require(_nonce > 0 && _nonce <= nonce,\"ComToken: nonce is not existed\");\n        uint type_id = _nonce << 128;\n        return tokenInfos[type_id].baseURI;\n    }\n\n    //uriopensea\n    function tokenURI(uint _tokenId) external view returns(string memory) {\n        require(isExisted(_tokenId),\"ComToken: tokenId is not existed\");\n        uint _type = getType(_tokenId);\n        string memory base_uri = tokenInfos[_type].baseURI;\n        return Strings.strConcat(\n            base_uri,\n            Strings.uint2str(_tokenId)\n        );\n    }\n\n    //\n    function getTokenImageSvg(uint _tokenId) external view returns(string memory) {\n        uint _type = getType(_tokenId);\n        return tokenInfos[_type].icon;\n    }\n\n    /////////////////////////////////----////////////////////////\n    //\n    function getUserCreated(address _creator) public view returns(uint) {\n        return nftTypes[_creator].length;\n    }\n    //ID\n    function getUserAllCreated(address _creator) public view returns(uint[] memory) {\n        return nftTypes[_creator];\n    }\n\n    //\n    function createToken(uint _limit,uint _buyLimt, uint _price,address payable _beneficiary, string calldata _baseURI, string calldata _icon)\n    external\n    onlyOwner\n    returns(uint _typeId) {\n        require(_buyLimt < MAX_LIMIT && _limit < MAX_LIMIT, \"ComToken: out of max_limit\");\n        //0\n        uint limit = _limit;\n        if (limit == 0) {\n            limit = MAX_LIMIT - 1;\n        }\n        require(_buyLimt <= limit, \"ComToken: buyLimit error\");\n        require(nonce + 1 <= MAX_LIMIT,\"ComToken: the amount of type is maxinum\");\n        _typeId = (++nonce) << 128;\n        TokenInfo memory info = TokenInfo(\n            _msgSender(), //\n            0,  //\n            0,  //\n            limit, //\n            _buyLimt,  //\n            _price, //\n            _beneficiary,\n            _baseURI,\n            _icon\n        );\n        tokenInfos[_typeId] = info;\n        nftTypes[_msgSender()].push(_typeId);\n        emit CreateToken(_msgSender(),_typeId);\n    }\n\n    //\n    function buyToken(uint typeId, address recipient) external payable {\n        require(isType(typeId), \"ComToken: not a type\");\n        TokenInfo storage info = tokenInfos[typeId];\n        require(msg.value >= info.price, \"ComToken: insufficient ethers or zero price\");\n        //1\n        info.amount ++;\n        info.buyAmount ++;\n        //\n        require(info.buyAmount <= info.buyLimit && info.amount <= info.limit, \"ComToken: out of the limit\");\n        uint id = typeId | info.amount;\n        _mint(recipient, id);\n        info.beneficiary.transfer(msg.value);\n        emit BuyToken(_msgSender(),recipient,id);\n    }\n\n    //\n    function mintToken(uint typeId,address[] calldata to) external onlyCreator(typeId) {\n        TokenInfo storage info = tokenInfos[typeId];\n        uint len = to.length;\n        require(info.amount.add(len) <= info.limit,\"ComToken: out of the limit\");\n        for (uint i = 0;i < len;i++) {\n            uint id = typeId | (info.amount + i + 1);\n            _mint(to[i], id);\n        }\n        info.amount = info.amount.add(len);\n        emit MintToken(_msgSender(),typeId);\n    }\n\n    //\n    function changePrice(uint typeId,uint newPrice) external onlyCreator(typeId) {\n        TokenInfo storage info = tokenInfos[typeId];\n        info.price = newPrice;\n        emit ChangePrice(info.creator,typeId,newPrice);\n    }\n\n    function changeBaseURI(uint typeId,string calldata _url) external onlyCreator(typeId) {\n        TokenInfo storage info = tokenInfos[typeId];\n        info.baseURI = _url;\n        emit ChangeBaseURI(info.creator,typeId,_url);\n    }\n\n    //alpha\n    function getBalances(address owner) public view returns(uint[] memory) {\n        return _tokensOfOwner(owner);\n    }\n\n    /**\n     * Override isApprovedForAll to whitelist user's OpenSea proxy accounts to enable gas-less listings.\n     */\n    function isApprovedForAll(\n        address owner,\n        address operator\n    )\n    public\n    view\n    returns(bool) {\n        // Whitelist OpenSea proxy contract for easy trading.\n        ProxyRegistry proxyRegistry = ProxyRegistry(proxyRegistryAddress);\n        if (address(proxyRegistry.proxies(owner)) == operator) {\n            return true;\n        }\n\n        return super.isApprovedForAll(owner, operator);\n    }\n\n}\n",
  "sourcePath": "/Users/likai/work/htoken/contracts/ComToken.sol",
  "compiler": {
    "name": "solc",
    "version": "0.5.16+commit.9c3226ce.Emscripten.clang"
  },
  "schemaVersion": "3.0.20",
  "updatedAt": "2020-04-05T03:36:33.952Z",
  "devdoc": {
    "methods": {
      "approve(address,uint256)": {
        "details": "Approves another address to transfer the given token ID The zero address indicates there is no approved address. There can only be one approved address per token at a given time. Can only be called by the token owner or an approved operator.",
        "params": {
          "to": "address to be approved for the given token ID",
          "tokenId": "uint256 ID of the token to be approved"
        }
      },
      "balanceOf(address)": {
        "details": "Gets the balance of the specified address.",
        "params": {
          "owner": "address to query the balance of"
        },
        "return": "uint256 representing the amount owned by the passed address"
      },
      "baseURI()": {
        "details": "Returns the base URI set via {_setBaseURI}. This will be automatically added as a preffix in {tokenURI} to each token's URI, when they are non-empty.    * _Available since v2.5.0._"
      },
      "getApproved(uint256)": {
        "details": "Gets the approved address for a token ID, or zero if no address set Reverts if the token ID does not exist.",
        "params": {
          "tokenId": "uint256 ID of the token to query the approval of"
        },
        "return": "address currently approved for the given token ID"
      },
      "isOwner()": {
        "details": "Returns true if the caller is the current owner."
      },
      "name()": {
        "details": "Gets the token name.",
        "return": "string representing the token name"
      },
      "owner()": {
        "details": "Returns the address of the current owner."
      },
      "ownerOf(uint256)": {
        "details": "Gets the owner of the specified token ID.",
        "params": {
          "tokenId": "uint256 ID of the token to query the owner of"
        },
        "return": "address currently marked as the owner of the given token ID"
      },
      "renounceOwnership()": {
        "details": "Leaves the contract without owner. It will not be possible to call `onlyOwner` functions anymore. Can only be called by the current owner.     * NOTE: Renouncing ownership will leave the contract without an owner, thereby removing any functionality that is only available to the owner."
      },
      "safeTransferFrom(address,address,uint256)": {
        "details": "Safely transfers the ownership of a given token ID to another address If the target address is a contract, it must implement {IERC721Receiver-onERC721Received}, which is called upon a safe transfer, and return the magic value `bytes4(keccak256(\"onERC721Received(address,address,uint256,bytes)\"))`; otherwise, the transfer is reverted. Requires the msg.sender to be the owner, approved, or operator",
        "params": {
          "from": "current owner of the token",
          "to": "address to receive the ownership of the given token ID",
          "tokenId": "uint256 ID of the token to be transferred"
        }
      },
      "safeTransferFrom(address,address,uint256,bytes)": {
        "details": "Safely transfers the ownership of a given token ID to another address If the target address is a contract, it must implement {IERC721Receiver-onERC721Received}, which is called upon a safe transfer, and return the magic value `bytes4(keccak256(\"onERC721Received(address,address,uint256,bytes)\"))`; otherwise, the transfer is reverted. Requires the _msgSender() to be the owner, approved, or operator",
        "params": {
          "_data": "bytes data to send along with a safe transfer check",
          "from": "current owner of the token",
          "to": "address to receive the ownership of the given token ID",
          "tokenId": "uint256 ID of the token to be transferred"
        }
      },
      "setApprovalForAll(address,bool)": {
        "details": "Sets or unsets the approval of a given operator An operator is allowed to transfer all tokens of the sender on their behalf.",
        "params": {
          "approved": "representing the status of the approval to be set",
          "to": "operator address to set the approval"
        }
      },
      "supportsInterface(bytes4)": {
        "details": "See {IERC165-supportsInterface}.     * Time complexity O(1), guaranteed to always use less than 30 000 gas."
      },
      "symbol()": {
        "details": "Gets the token symbol.",
        "return": "string representing the token symbol"
      },
      "tokenByIndex(uint256)": {
        "details": "Gets the token ID at a given index of all the tokens in this contract Reverts if the index is greater or equal to the total number of tokens.",
        "params": {
          "index": "uint256 representing the index to be accessed of the tokens list"
        },
        "return": "uint256 token ID at the given index of the tokens list"
      },
      "tokenOfOwnerByIndex(address,uint256)": {
        "details": "Gets the token ID at a given index of the tokens list of the requested owner.",
        "params": {
          "index": "uint256 representing the index to be accessed of the requested tokens list",
          "owner": "address owning the tokens list to be accessed"
        },
        "return": "uint256 token ID at the given index of the tokens list owned by the requested address"
      },
      "totalSupply()": {
        "details": "Gets the total amount of tokens stored by the contract.",
        "return": "uint256 representing the total amount of tokens"
      },
      "transferFrom(address,address,uint256)": {
        "details": "Transfers the ownership of a given token ID to another address. Usage of this method is discouraged, use {safeTransferFrom} whenever possible. Requires the msg.sender to be the owner, approved, or operator.",
        "params": {
          "from": "current owner of the token",
          "to": "address to receive the ownership of the given token ID",
          "tokenId": "uint256 ID of the token to be transferred"
        }
      },
      "transferOwnership(address)": {
        "details": "Transfers ownership of the contract to a new account (`newOwner`). Can only be called by the current owner."
      }
    }
  },
  "userdoc": {
    "methods": {
      "getUserCreated(address)": {
        "notice": "//////////////////////////////----////////////////////////"
      },
      "isApprovedForAll(address,address)": {
        "notice": "Override isApprovedForAll to whitelist user's OpenSea proxy accounts to enable gas-less listings."
      }
    }
  }
}