{
  "contractName": "ComToken",
  "abi": [
    {
      "inputs": [
        {
          "internalType": "string",
          "name": "name",
          "type": "string"
        },
        {
          "internalType": "string",
          "name": "symbol",
          "type": "string"
        },
        {
          "internalType": "address",
          "name": "_proxyRegistryAddress",
          "type": "address"
        }
      ],
      "payable": false,
      "stateMutability": "nonpayable",
      "type": "constructor"
    },
    {
      "anonymous": false,
      "inputs": [
        {
          "indexed": true,
          "internalType": "address",
          "name": "owner",
          "type": "address"
        },
        {
          "indexed": true,
          "internalType": "address",
          "name": "approved",
          "type": "address"
        },
        {
          "indexed": true,
          "internalType": "uint256",
          "name": "tokenId",
          "type": "uint256"
        }
      ],
      "name": "Approval",
      "type": "event"
    },
    {
      "anonymous": false,
      "inputs": [
        {
          "indexed": true,
          "internalType": "address",
          "name": "owner",
          "type": "address"
        },
        {
          "indexed": true,
          "internalType": "address",
          "name": "operator",
          "type": "address"
        },
        {
          "indexed": false,
          "internalType": "bool",
          "name": "approved",
          "type": "bool"
        }
      ],
      "name": "ApprovalForAll",
      "type": "event"
    },
    {
      "anonymous": false,
      "inputs": [
        {
          "indexed": true,
          "internalType": "address",
          "name": "_buyer",
          "type": "address"
        },
        {
          "indexed": true,
          "internalType": "address",
          "name": "_recipient",
          "type": "address"
        },
        {
          "indexed": false,
          "internalType": "uint256",
          "name": "_tokenId",
          "type": "uint256"
        }
      ],
      "name": "BuyToken",
      "type": "event"
    },
    {
      "anonymous": false,
      "inputs": [
        {
          "indexed": true,
          "internalType": "address",
          "name": "operator",
          "type": "address"
        },
        {
          "indexed": true,
          "internalType": "uint256",
          "name": "typeId",
          "type": "uint256"
        },
        {
          "indexed": false,
          "internalType": "string",
          "name": "newURI",
          "type": "string"
        }
      ],
      "name": "ChangeBaseURI",
      "type": "event"
    },
    {
      "anonymous": false,
      "inputs": [
        {
          "indexed": true,
          "internalType": "address",
          "name": "operator",
          "type": "address"
        },
        {
          "indexed": true,
          "internalType": "uint256",
          "name": "typeId",
          "type": "uint256"
        }
      ],
      "name": "ChangeIcon",
      "type": "event"
    },
    {
      "anonymous": false,
      "inputs": [
        {
          "indexed": true,
          "internalType": "address",
          "name": "operator",
          "type": "address"
        },
        {
          "indexed": true,
          "internalType": "uint256",
          "name": "typeId",
          "type": "uint256"
        },
        {
          "indexed": false,
          "internalType": "uint256",
          "name": "newPrice",
          "type": "uint256"
        }
      ],
      "name": "ChangePrice",
      "type": "event"
    },
    {
      "anonymous": false,
      "inputs": [
        {
          "indexed": true,
          "internalType": "address",
          "name": "creator",
          "type": "address"
        },
        {
          "indexed": false,
          "internalType": "uint256",
          "name": "typeId",
          "type": "uint256"
        }
      ],
      "name": "CreateToken",
      "type": "event"
    },
    {
      "anonymous": false,
      "inputs": [
        {
          "indexed": true,
          "internalType": "address",
          "name": "_operator",
          "type": "address"
        },
        {
          "indexed": true,
          "internalType": "uint256",
          "name": "typeId",
          "type": "uint256"
        }
      ],
      "name": "MintToken",
      "type": "event"
    },
    {
      "anonymous": false,
      "inputs": [
        {
          "indexed": true,
          "internalType": "address",
          "name": "previousOwner",
          "type": "address"
        },
        {
          "indexed": true,
          "internalType": "address",
          "name": "newOwner",
          "type": "address"
        }
      ],
      "name": "OwnershipTransferred",
      "type": "event"
    },
    {
      "anonymous": false,
      "inputs": [
        {
          "indexed": true,
          "internalType": "address",
          "name": "from",
          "type": "address"
        },
        {
          "indexed": true,
          "internalType": "address",
          "name": "to",
          "type": "address"
        },
        {
          "indexed": true,
          "internalType": "uint256",
          "name": "tokenId",
          "type": "uint256"
        }
      ],
      "name": "Transfer",
      "type": "event"
    },
    {
      "constant": false,
      "inputs": [
        {
          "internalType": "address",
          "name": "to",
          "type": "address"
        },
        {
          "internalType": "uint256",
          "name": "tokenId",
          "type": "uint256"
        }
      ],
      "name": "approve",
      "outputs": [],
      "payable": false,
      "stateMutability": "nonpayable",
      "type": "function"
    },
    {
      "constant": true,
      "inputs": [
        {
          "internalType": "address",
          "name": "owner",
          "type": "address"
        }
      ],
      "name": "balanceOf",
      "outputs": [
        {
          "internalType": "uint256",
          "name": "",
          "type": "uint256"
        }
      ],
      "payable": false,
      "stateMutability": "view",
      "type": "function"
    },
    {
      "constant": true,
      "inputs": [],
      "name": "baseURI",
      "outputs": [
        {
          "internalType": "string",
          "name": "",
          "type": "string"
        }
      ],
      "payable": false,
      "stateMutability": "view",
      "type": "function"
    },
    {
      "constant": true,
      "inputs": [
        {
          "internalType": "uint256",
          "name": "tokenId",
          "type": "uint256"
        }
      ],
      "name": "getApproved",
      "outputs": [
        {
          "internalType": "address",
          "name": "",
          "type": "address"
        }
      ],
      "payable": false,
      "stateMutability": "view",
      "type": "function"
    },
    {
      "constant": true,
      "inputs": [],
      "name": "isOwner",
      "outputs": [
        {
          "internalType": "bool",
          "name": "",
          "type": "bool"
        }
      ],
      "payable": false,
      "stateMutability": "view",
      "type": "function"
    },
    {
      "constant": true,
      "inputs": [],
      "name": "name",
      "outputs": [
        {
          "internalType": "string",
          "name": "",
          "type": "string"
        }
      ],
      "payable": false,
      "stateMutability": "view",
      "type": "function"
    },
    {
      "constant": true,
      "inputs": [
        {
          "internalType": "address",
          "name": "",
          "type": "address"
        },
        {
          "internalType": "uint256",
          "name": "",
          "type": "uint256"
        }
      ],
      "name": "nftTypes",
      "outputs": [
        {
          "internalType": "uint256",
          "name": "",
          "type": "uint256"
        }
      ],
      "payable": false,
      "stateMutability": "view",
      "type": "function"
    },
    {
      "constant": true,
      "inputs": [],
      "name": "nonce",
      "outputs": [
        {
          "internalType": "uint256",
          "name": "",
          "type": "uint256"
        }
      ],
      "payable": false,
      "stateMutability": "view",
      "type": "function"
    },
    {
      "constant": true,
      "inputs": [],
      "name": "owner",
      "outputs": [
        {
          "internalType": "address",
          "name": "",
          "type": "address"
        }
      ],
      "payable": false,
      "stateMutability": "view",
      "type": "function"
    },
    {
      "constant": true,
      "inputs": [
        {
          "internalType": "uint256",
          "name": "tokenId",
          "type": "uint256"
        }
      ],
      "name": "ownerOf",
      "outputs": [
        {
          "internalType": "address",
          "name": "",
          "type": "address"
        }
      ],
      "payable": false,
      "stateMutability": "view",
      "type": "function"
    },
    {
      "constant": false,
      "inputs": [],
      "name": "renounceOwnership",
      "outputs": [],
      "payable": false,
      "stateMutability": "nonpayable",
      "type": "function"
    },
    {
      "constant": false,
      "inputs": [
        {
          "internalType": "address",
          "name": "from",
          "type": "address"
        },
        {
          "internalType": "address",
          "name": "to",
          "type": "address"
        },
        {
          "internalType": "uint256",
          "name": "tokenId",
          "type": "uint256"
        }
      ],
      "name": "safeTransferFrom",
      "outputs": [],
      "payable": false,
      "stateMutability": "nonpayable",
      "type": "function"
    },
    {
      "constant": false,
      "inputs": [
        {
          "internalType": "address",
          "name": "from",
          "type": "address"
        },
        {
          "internalType": "address",
          "name": "to",
          "type": "address"
        },
        {
          "internalType": "uint256",
          "name": "tokenId",
          "type": "uint256"
        },
        {
          "internalType": "bytes",
          "name": "_data",
          "type": "bytes"
        }
      ],
      "name": "safeTransferFrom",
      "outputs": [],
      "payable": false,
      "stateMutability": "nonpayable",
      "type": "function"
    },
    {
      "constant": false,
      "inputs": [
        {
          "internalType": "address",
          "name": "to",
          "type": "address"
        },
        {
          "internalType": "bool",
          "name": "approved",
          "type": "bool"
        }
      ],
      "name": "setApprovalForAll",
      "outputs": [],
      "payable": false,
      "stateMutability": "nonpayable",
      "type": "function"
    },
    {
      "constant": true,
      "inputs": [
        {
          "internalType": "bytes4",
          "name": "interfaceId",
          "type": "bytes4"
        }
      ],
      "name": "supportsInterface",
      "outputs": [
        {
          "internalType": "bool",
          "name": "",
          "type": "bool"
        }
      ],
      "payable": false,
      "stateMutability": "view",
      "type": "function"
    },
    {
      "constant": true,
      "inputs": [],
      "name": "symbol",
      "outputs": [
        {
          "internalType": "string",
          "name": "",
          "type": "string"
        }
      ],
      "payable": false,
      "stateMutability": "view",
      "type": "function"
    },
    {
      "constant": true,
      "inputs": [
        {
          "internalType": "uint256",
          "name": "index",
          "type": "uint256"
        }
      ],
      "name": "tokenByIndex",
      "outputs": [
        {
          "internalType": "uint256",
          "name": "",
          "type": "uint256"
        }
      ],
      "payable": false,
      "stateMutability": "view",
      "type": "function"
    },
    {
      "constant": true,
      "inputs": [
        {
          "internalType": "uint256",
          "name": "",
          "type": "uint256"
        }
      ],
      "name": "tokenInfos",
      "outputs": [
        {
          "internalType": "address",
          "name": "creator",
          "type": "address"
        },
        {
          "internalType": "uint256",
          "name": "amount",
          "type": "uint256"
        },
        {
          "internalType": "uint256",
          "name": "buyAmount",
          "type": "uint256"
        },
        {
          "internalType": "uint256",
          "name": "limit",
          "type": "uint256"
        },
        {
          "internalType": "uint256",
          "name": "buyLimit",
          "type": "uint256"
        },
        {
          "internalType": "uint256",
          "name": "price",
          "type": "uint256"
        },
        {
          "internalType": "address payable",
          "name": "beneficiary",
          "type": "address"
        },
        {
          "internalType": "string",
          "name": "baseURI",
          "type": "string"
        },
        {
          "internalType": "string",
          "name": "icon",
          "type": "string"
        }
      ],
      "payable": false,
      "stateMutability": "view",
      "type": "function"
    },
    {
      "constant": true,
      "inputs": [
        {
          "internalType": "address",
          "name": "owner",
          "type": "address"
        },
        {
          "internalType": "uint256",
          "name": "index",
          "type": "uint256"
        }
      ],
      "name": "tokenOfOwnerByIndex",
      "outputs": [
        {
          "internalType": "uint256",
          "name": "",
          "type": "uint256"
        }
      ],
      "payable": false,
      "stateMutability": "view",
      "type": "function"
    },
    {
      "constant": true,
      "inputs": [],
      "name": "totalSupply",
      "outputs": [
        {
          "internalType": "uint256",
          "name": "",
          "type": "uint256"
        }
      ],
      "payable": false,
      "stateMutability": "view",
      "type": "function"
    },
    {
      "constant": false,
      "inputs": [
        {
          "internalType": "address",
          "name": "from",
          "type": "address"
        },
        {
          "internalType": "address",
          "name": "to",
          "type": "address"
        },
        {
          "internalType": "uint256",
          "name": "tokenId",
          "type": "uint256"
        }
      ],
      "name": "transferFrom",
      "outputs": [],
      "payable": false,
      "stateMutability": "nonpayable",
      "type": "function"
    },
    {
      "constant": false,
      "inputs": [
        {
          "internalType": "address",
          "name": "newOwner",
          "type": "address"
        }
      ],
      "name": "transferOwnership",
      "outputs": [],
      "payable": false,
      "stateMutability": "nonpayable",
      "type": "function"
    },
    {
      "constant": true,
      "inputs": [
        {
          "internalType": "uint256",
          "name": "_typeId",
          "type": "uint256"
        }
      ],
      "name": "isType",
      "outputs": [
        {
          "internalType": "bool",
          "name": "",
          "type": "bool"
        }
      ],
      "payable": false,
      "stateMutability": "view",
      "type": "function"
    },
    {
      "constant": true,
      "inputs": [
        {
          "internalType": "uint256",
          "name": "_tokenId",
          "type": "uint256"
        }
      ],
      "name": "getType",
      "outputs": [
        {
          "internalType": "uint256",
          "name": "",
          "type": "uint256"
        }
      ],
      "payable": false,
      "stateMutability": "pure",
      "type": "function"
    },
    {
      "constant": true,
      "inputs": [
        {
          "internalType": "uint256",
          "name": "_tokenId",
          "type": "uint256"
        }
      ],
      "name": "getTypeBase",
      "outputs": [
        {
          "internalType": "uint256",
          "name": "",
          "type": "uint256"
        }
      ],
      "payable": false,
      "stateMutability": "pure",
      "type": "function"
    },
    {
      "constant": true,
      "inputs": [
        {
          "internalType": "uint256",
          "name": "_tokenId",
          "type": "uint256"
        }
      ],
      "name": "getTokenIdBase",
      "outputs": [
        {
          "internalType": "uint256",
          "name": "",
          "type": "uint256"
        }
      ],
      "payable": false,
      "stateMutability": "pure",
      "type": "function"
    },
    {
      "constant": true,
      "inputs": [
        {
          "internalType": "uint256",
          "name": "_tokenId",
          "type": "uint256"
        }
      ],
      "name": "isExisted",
      "outputs": [
        {
          "internalType": "bool",
          "name": "",
          "type": "bool"
        }
      ],
      "payable": false,
      "stateMutability": "view",
      "type": "function"
    },
    {
      "constant": true,
      "inputs": [
        {
          "internalType": "uint256",
          "name": "_nonce",
          "type": "uint256"
        }
      ],
      "name": "getInfoByNonce",
      "outputs": [
        {
          "internalType": "address[2]",
          "name": "addrs",
          "type": "address[2]"
        },
        {
          "internalType": "uint256[5]",
          "name": "nums",
          "type": "uint256[5]"
        }
      ],
      "payable": false,
      "stateMutability": "view",
      "type": "function"
    },
    {
      "constant": true,
      "inputs": [
        {
          "internalType": "uint256",
          "name": "_nonce",
          "type": "uint256"
        }
      ],
      "name": "getTypeURI",
      "outputs": [
        {
          "internalType": "string",
          "name": "",
          "type": "string"
        }
      ],
      "payable": false,
      "stateMutability": "view",
      "type": "function"
    },
    {
      "constant": true,
      "inputs": [
        {
          "internalType": "uint256",
          "name": "_nonce",
          "type": "uint256"
        }
      ],
      "name": "getTypeSVG",
      "outputs": [
        {
          "internalType": "string",
          "name": "",
          "type": "string"
        }
      ],
      "payable": false,
      "stateMutability": "view",
      "type": "function"
    },
    {
      "constant": true,
      "inputs": [
        {
          "internalType": "uint256",
          "name": "_tokenId",
          "type": "uint256"
        }
      ],
      "name": "tokenURI",
      "outputs": [
        {
          "internalType": "string",
          "name": "",
          "type": "string"
        }
      ],
      "payable": false,
      "stateMutability": "view",
      "type": "function"
    },
    {
      "constant": true,
      "inputs": [
        {
          "internalType": "uint256",
          "name": "_tokenId",
          "type": "uint256"
        }
      ],
      "name": "getTokenImageSvg",
      "outputs": [
        {
          "internalType": "string",
          "name": "",
          "type": "string"
        }
      ],
      "payable": false,
      "stateMutability": "view",
      "type": "function"
    },
    {
      "constant": true,
      "inputs": [
        {
          "internalType": "address",
          "name": "_creator",
          "type": "address"
        }
      ],
      "name": "getUserCreated",
      "outputs": [
        {
          "internalType": "uint256",
          "name": "",
          "type": "uint256"
        }
      ],
      "payable": false,
      "stateMutability": "view",
      "type": "function"
    },
    {
      "constant": true,
      "inputs": [
        {
          "internalType": "address",
          "name": "_creator",
          "type": "address"
        }
      ],
      "name": "getUserAllCreated",
      "outputs": [
        {
          "internalType": "uint256[]",
          "name": "",
          "type": "uint256[]"
        }
      ],
      "payable": false,
      "stateMutability": "view",
      "type": "function"
    },
    {
      "constant": false,
      "inputs": [
        {
          "internalType": "uint256",
          "name": "_limit",
          "type": "uint256"
        },
        {
          "internalType": "uint256",
          "name": "_buyLimt",
          "type": "uint256"
        },
        {
          "internalType": "uint256",
          "name": "_price",
          "type": "uint256"
        },
        {
          "internalType": "address payable",
          "name": "_beneficiary",
          "type": "address"
        },
        {
          "internalType": "string",
          "name": "_baseURI",
          "type": "string"
        },
        {
          "internalType": "string",
          "name": "_icon",
          "type": "string"
        }
      ],
      "name": "createToken",
      "outputs": [
        {
          "internalType": "uint256",
          "name": "_typeId",
          "type": "uint256"
        }
      ],
      "payable": false,
      "stateMutability": "nonpayable",
      "type": "function"
    },
    {
      "constant": false,
      "inputs": [
        {
          "internalType": "uint256",
          "name": "typeId",
          "type": "uint256"
        },
        {
          "internalType": "address",
          "name": "recipient",
          "type": "address"
        }
      ],
      "name": "buyToken",
      "outputs": [],
      "payable": true,
      "stateMutability": "payable",
      "type": "function"
    },
    {
      "constant": false,
      "inputs": [
        {
          "internalType": "uint256",
          "name": "typeId",
          "type": "uint256"
        },
        {
          "internalType": "address[]",
          "name": "to",
          "type": "address[]"
        }
      ],
      "name": "mintToken",
      "outputs": [],
      "payable": false,
      "stateMutability": "nonpayable",
      "type": "function"
    },
    {
      "constant": false,
      "inputs": [
        {
          "internalType": "uint256",
          "name": "typeId",
          "type": "uint256"
        },
        {
          "internalType": "uint256",
          "name": "newPrice",
          "type": "uint256"
        }
      ],
      "name": "changePrice",
      "outputs": [],
      "payable": false,
      "stateMutability": "nonpayable",
      "type": "function"
    },
    {
      "constant": false,
      "inputs": [
        {
          "internalType": "uint256",
          "name": "typeId",
          "type": "uint256"
        },
        {
          "internalType": "string",
          "name": "_url",
          "type": "string"
        }
      ],
      "name": "changeBaseURI",
      "outputs": [],
      "payable": false,
      "stateMutability": "nonpayable",
      "type": "function"
    },
    {
      "constant": false,
      "inputs": [
        {
          "internalType": "uint256",
          "name": "typeId",
          "type": "uint256"
        },
        {
          "internalType": "string",
          "name": "_svg",
          "type": "string"
        }
      ],
      "name": "changeIcon",
      "outputs": [],
      "payable": false,
      "stateMutability": "nonpayable",
      "type": "function"
    },
    {
      "constant": true,
      "inputs": [
        {
          "internalType": "address",
          "name": "owner",
          "type": "address"
        }
      ],
      "name": "getBalances",
      "outputs": [
        {
          "internalType": "uint256[]",
          "name": "",
          "type": "uint256[]"
        }
      ],
      "payable": false,
      "stateMutability": "view",
      "type": "function"
    },
    {
      "constant": true,
      "inputs": [
        {
          "internalType": "address",
          "name": "owner",
          "type": "address"
        },
        {
          "internalType": "address",
          "name": "operator",
          "type": "address"
        }
      ],
      "name": "isApprovedForAll",
      "outputs": [
        {
          "internalType": "bool",
          "name": "",
          "type": "bool"
        }
      ],
      "payable": false,
      "stateMutability": "view",
      "type": "function"
    }
  ],
  "bytecode": "0x60806040523480156200001157600080fd5b50604051620062e0380380620062e0833981810160405260608110156200003757600080fd5b81019080805160405193929190846401000000008211156200005857600080fd5b838201915060208201858111156200006f57600080fd5b82518660018202830111640100000000821117156200008d57600080fd5b8083526020830192505050908051906020019080838360005b83811015620000c3578082015181840152602081019050620000a6565b50505050905090810190601f168015620000f15780820380516001836020036101000a031916815260200191505b50604052602001805160405193929190846401000000008211156200011557600080fd5b838201915060208201858111156200012c57600080fd5b82518660018202830111640100000000821117156200014a57600080fd5b8083526020830192505050908051906020019080838360005b838110156200018057808201518184015260208101905062000163565b50505050905090810190601f168015620001ae5780820380516001836020036101000a031916815260200191505b506040526020018051906020019092919050505082828181620001de6301ffc9a760e01b6200042b60201b60201c565b620001f66380ac58cd60e01b6200042b60201b60201c565b6200020e63780e9d6360e01b6200042b60201b60201c565b8160099080519060200190620002269291906200053c565b5080600a90805190602001906200023f9291906200053c565b5062000258635b5e139f60e01b6200042b60201b60201c565b5050505060006200026e6200053460201b60201c565b905080600d60006101000a81548173ffffffffffffffffffffffffffffffffffffffff021916908373ffffffffffffffffffffffffffffffffffffffff1602179055508073ffffffffffffffffffffffffffffffffffffffff16600073ffffffffffffffffffffffffffffffffffffffff167f8be0079c531659141344cd1fd0a4f28419497f9722a3daafe3b4186f6b6457e060405160405180910390a350600073ffffffffffffffffffffffffffffffffffffffff168173ffffffffffffffffffffffffffffffffffffffff161415620003b1576040517f08c379a00000000000000000000000000000000000000000000000000000000081526004018080602001828103825260168152602001807f436f6d546f6b656e3a205a65726f20416464726573730000000000000000000081525060200191505060405180910390fd5b80600e60006101000a81548173ffffffffffffffffffffffffffffffffffffffff021916908373ffffffffffffffffffffffffffffffffffffffff1602179055506200040a63c84aae1760e01b6200042b60201b60201c565b620004226387d2f48c60e01b6200042b60201b60201c565b505050620005eb565b63ffffffff60e01b817bffffffffffffffffffffffffffffffffffffffffffffffffffffffff19161415620004c8576040517f08c379a000000000000000000000000000000000000000000000000000000000815260040180806020018281038252601c8152602001807f4552433136353a20696e76616c696420696e746572666163652069640000000081525060200191505060405180910390fd5b6001600080837bffffffffffffffffffffffffffffffffffffffffffffffffffffffff19167bffffffffffffffffffffffffffffffffffffffffffffffffffffffff1916815260200190815260200160002060006101000a81548160ff02191690831515021790555050565b600033905090565b828054600181600116156101000203166002900490600052602060002090601f016020900481019282601f106200057f57805160ff1916838001178555620005b0565b82800160010185558215620005b0579182015b82811115620005af57825182559160200191906001019062000592565b5b509050620005bf9190620005c3565b5090565b620005e891905b80821115620005e4576000816000905550600101620005ca565b5090565b90565b615ce580620005fb6000396000f3fe6080604052600436106102515760003560e01c80638c818f9411610139578063affed0e0116100b6578063c84aae171161007a578063c84aae1714611449578063c87b56dd146114ef578063c92926fc146115a3578063e1ba8bba14611633578063e985e9c514611686578063f2fde38b1461170f57610251565b8063affed0e0146111ae578063b3de019c146111d9578063b88d4fde1461121e578063bab92ba714611330578063c3e38a2f146113e457610251565b80639134709e116100fd5780639134709e14610f7457806395d89b4114610fc25780639cf1e72714611052578063a22cb465146110c1578063a5ce883a1461111e57610251565b80638c818f9414610c8b5780638da5cb5b14610d1b5780638f32d59b14610d725780638f4af57a14610da15780638fd87ad014610ece57610251565b80634036ab78116101d25780636c0360eb116101965780636c0360eb146108d357806370a0823114610963578063715018a6146109c85780637656c5a9146109df5780637c13774b14610a2e57806387d2f48c14610bd757610251565b80634036ab78146106f057806342842e0e1461073f578063476f1667146107ba5780634f6ccce7146108095780636352211e1461085857610251565b806309e1416d1161021957806309e1416d146104d457806318160ddd1461058857806323b872dd146105b35780632582a6161461062e5780632f745c591461068157610251565b806301ffc9a71461025657806303b54c52146102c857806306fdde031461036e578063081812fc146103fe578063095ea7b314610479575b600080fd5b34801561026257600080fd5b506102ae6004803603602081101561027957600080fd5b8101908080357bffffffffffffffffffffffffffffffffffffffffffffffffffffffff19169060200190929190505050611760565b604051808215151515815260200191505060405180910390f35b3480156102d457600080fd5b50610317600480360360208110156102eb57600080fd5b81019080803573ffffffffffffffffffffffffffffffffffffffff1690602001909291905050506117c7565b6040518080602001828103825283818151815260200191508051906020019060200280838360005b8381101561035a57808201518184015260208101905061033f565b505050509050019250505060405180910390f35b34801561037a57600080fd5b5061038361185e565b6040518080602001828103825283818151815260200191508051906020019080838360005b838110156103c35780820151818401526020810190506103a8565b50505050905090810190601f1680156103f05780820380516001836020036101000a031916815260200191505b509250505060405180910390f35b34801561040a57600080fd5b506104376004803603602081101561042157600080fd5b8101908080359060200190929190505050611900565b604051808273ffffffffffffffffffffffffffffffffffffffff1673ffffffffffffffffffffffffffffffffffffffff16815260200191505060405180910390f35b34801561048557600080fd5b506104d26004803603604081101561049c57600080fd5b81019080803573ffffffffffffffffffffffffffffffffffffffff1690602001909291908035906020019092919050505061199b565b005b3480156104e057600080fd5b5061050d600480360360208110156104f757600080fd5b8101908080359060200190929190505050611b82565b6040518080602001828103825283818151815260200191508051906020019080838360005b8381101561054d578082015181840152602081019050610532565b50505050905090810190601f16801561057a5780820380516001836020036101000a031916815260200191505b509250505060405180910390f35b34801561059457600080fd5b5061059d611cc8565b6040518082815260200191505060405180910390f35b3480156105bf57600080fd5b5061062c600480360360608110156105d657600080fd5b81019080803573ffffffffffffffffffffffffffffffffffffffff169060200190929190803573ffffffffffffffffffffffffffffffffffffffff16906020019092919080359060200190929190505050611cd5565b005b34801561063a57600080fd5b506106676004803603602081101561065157600080fd5b8101908080359060200190929190505050611d4b565b604051808215151515815260200191505060405180910390f35b34801561068d57600080fd5b506106da600480360360408110156106a457600080fd5b81019080803573ffffffffffffffffffffffffffffffffffffffff16906020019092919080359060200190929190505050611db9565b6040518082815260200191505060405180910390f35b3480156106fc57600080fd5b506107296004803603602081101561071357600080fd5b8101908080359060200190929190505050611e78565b6040518082815260200191505060405180910390f35b34801561074b57600080fd5b506107b86004803603606081101561076257600080fd5b81019080803573ffffffffffffffffffffffffffffffffffffffff169060200190929190803573ffffffffffffffffffffffffffffffffffffffff16906020019092919080359060200190929190505050611eba565b005b3480156107c657600080fd5b506107f3600480360360208110156107dd57600080fd5b8101908080359060200190929190505050611eda565b6040518082815260200191505060405180910390f35b34801561081557600080fd5b506108426004803603602081101561082c57600080fd5b8101908080359060200190929190505050611f1f565b6040518082815260200191505060405180910390f35b34801561086457600080fd5b506108916004803603602081101561087b57600080fd5b8101908080359060200190929190505050611f9f565b604051808273ffffffffffffffffffffffffffffffffffffffff1673ffffffffffffffffffffffffffffffffffffffff16815260200191505060405180910390f35b3480156108df57600080fd5b506108e8612067565b6040518080602001828103825283818151815260200191508051906020019080838360005b8381101561092857808201518184015260208101905061090d565b50505050905090810190601f1680156109555780820380516001836020036101000a031916815260200191505b509250505060405180910390f35b34801561096f57600080fd5b506109b26004803603602081101561098657600080fd5b81019080803573ffffffffffffffffffffffffffffffffffffffff169060200190929190505050612109565b6040518082815260200191505060405180910390f35b3480156109d457600080fd5b506109dd6121de565b005b3480156109eb57600080fd5b50610a1860048036036020811015610a0257600080fd5b8101908080359060200190929190505050612319565b6040518082815260200191505060405180910390f35b348015610a3a57600080fd5b50610a6760048036036020811015610a5157600080fd5b8101908080359060200190929190505050612357565b604051808a73ffffffffffffffffffffffffffffffffffffffff1673ffffffffffffffffffffffffffffffffffffffff1681526020018981526020018881526020018781526020018681526020018581526020018473ffffffffffffffffffffffffffffffffffffffff1673ffffffffffffffffffffffffffffffffffffffff1681526020018060200180602001838103835285818151815260200191508051906020019080838360005b83811015610b2d578082015181840152602081019050610b12565b50505050905090810190601f168015610b5a5780820380516001836020036101000a031916815260200191505b50838103825284818151815260200191508051906020019080838360005b83811015610b93578082015181840152602081019050610b78565b50505050905090810190601f168015610bc05780820380516001836020036101000a031916815260200191505b509b50505050505050505050505060405180910390f35b348015610be357600080fd5b50610c1060048036036020811015610bfa57600080fd5b8101908080359060200190929190505050612515565b6040518080602001828103825283818151815260200191508051906020019080838360005b83811015610c50578082015181840152602081019050610c35565b50505050905090810190601f168015610c7d5780820380516001836020036101000a031916815260200191505b509250505060405180910390f35b348015610c9757600080fd5b50610d1960048036036040811015610cae57600080fd5b810190808035906020019092919080359060200190640100000000811115610cd557600080fd5b820183602082011115610ce757600080fd5b80359060200191846001830284011164010000000083111715610d0957600080fd5b90919293919293905050506125db565b005b348015610d2757600080fd5b50610d30612754565b604051808273ffffffffffffffffffffffffffffffffffffffff1673ffffffffffffffffffffffffffffffffffffffff16815260200191505060405180910390f35b348015610d7e57600080fd5b50610d8761277e565b604051808215151515815260200191505060405180910390f35b348015610dad57600080fd5b50610eb8600480360360c0811015610dc457600080fd5b81019080803590602001909291908035906020019092919080359060200190929190803573ffffffffffffffffffffffffffffffffffffffff16906020019092919080359060200190640100000000811115610e1f57600080fd5b820183602082011115610e3157600080fd5b80359060200191846001830284011164010000000083111715610e5357600080fd5b909192939192939080359060200190640100000000811115610e7457600080fd5b820183602082011115610e8657600080fd5b80359060200191846001830284011164010000000083111715610ea857600080fd5b90919293919293905050506127dd565b6040518082815260200191505060405180910390f35b348015610eda57600080fd5b50610f0760048036036020811015610ef157600080fd5b8101908080359060200190929190505050612d8a565b6040518083600260200280838360005b83811015610f32578082015181840152602081019050610f17565b5050505090500182600560200280838360005b83811015610f60578082015181840152602081019050610f45565b505050509050019250505060405180910390f35b610fc060048036036040811015610f8a57600080fd5b8101908080359060200190929190803573ffffffffffffffffffffffffffffffffffffffff169060200190929190505050613192565b005b348015610fce57600080fd5b50610fd761342d565b6040518080602001828103825283818151815260200191508051906020019080838360005b83811015611017578082015181840152602081019050610ffc565b50505050905090810190601f1680156110445780820380516001836020036101000a031916815260200191505b509250505060405180910390f35b34801561105e57600080fd5b506110ab6004803603604081101561107557600080fd5b81019080803573ffffffffffffffffffffffffffffffffffffffff169060200190929190803590602001909291905050506134cf565b6040518082815260200191505060405180910390f35b3480156110cd57600080fd5b5061111c600480360360408110156110e457600080fd5b81019080803573ffffffffffffffffffffffffffffffffffffffff1690602001909291908035151590602001909291905050506134fd565b005b34801561112a57600080fd5b506111ac6004803603604081101561114157600080fd5b81019080803590602001909291908035906020019064010000000081111561116857600080fd5b82018360208201111561117a57600080fd5b8035906020019184602083028401116401000000008311171561119c57600080fd5b90919293919293905050506136b5565b005b3480156111ba57600080fd5b506111c3613946565b6040518082815260200191505060405180910390f35b3480156111e557600080fd5b5061121c600480360360408110156111fc57600080fd5b81019080803590602001909291908035906020019092919050505061394c565b005b34801561122a57600080fd5b5061132e6004803603608081101561124157600080fd5b81019080803573ffffffffffffffffffffffffffffffffffffffff169060200190929190803573ffffffffffffffffffffffffffffffffffffffff16906020019092919080359060200190929190803590602001906401000000008111156112a857600080fd5b8201836020820111156112ba57600080fd5b803590602001918460018302840111640100000000831117156112dc57600080fd5b91908080601f016020809104026020016040519081016040528093929190818152602001838380828437600081840152601f19601f820116905080830192505050505050509192919290505050613ac4565b005b34801561133c57600080fd5b506113696004803603602081101561135357600080fd5b8101908080359060200190929190505050613b3c565b6040518080602001828103825283818151815260200191508051906020019080838360005b838110156113a957808201518184015260208101905061138e565b50505050905090810190601f1680156113d65780820380516001836020036101000a031916815260200191505b509250505060405180910390f35b3480156113f057600080fd5b506114336004803603602081101561140757600080fd5b81019080803573ffffffffffffffffffffffffffffffffffffffff169060200190929190505050613c82565b6040518082815260200191505060405180910390f35b34801561145557600080fd5b506114986004803603602081101561146c57600080fd5b81019080803573ffffffffffffffffffffffffffffffffffffffff169060200190929190505050613cce565b6040518080602001828103825283818151815260200191508051906020019060200280838360005b838110156114db5780820151818401526020810190506114c0565b505050509050019250505060405180910390f35b3480156114fb57600080fd5b506115286004803603602081101561151257600080fd5b8101908080359060200190929190505050613d2f565b6040518080602001828103825283818151815260200191508051906020019080838360005b8381101561156857808201518184015260208101905061154d565b50505050905090810190601f1680156115955780820380516001836020036101000a031916815260200191505b509250505060405180910390f35b3480156115af57600080fd5b50611631600480360360408110156115c657600080fd5b8101908080359060200190929190803590602001906401000000008111156115ed57600080fd5b8201836020820111156115ff57600080fd5b8035906020019184600183028401116401000000008311171561162157600080fd5b9091929391929390505050613e87565b005b34801561163f57600080fd5b5061166c6004803603602081101561165657600080fd5b8101908080359060200190929190505050614037565b604051808215151515815260200191505060405180910390f35b34801561169257600080fd5b506116f5600480360360408110156116a957600080fd5b81019080803573ffffffffffffffffffffffffffffffffffffffff169060200190929190803573ffffffffffffffffffffffffffffffffffffffff1690602001909291905050506140a9565b604051808215151515815260200191505060405180910390f35b34801561171b57600080fd5b5061175e6004803603602081101561173257600080fd5b81019080803573ffffffffffffffffffffffffffffffffffffffff1690602001909291905050506141da565b005b6000806000837bffffffffffffffffffffffffffffffffffffffffffffffffffffffff19167bffffffffffffffffffffffffffffffffffffffffffffffffffffffff1916815260200190815260200160002060009054906101000a900460ff169050919050565b6060601160008373ffffffffffffffffffffffffffffffffffffffff1673ffffffffffffffffffffffffffffffffffffffff16815260200190815260200160002080548060200260200160405190810160405280929190818152602001828054801561185257602002820191906000526020600020905b81548152602001906001019080831161183e575b50505050509050919050565b606060098054600181600116156101000203166002900480601f0160208091040260200160405190810160405280929190818152602001828054600181600116156101000203166002900480156118f65780601f106118cb576101008083540402835291602001916118f6565b820191906000526020600020905b8154815290600101906020018083116118d957829003601f168201915b5050505050905090565b600061190b82614260565b611960576040517f08c379a000000000000000000000000000000000000000000000000000000000815260040180806020018281038252602c815260200180615bb3602c913960400191505060405180910390fd5b6002600083815260200190815260200160002060009054906101000a900473ffffffffffffffffffffffffffffffffffffffff169050919050565b60006119a682611f9f565b90508073ffffffffffffffffffffffffffffffffffffffff168373ffffffffffffffffffffffffffffffffffffffff161415611a2d576040517f08c379a0000000000000000000000000000000000000000000000000000000008152600401808060200182810382526021815260200180615c086021913960400191505060405180910390fd5b8073ffffffffffffffffffffffffffffffffffffffff16611a4c6142d2565b73ffffffffffffffffffffffffffffffffffffffff161480611a7b5750611a7a81611a756142d2565b6140a9565b5b611ad0576040517f08c379a0000000000000000000000000000000000000000000000000000000008152600401808060200182810382526038815260200180615b286038913960400191505060405180910390fd5b826002600084815260200190815260200160002060006101000a81548173ffffffffffffffffffffffffffffffffffffffff021916908373ffffffffffffffffffffffffffffffffffffffff160217905550818373ffffffffffffffffffffffffffffffffffffffff168273ffffffffffffffffffffffffffffffffffffffff167f8c5be1e5ebec7d5bd14f71427d1e84f3dd0314c0f7b2291e5b200ac8c7c3b92560405160405180910390a4505050565b6060600082118015611b965750600f548211155b611c08576040517f08c379a000000000000000000000000000000000000000000000000000000000815260040180806020018281038252601e8152602001807f436f6d546f6b656e3a206e6f6e6365206973206e6f742065786973746564000081525060200191505060405180910390fd5b6000608083901b9050601060008281526020019081526020016000206007018054600181600116156101000203166002900480601f016020809104026020016040519081016040528092919081815260200182805460018160011615610100020316600290048015611cbb5780601f10611c9057610100808354040283529160200191611cbb565b820191906000526020600020905b815481529060010190602001808311611c9e57829003601f168201915b5050505050915050919050565b6000600780549050905090565b611ce6611ce06142d2565b826142da565b611d3b576040517f08c379a0000000000000000000000000000000000000000000000000000000008152600401808060200182810382526031815260200180615c296031913960400191505060405180910390fd5b611d468383836143ce565b505050565b600080611d5783611eda565b90506000811480611d695750600f5481115b15611d78576000915050611db4565b60007fffffffffffffffffffffffffffffffffffffffffffffffffffffffffffffffff6fffffffffffffffffffffffffffffffff168416149150505b919050565b6000611dc483612109565b8210611e1b576040517f08c379a000000000000000000000000000000000000000000000000000000000815260040180806020018281038252602b815260200180615a2e602b913960400191505060405180910390fd5b600560008473ffffffffffffffffffffffffffffffffffffffff1673ffffffffffffffffffffffffffffffffffffffff1681526020019081526020016000208281548110611e6557fe5b9060005260206000200154905092915050565b600060807fffffffffffffffffffffffffffffffffffffffffffffffffffffffffffffffff6fffffffffffffffffffffffffffffffff16901b82169050919050565b611ed583838360405180602001604052806000815250613ac4565b505050565b60006080807fffffffffffffffffffffffffffffffffffffffffffffffffffffffffffffffff6fffffffffffffffffffffffffffffffff16901b8316901c9050919050565b6000611f29611cc8565b8210611f80576040517f08c379a000000000000000000000000000000000000000000000000000000000815260040180806020018281038252602c815260200180615c5a602c913960400191505060405180910390fd5b60078281548110611f8d57fe5b90600052602060002001549050919050565b6000806001600084815260200190815260200160002060009054906101000a900473ffffffffffffffffffffffffffffffffffffffff169050600073ffffffffffffffffffffffffffffffffffffffff168173ffffffffffffffffffffffffffffffffffffffff16141561205e576040517f08c379a0000000000000000000000000000000000000000000000000000000008152600401808060200182810382526029815260200180615b8a6029913960400191505060405180910390fd5b80915050919050565b6060600b8054600181600116156101000203166002900480601f0160208091040260200160405190810160405280929190818152602001828054600181600116156101000203166002900480156120ff5780601f106120d4576101008083540402835291602001916120ff565b820191906000526020600020905b8154815290600101906020018083116120e257829003601f168201915b5050505050905090565b60008073ffffffffffffffffffffffffffffffffffffffff168273ffffffffffffffffffffffffffffffffffffffff161415612190576040517f08c379a000000000000000000000000000000000000000000000000000000000815260040180806020018281038252602a815260200180615b60602a913960400191505060405180910390fd5b6121d7600360008473ffffffffffffffffffffffffffffffffffffffff1673ffffffffffffffffffffffffffffffffffffffff1681526020019081526020016000206143f2565b9050919050565b6121e661277e565b612258576040517f08c379a00000000000000000000000000000000000000000000000000000000081526004018080602001828103825260208152602001807f4f776e61626c653a2063616c6c6572206973206e6f7420746865206f776e657281525060200191505060405180910390fd5b600073ffffffffffffffffffffffffffffffffffffffff16600d60009054906101000a900473ffffffffffffffffffffffffffffffffffffffff1673ffffffffffffffffffffffffffffffffffffffff167f8be0079c531659141344cd1fd0a4f28419497f9722a3daafe3b4186f6b6457e060405160405180910390a36000600d60006101000a81548173ffffffffffffffffffffffffffffffffffffffff021916908373ffffffffffffffffffffffffffffffffffffffff160217905550565b60007fffffffffffffffffffffffffffffffffffffffffffffffffffffffffffffffff6fffffffffffffffffffffffffffffffff1682169050919050565b60106020528060005260406000206000915090508060000160009054906101000a900473ffffffffffffffffffffffffffffffffffffffff16908060010154908060020154908060030154908060040154908060050154908060060160009054906101000a900473ffffffffffffffffffffffffffffffffffffffff1690806007018054600181600116156101000203166002900480601f01602080910402602001604051908101604052809291908181526020018280546001816001161561010002031660029004801561246d5780601f106124425761010080835404028352916020019161246d565b820191906000526020600020905b81548152906001019060200180831161245057829003601f168201915b505050505090806008018054600181600116156101000203166002900480601f01602080910402602001604051908101604052809291908181526020018280546001816001161561010002031660029004801561250b5780601f106124e05761010080835404028352916020019161250b565b820191906000526020600020905b8154815290600101906020018083116124ee57829003601f168201915b5050505050905089565b6060600061252283611e78565b9050601060008281526020019081526020016000206008018054600181600116156101000203166002900480601f0160208091040260200160405190810160405280929190818152602001828054600181600116156101000203166002900480156125ce5780601f106125a3576101008083540402835291602001916125ce565b820191906000526020600020905b8154815290600101906020018083116125b157829003601f168201915b5050505050915050919050565b826125e46142d2565b73ffffffffffffffffffffffffffffffffffffffff166010600083815260200190815260200160002060000160009054906101000a900473ffffffffffffffffffffffffffffffffffffffff1673ffffffffffffffffffffffffffffffffffffffff16146126ba576040517f08c379a000000000000000000000000000000000000000000000000000000000815260040180806020018281038252601b8152602001807f436f6d546f6b656e3a207065726d697373696f6e2064656e696564000000000081525060200191505060405180910390fd5b600060106000868152602001908152602001600020905083838260080191906126e4929190615820565b50848160000160009054906101000a900473ffffffffffffffffffffffffffffffffffffffff1673ffffffffffffffffffffffffffffffffffffffff167f99d9c79bdda8e9aa1d402167bc2b8369d9485ee78030bb679d3d153e651eba8660405160405180910390a35050505050565b6000600d60009054906101000a900473ffffffffffffffffffffffffffffffffffffffff16905090565b6000600d60009054906101000a900473ffffffffffffffffffffffffffffffffffffffff1673ffffffffffffffffffffffffffffffffffffffff166127c16142d2565b73ffffffffffffffffffffffffffffffffffffffff1614905090565b60006127e761277e565b612859576040517f08c379a00000000000000000000000000000000000000000000000000000000081526004018080602001828103825260208152602001807f4f776e61626c653a2063616c6c6572206973206e6f7420746865206f776e657281525060200191505060405180910390fd5b7fffffffffffffffffffffffffffffffffffffffffffffffffffffffffffffffff6fffffffffffffffffffffffffffffffff16881080156128cb57507fffffffffffffffffffffffffffffffffffffffffffffffffffffffffffffffff6fffffffffffffffffffffffffffffffff1689105b61293d576040517f08c379a000000000000000000000000000000000000000000000000000000000815260040180806020018281038252601a8152602001807f436f6d546f6b656e3a206f7574206f66206d61785f6c696d697400000000000081525060200191505060405180910390fd5b60008990506000811415612981577fffffffffffffffffffffffffffffffffffffffffffffffffffffffffffffffff6fffffffffffffffffffffffffffffffff1690505b808911156129f7576040517f08c379a00000000000000000000000000000000000000000000000000000000081526004018080602001828103825260188152602001807f436f6d546f6b656e3a206275794c696d6974206572726f72000000000000000081525060200191505060405180910390fd5b7fffffffffffffffffffffffffffffffffffffffffffffffffffffffffffffffff6fffffffffffffffffffffffffffffffff166001600f54011115612a87576040517f08c379a0000000000000000000000000000000000000000000000000000000008152600401808060200182810382526027815260200180615b016027913960400191505060405180910390fd5b6080600f60008154600101919050819055901b9150612aa46158a0565b604051806101200160405280612ab86142d2565b73ffffffffffffffffffffffffffffffffffffffff16815260200160008152602001600081526020018381526020018b81526020018a81526020018973ffffffffffffffffffffffffffffffffffffffff16815260200188888080601f016020809104026020016040519081016040528093929190818152602001838380828437600081840152601f19601f82011690508083019250505050505050815260200186868080601f016020809104026020016040519081016040528093929190818152602001838380828437600081840152601f19601f820116905080830192505050505050508152509050806010600085815260200190815260200160002060008201518160000160006101000a81548173ffffffffffffffffffffffffffffffffffffffff021916908373ffffffffffffffffffffffffffffffffffffffff1602179055506020820151816001015560408201518160020155606082015181600301556080820151816004015560a0820151816005015560c08201518160060160006101000a81548173ffffffffffffffffffffffffffffffffffffffff021916908373ffffffffffffffffffffffffffffffffffffffff16021790555060e0820151816007019080519060200190612c93929190615918565b50610100820151816008019080519060200190612cb1929190615918565b5090505060116000612cc16142d2565b73ffffffffffffffffffffffffffffffffffffffff1673ffffffffffffffffffffffffffffffffffffffff168152602001908152602001600020600f549080600181540180825580915050906001820390600052602060002001600090919290919091505550612d2f6142d2565b73ffffffffffffffffffffffffffffffffffffffff167fb378e89b40ac5bbe0e2241b596fbe1adc3cf1fb7c982aa1b4560165cf264ee93846040518082815260200191505060405180910390a2505098975050505050505050565b612d92615998565b612d9a6159ba565b600083118015612dac5750600f548311155b612e1e576040517f08c379a000000000000000000000000000000000000000000000000000000000815260040180806020018281038252601e8152602001807f436f6d546f6b656e3a206e6f6e6365206973206e6f742065786973746564000081525060200191505060405180910390fd5b6000608084901b9050612e2f6158a0565b60106000838152602001908152602001600020604051806101200160405290816000820160009054906101000a900473ffffffffffffffffffffffffffffffffffffffff1673ffffffffffffffffffffffffffffffffffffffff1673ffffffffffffffffffffffffffffffffffffffff16815260200160018201548152602001600282015481526020016003820154815260200160048201548152602001600582015481526020016006820160009054906101000a900473ffffffffffffffffffffffffffffffffffffffff1673ffffffffffffffffffffffffffffffffffffffff1673ffffffffffffffffffffffffffffffffffffffff168152602001600782018054600181600116156101000203166002900480601f016020809104026020016040519081016040528092919081815260200182805460018160011615610100020316600290048015612fc55780601f10612f9a57610100808354040283529160200191612fc5565b820191906000526020600020905b815481529060010190602001808311612fa857829003601f168201915b50505050508152602001600882018054600181600116156101000203166002900480601f0160208091040260200160405190810160405280929190818152602001828054600181600116156101000203166002900480156130675780601f1061303c57610100808354040283529160200191613067565b820191906000526020600020905b81548152906001019060200180831161304a57829003601f168201915b505050505081525050905080600001518460006002811061308457fe5b602002019073ffffffffffffffffffffffffffffffffffffffff16908173ffffffffffffffffffffffffffffffffffffffff16815250508060c00151846001600281106130cd57fe5b602002019073ffffffffffffffffffffffffffffffffffffffff16908173ffffffffffffffffffffffffffffffffffffffff168152505080606001518360006005811061311657fe5b60200201818152505080602001518360016005811061313157fe5b60200201818152505080608001518360026005811061314c57fe5b60200201818152505080604001518360036005811061316757fe5b6020020181815250508060a001518360046005811061318257fe5b6020020181815250505050915091565b61319b82611d4b565b61320d576040517f08c379a00000000000000000000000000000000000000000000000000000000081526004018080602001828103825260148152602001807f436f6d546f6b656e3a206e6f742061207479706500000000000000000000000081525060200191505060405180910390fd5b60006010600084815260200190815260200160002090508060050154341015613281576040517f08c379a000000000000000000000000000000000000000000000000000000000815260040180806020018281038252602b815260200180615c86602b913960400191505060405180910390fd5b8060010160008154809291906001019190505550806002016000815480929190600101919050555080600401548160020154111580156132c957508060030154816001015411155b61333b576040517f08c379a000000000000000000000000000000000000000000000000000000000815260040180806020018281038252601a8152602001807f436f6d546f6b656e3a206f7574206f6620746865206c696d697400000000000081525060200191505060405180910390fd5b60008160010154841790506133508382614400565b8160060160009054906101000a900473ffffffffffffffffffffffffffffffffffffffff1673ffffffffffffffffffffffffffffffffffffffff166108fc349081150290604051600060405180830381858888f193505050501580156133ba573d6000803e3d6000fd5b508273ffffffffffffffffffffffffffffffffffffffff166133da6142d2565b73ffffffffffffffffffffffffffffffffffffffff167fa5ff468a42a1c7f5a78dd6683a9722f1ef3c388d590959bbd7a6d2c837fcab07836040518082815260200191505060405180910390a350505050565b6060600a8054600181600116156101000203166002900480601f0160208091040260200160405190810160405280929190818152602001828054600181600116156101000203166002900480156134c55780601f1061349a576101008083540402835291602001916134c5565b820191906000526020600020905b8154815290600101906020018083116134a857829003601f168201915b5050505050905090565b601160205281600052604060002081815481106134e857fe5b90600052602060002001600091509150505481565b6135056142d2565b73ffffffffffffffffffffffffffffffffffffffff168273ffffffffffffffffffffffffffffffffffffffff1614156135a6576040517f08c379a00000000000000000000000000000000000000000000000000000000081526004018080602001828103825260198152602001807f4552433732313a20617070726f766520746f2063616c6c65720000000000000081525060200191505060405180910390fd5b80600460006135b36142d2565b73ffffffffffffffffffffffffffffffffffffffff1673ffffffffffffffffffffffffffffffffffffffff16815260200190815260200160002060008473ffffffffffffffffffffffffffffffffffffffff1673ffffffffffffffffffffffffffffffffffffffff16815260200190815260200160002060006101000a81548160ff0219169083151502179055508173ffffffffffffffffffffffffffffffffffffffff166136606142d2565b73ffffffffffffffffffffffffffffffffffffffff167f17307eab39ab6107e8899845ad3d59bd9653f200f220920489ca2b5937696c3183604051808215151515815260200191505060405180910390a35050565b826136be6142d2565b73ffffffffffffffffffffffffffffffffffffffff166010600083815260200190815260200160002060000160009054906101000a900473ffffffffffffffffffffffffffffffffffffffff1673ffffffffffffffffffffffffffffffffffffffff1614613794576040517f08c379a000000000000000000000000000000000000000000000000000000000815260040180806020018281038252601b8152602001807f436f6d546f6b656e3a207065726d697373696f6e2064656e696564000000000081525060200191505060405180910390fd5b6000601060008681526020019081526020016000209050600084849050905060006137d08360020154846001015461442190919063ffffffff16565b90506137ed8360040154846003015461442190919063ffffffff16565b613800838361446b90919063ffffffff16565b1115613874576040517f08c379a000000000000000000000000000000000000000000000000000000000815260040180806020018281038252601f8152602001807f436f6d546f6b656e3a206f7574206f6620746865206d696e74206c696d69740081525060200191505060405180910390fd5b60008090505b828110156138d257600060018286600101540101891790506138c48888848181106138a157fe5b9050602002013573ffffffffffffffffffffffffffffffffffffffff1682614400565b50808060010191505061387a565b506138ea82846001015461446b90919063ffffffff16565b8360010181905550866138fb6142d2565b73ffffffffffffffffffffffffffffffffffffffff167fdcdea898caf5576419f89caf69301592a4758349a0bd62300b58849213420a7260405160405180910390a350505050505050565b600f5481565b816139556142d2565b73ffffffffffffffffffffffffffffffffffffffff166010600083815260200190815260200160002060000160009054906101000a900473ffffffffffffffffffffffffffffffffffffffff1673ffffffffffffffffffffffffffffffffffffffff1614613a2b576040517f08c379a000000000000000000000000000000000000000000000000000000000815260040180806020018281038252601b8152602001807f436f6d546f6b656e3a207065726d697373696f6e2064656e696564000000000081525060200191505060405180910390fd5b6000601060008581526020019081526020016000209050828160050181905550838160000160009054906101000a900473ffffffffffffffffffffffffffffffffffffffff1673ffffffffffffffffffffffffffffffffffffffff167fe5de233c6530662ac259214d2d41e53a2947e4f5f7db51d03ba4a81d7ddccbf7856040518082815260200191505060405180910390a350505050565b613ad5613acf6142d2565b836142da565b613b2a576040517f08c379a0000000000000000000000000000000000000000000000000000000008152600401808060200182810382526031815260200180615c296031913960400191505060405180910390fd5b613b36848484846144f3565b50505050565b6060600082118015613b505750600f548211155b613bc2576040517f08c379a000000000000000000000000000000000000000000000000000000000815260040180806020018281038252601e8152602001807f436f6d546f6b656e3a206e6f6e6365206973206e6f742065786973746564000081525060200191505060405180910390fd5b6000608083901b9050601060008281526020019081526020016000206008018054600181600116156101000203166002900480601f016020809104026020016040519081016040528092919081815260200182805460018160011615610100020316600290048015613c755780601f10613c4a57610100808354040283529160200191613c75565b820191906000526020600020905b815481529060010190602001808311613c5857829003601f168201915b5050505050915050919050565b6000601160008373ffffffffffffffffffffffffffffffffffffffff1673ffffffffffffffffffffffffffffffffffffffff168152602001908152602001600020805490509050919050565b6060613cd982614565565b805480602002602001604051908101604052809291908181526020018280548015613d2357602002820191906000526020600020905b815481526020019060010190808311613d0f575b50505050509050919050565b6060613d3a82614037565b613dac576040517f08c379a00000000000000000000000000000000000000000000000000000000081526004018080602001828103825260208152602001807f436f6d546f6b656e3a20746f6b656e4964206973206e6f74206578697374656481525060200191505060405180910390fd5b6000613db783611e78565b90506060601060008381526020019081526020016000206007018054600181600116156101000203166002900480601f016020809104026020016040519081016040528092919081815260200182805460018160011615610100020316600290048015613e655780601f10613e3a57610100808354040283529160200191613e65565b820191906000526020600020905b815481529060010190602001808311613e4857829003601f168201915b50505050509050613e7e81613e79866145ad565b6146da565b92505050919050565b82613e906142d2565b73ffffffffffffffffffffffffffffffffffffffff166010600083815260200190815260200160002060000160009054906101000a900473ffffffffffffffffffffffffffffffffffffffff1673ffffffffffffffffffffffffffffffffffffffff1614613f66576040517f08c379a000000000000000000000000000000000000000000000000000000000815260040180806020018281038252601b8152602001807f436f6d546f6b656e3a207065726d697373696f6e2064656e696564000000000081525060200191505060405180910390fd5b60006010600086815260200190815260200160002090508383826007019190613f90929190615820565b50848160000160009054906101000a900473ffffffffffffffffffffffffffffffffffffffff1673ffffffffffffffffffffffffffffffffffffffff167fe626e260b954a7057102eed183b8bd79284e8580a404ed4b21a79d1d1a9f081c868660405180806020018281038252848482818152602001925080828437600081840152601f19601f820116905080830192505050935050505060405180910390a35050505050565b60008061404383611e78565b905061404e81611d4b565b61405c5760009150506140a4565b600061406784612319565b9050600081148061408d5750601060008381526020019081526020016000206001015481115b1561409d576000925050506140a4565b6001925050505b919050565b600080600e60009054906101000a900473ffffffffffffffffffffffffffffffffffffffff1690508273ffffffffffffffffffffffffffffffffffffffff168173ffffffffffffffffffffffffffffffffffffffff1663c4552791866040518263ffffffff1660e01b8152600401808273ffffffffffffffffffffffffffffffffffffffff1673ffffffffffffffffffffffffffffffffffffffff16815260200191505060206040518083038186803b15801561416557600080fd5b505afa158015614179573d6000803e3d6000fd5b505050506040513d602081101561418f57600080fd5b810190808051906020019092919050505073ffffffffffffffffffffffffffffffffffffffff1614156141c65760019150506141d4565b6141d0848461471e565b9150505b92915050565b6141e261277e565b614254576040517f08c379a00000000000000000000000000000000000000000000000000000000081526004018080602001828103825260208152602001807f4f776e61626c653a2063616c6c6572206973206e6f7420746865206f776e657281525060200191505060405180910390fd5b61425d816147b2565b50565b6000806001600084815260200190815260200160002060009054906101000a900473ffffffffffffffffffffffffffffffffffffffff169050600073ffffffffffffffffffffffffffffffffffffffff168173ffffffffffffffffffffffffffffffffffffffff161415915050919050565b600033905090565b60006142e582614260565b61433a576040517f08c379a000000000000000000000000000000000000000000000000000000000815260040180806020018281038252602c815260200180615ad5602c913960400191505060405180910390fd5b600061434583611f9f565b90508073ffffffffffffffffffffffffffffffffffffffff168473ffffffffffffffffffffffffffffffffffffffff1614806143b457508373ffffffffffffffffffffffffffffffffffffffff1661439c84611900565b73ffffffffffffffffffffffffffffffffffffffff16145b806143c557506143c481856140a9565b5b91505092915050565b6143d98383836148f8565b6143e38382614b53565b6143ed8282614cf1565b505050565b600081600001549050919050565b61440a8282614db8565b6144148282614cf1565b61441d81614fd0565b5050565b600061446383836040518060400160405280601e81526020017f536166654d6174683a207375627472616374696f6e206f766572666c6f77000081525061501c565b905092915050565b6000808284019050838110156144e9576040517f08c379a000000000000000000000000000000000000000000000000000000000815260040180806020018281038252601b8152602001807f536166654d6174683a206164646974696f6e206f766572666c6f77000000000081525060200191505060405180910390fd5b8091505092915050565b6144fe8484846143ce565b61450a848484846150dc565b61455f576040517f08c379a0000000000000000000000000000000000000000000000000000000008152600401808060200182810382526032815260200180615a596032913960400191505060405180910390fd5b50505050565b6000600560008373ffffffffffffffffffffffffffffffffffffffff1673ffffffffffffffffffffffffffffffffffffffff1681526020019081526020016000209050919050565b606060008214156145f5576040518060400160405280600181526020017f300000000000000000000000000000000000000000000000000000000000000081525090506146d5565b600082905060005b6000821461461f578080600101915050600a828161461757fe5b0491506145fd565b6060816040519080825280601f01601f1916602001820160405280156146545781602001600182028038833980820191505090505b50905060006001830390505b600086146146cd57600a868161467257fe5b0660300160f81b8282806001900393508151811061468c57fe5b60200101907effffffffffffffffffffffffffffffffffffffffffffffffffffffffffffff1916908160001a905350600a86816146c557fe5b049550614660565b819450505050505b919050565b60606147168383604051806020016040528060008152506040518060200160405280600081525060405180602001604052806000815250615418565b905092915050565b6000600460008473ffffffffffffffffffffffffffffffffffffffff1673ffffffffffffffffffffffffffffffffffffffff16815260200190815260200160002060008373ffffffffffffffffffffffffffffffffffffffff1673ffffffffffffffffffffffffffffffffffffffff16815260200190815260200160002060009054906101000a900460ff16905092915050565b600073ffffffffffffffffffffffffffffffffffffffff168173ffffffffffffffffffffffffffffffffffffffff161415614838576040517f08c379a0000000000000000000000000000000000000000000000000000000008152600401808060200182810382526026815260200180615a8b6026913960400191505060405180910390fd5b8073ffffffffffffffffffffffffffffffffffffffff16600d60009054906101000a900473ffffffffffffffffffffffffffffffffffffffff1673ffffffffffffffffffffffffffffffffffffffff167f8be0079c531659141344cd1fd0a4f28419497f9722a3daafe3b4186f6b6457e060405160405180910390a380600d60006101000a81548173ffffffffffffffffffffffffffffffffffffffff021916908373ffffffffffffffffffffffffffffffffffffffff16021790555050565b8273ffffffffffffffffffffffffffffffffffffffff1661491882611f9f565b73ffffffffffffffffffffffffffffffffffffffff1614614984576040517f08c379a0000000000000000000000000000000000000000000000000000000008152600401808060200182810382526029815260200180615bdf6029913960400191505060405180910390fd5b600073ffffffffffffffffffffffffffffffffffffffff168273ffffffffffffffffffffffffffffffffffffffff161415614a0a576040517f08c379a0000000000000000000000000000000000000000000000000000000008152600401808060200182810382526024815260200180615ab16024913960400191505060405180910390fd5b614a13816156de565b614a5a600360008573ffffffffffffffffffffffffffffffffffffffff1673ffffffffffffffffffffffffffffffffffffffff16815260200190815260200160002061579c565b614aa1600360008473ffffffffffffffffffffffffffffffffffffffff1673ffffffffffffffffffffffffffffffffffffffff1681526020019081526020016000206157bf565b816001600083815260200190815260200160002060006101000a81548173ffffffffffffffffffffffffffffffffffffffff021916908373ffffffffffffffffffffffffffffffffffffffff160217905550808273ffffffffffffffffffffffffffffffffffffffff168473ffffffffffffffffffffffffffffffffffffffff167fddf252ad1be2c89b69c2b068fc378daa952ba7f163c4a11628f55a4df523b3ef60405160405180910390a4505050565b6000614bab6001600560008673ffffffffffffffffffffffffffffffffffffffff1673ffffffffffffffffffffffffffffffffffffffff1681526020019081526020016000208054905061442190919063ffffffff16565b9050600060066000848152602001908152602001600020549050818114614c98576000600560008673ffffffffffffffffffffffffffffffffffffffff1673ffffffffffffffffffffffffffffffffffffffff1681526020019081526020016000208381548110614c1857fe5b9060005260206000200154905080600560008773ffffffffffffffffffffffffffffffffffffffff1673ffffffffffffffffffffffffffffffffffffffff1681526020019081526020016000208381548110614c7057fe5b9060005260206000200181905550816006600083815260200190815260200160002081905550505b600560008573ffffffffffffffffffffffffffffffffffffffff1673ffffffffffffffffffffffffffffffffffffffff168152602001908152602001600020805480919060019003614cea91906159dc565b5050505050565b600560008373ffffffffffffffffffffffffffffffffffffffff1673ffffffffffffffffffffffffffffffffffffffff168152602001908152602001600020805490506006600083815260200190815260200160002081905550600560008373ffffffffffffffffffffffffffffffffffffffff1673ffffffffffffffffffffffffffffffffffffffff1681526020019081526020016000208190806001815401808255809150509060018203906000526020600020016000909192909190915055505050565b600073ffffffffffffffffffffffffffffffffffffffff168273ffffffffffffffffffffffffffffffffffffffff161415614e5b576040517f08c379a00000000000000000000000000000000000000000000000000000000081526004018080602001828103825260208152602001807f4552433732313a206d696e7420746f20746865207a65726f206164647265737381525060200191505060405180910390fd5b614e6481614260565b15614ed7576040517f08c379a000000000000000000000000000000000000000000000000000000000815260040180806020018281038252601c8152602001807f4552433732313a20746f6b656e20616c7265616479206d696e7465640000000081525060200191505060405180910390fd5b816001600083815260200190815260200160002060006101000a81548173ffffffffffffffffffffffffffffffffffffffff021916908373ffffffffffffffffffffffffffffffffffffffff160217905550614f70600360008473ffffffffffffffffffffffffffffffffffffffff1673ffffffffffffffffffffffffffffffffffffffff1681526020019081526020016000206157bf565b808273ffffffffffffffffffffffffffffffffffffffff16600073ffffffffffffffffffffffffffffffffffffffff167fddf252ad1be2c89b69c2b068fc378daa952ba7f163c4a11628f55a4df523b3ef60405160405180910390a45050565b6007805490506008600083815260200190815260200160002081905550600781908060018154018082558091505090600182039060005260206000200160009091929091909150555050565b60008383111582906150c9576040517f08c379a00000000000000000000000000000000000000000000000000000000081526004018080602001828103825283818151815260200191508051906020019080838360005b8381101561508e578082015181840152602081019050615073565b50505050905090810190601f1680156150bb5780820380516001836020036101000a031916815260200191505b509250505060405180910390fd5b5060008385039050809150509392505050565b60006150fd8473ffffffffffffffffffffffffffffffffffffffff166157d5565b61510a5760019050615410565b600060608573ffffffffffffffffffffffffffffffffffffffff168673ffffffffffffffffffffffffffffffffffffffff1663150b7a02905060e01b61514e6142d2565b898888604051602401808573ffffffffffffffffffffffffffffffffffffffff1673ffffffffffffffffffffffffffffffffffffffff1681526020018473ffffffffffffffffffffffffffffffffffffffff1673ffffffffffffffffffffffffffffffffffffffff16815260200183815260200180602001828103825283818151815260200191508051906020019080838360005b838110156151fe5780820151818401526020810190506151e3565b50505050905090810190601f16801561522b5780820380516001836020036101000a031916815260200191505b5095505050505050604051602081830303815290604052907bffffffffffffffffffffffffffffffffffffffffffffffffffffffff19166020820180517bffffffffffffffffffffffffffffffffffffffffffffffffffffffff83818316178352505050506040518082805190602001908083835b602083106152c357805182526020820191506020810190506020830392506152a0565b6001836020036101000a0380198251168184511680821785525050505050509050019150506000604051808303816000865af19150503d8060008114615325576040519150601f19603f3d011682016040523d82523d6000602084013e61532a565b606091505b509150915081615398576000815111156153475780518082602001fd5b6040517f08c379a0000000000000000000000000000000000000000000000000000000008152600401808060200182810382526032815260200180615a596032913960400191505060405180910390fd5b60008180602001905160208110156153af57600080fd5b8101908080519060200190929190505050905063150b7a0260e01b7bffffffffffffffffffffffffffffffffffffffffffffffffffffffff1916817bffffffffffffffffffffffffffffffffffffffffffffffffffffffff19161493505050505b949350505050565b6060808690506060869050606086905060608690506060869050606081518351855187518951010101016040519080825280601f01601f1916602001820160405280156154745781602001600182028038833980820191505090505b5090506060819050600080905060008090505b88518110156154f55788818151811061549c57fe5b602001015160f81c60f81b8383806001019450815181106154b957fe5b60200101907effffffffffffffffffffffffffffffffffffffffffffffffffffffffffffff1916908160001a9053508080600101915050615487565b5060008090505b875181101561556a5787818151811061551157fe5b602001015160f81c60f81b83838060010194508151811061552e57fe5b60200101907effffffffffffffffffffffffffffffffffffffffffffffffffffffffffffff1916908160001a90535080806001019150506154fc565b5060008090505b86518110156155df5786818151811061558657fe5b602001015160f81c60f81b8383806001019450815181106155a357fe5b60200101907effffffffffffffffffffffffffffffffffffffffffffffffffffffffffffff1916908160001a9053508080600101915050615571565b5060008090505b8551811015615654578581815181106155fb57fe5b602001015160f81c60f81b83838060010194508151811061561857fe5b60200101907effffffffffffffffffffffffffffffffffffffffffffffffffffffffffffff1916908160001a90535080806001019150506155e6565b5060008090505b84518110156156c95784818151811061567057fe5b602001015160f81c60f81b83838060010194508151811061568d57fe5b60200101907effffffffffffffffffffffffffffffffffffffffffffffffffffffffffffff1916908160001a905350808060010191505061565b565b50819850505050505050505095945050505050565b600073ffffffffffffffffffffffffffffffffffffffff166002600083815260200190815260200160002060009054906101000a900473ffffffffffffffffffffffffffffffffffffffff1673ffffffffffffffffffffffffffffffffffffffff16146157995760006002600083815260200190815260200160002060006101000a81548173ffffffffffffffffffffffffffffffffffffffff021916908373ffffffffffffffffffffffffffffffffffffffff1602179055505b50565b6157b46001826000015461442190919063ffffffff16565b816000018190555050565b6001816000016000828254019250508190555050565b60008060007fc5d2460186f7233c927e7db2dcc703c0e500b653ca82273b7bfad8045d85a47060001b9050833f915080821415801561581757506000801b8214155b92505050919050565b828054600181600116156101000203166002900490600052602060002090601f016020900481019282601f1061586157803560ff191683800117855561588f565b8280016001018555821561588f579182015b8281111561588e578235825591602001919060010190615873565b5b50905061589c9190615a08565b5090565b604051806101200160405280600073ffffffffffffffffffffffffffffffffffffffff1681526020016000815260200160008152602001600081526020016000815260200160008152602001600073ffffffffffffffffffffffffffffffffffffffff16815260200160608152602001606081525090565b828054600181600116156101000203166002900490600052602060002090601f016020900481019282601f1061595957805160ff1916838001178555615987565b82800160010185558215615987579182015b8281111561598657825182559160200191906001019061596b565b5b5090506159949190615a08565b5090565b6040518060400160405280600290602082028038833980820191505090505090565b6040518060a00160405280600590602082028038833980820191505090505090565b815481835581811115615a0357818360005260206000209182019101615a029190615a08565b5b505050565b615a2a91905b80821115615a26576000816000905550600101615a0e565b5090565b9056fe455243373231456e756d657261626c653a206f776e657220696e646578206f7574206f6620626f756e64734552433732313a207472616e7366657220746f206e6f6e20455243373231526563656976657220696d706c656d656e7465724f776e61626c653a206e6577206f776e657220697320746865207a65726f20616464726573734552433732313a207472616e7366657220746f20746865207a65726f20616464726573734552433732313a206f70657261746f7220717565727920666f72206e6f6e6578697374656e7420746f6b656e436f6d546f6b656e3a2074686520616d6f756e74206f662074797065206973206d6178696e756d4552433732313a20617070726f76652063616c6c6572206973206e6f74206f776e6572206e6f7220617070726f76656420666f7220616c6c4552433732313a2062616c616e636520717565727920666f7220746865207a65726f20616464726573734552433732313a206f776e657220717565727920666f72206e6f6e6578697374656e7420746f6b656e4552433732313a20617070726f76656420717565727920666f72206e6f6e6578697374656e7420746f6b656e4552433732313a207472616e73666572206f6620746f6b656e2074686174206973206e6f74206f776e4552433732313a20617070726f76616c20746f2063757272656e74206f776e65724552433732313a207472616e736665722063616c6c6572206973206e6f74206f776e6572206e6f7220617070726f766564455243373231456e756d657261626c653a20676c6f62616c20696e646578206f7574206f6620626f756e6473436f6d546f6b656e3a20696e73756666696369656e7420657468657273206f72207a65726f207072696365a265627a7a72315820bc97d25cb67cb06940f53a345ecd014ac5b703a9e14b3f98c7c5a2de1fba072264736f6c63430005100032",
  "source": "pragma solidity ^ 0.5.0;\n\n\nimport \"@openzeppelin/contracts/ownership/Ownable.sol\";\nimport \"@openzeppelin/contracts/token/ERC721/ERC721Full.sol\";\nimport './Strings.sol';\n\n\n//opensea\ncontract OwnableDelegateProxy {}\n\n\ncontract ProxyRegistry {\n    mapping(address => OwnableDelegateProxy) public proxies;\n}\n\n\n//721NFT\ncontract ComToken is ERC721Full, Ownable {\n    using Strings for string;\n    //\n    uint constant MAX_LIMIT = uint(uint128(~0));\n    //1281\n    uint256 constant NF_INDEX_MASK = uint(uint128(~0));\n    //1281\n    uint constant TYPE_MASK = uint(uint128(~0)) << 128;\n    //alhpa\n    /* bytes4(keccak256('getBalances(address)')) == 0xc84aae17 */\n    bytes4 private constant _INTERFACE_ID_Token_BALANCES = 0xc84aae17;\n    //\n    /* bytes4(keccak256('getTokenImageSvg(uint256)')) == 0x87d2f48c */\n    bytes4 private constant _INTERFACE_ID_TOKEN_IMAGE_SVG = 0x87d2f48c;\n\n    struct TokenInfo {\n        address creator; //\n        uint amount; //\n        uint buyAmount;//\n        uint limit; //\n        uint buyLimit;//\n        uint price; //\n        address payable beneficiary;     //\n        string baseURI; //baseURI\n        string icon; //SVG\n    }\n\n    //\n    address proxyRegistryAddress;\n    //\n    uint public nonce;\n    //\n    mapping(uint => TokenInfo) public tokenInfos;  // type => info\n    //\n    mapping(address => uint[]) public nftTypes;     //creator => type[]\n\n    //event\n    event CreateToken(address indexed creator,uint typeId);\n    event ChangePrice(address indexed operator,uint indexed typeId,uint newPrice);\n    event ChangeBaseURI(address indexed operator,uint indexed typeId,string newURI);\n    event ChangeIcon(address indexed operator,uint indexed typeId);\n    event BuyToken(address indexed _buyer,address indexed _recipient, uint _tokenId);\n    event MintToken(address indexed _operator,uint indexed typeId);\n\n    //\n    modifier onlyCreator(uint typeId) {\n        require(tokenInfos[typeId].creator == _msgSender(),\"ComToken: permission denied\");\n        _;\n    }\n\n    constructor(string memory name, string memory symbol, address _proxyRegistryAddress) public ERC721Full(name, symbol) {\n        require(_proxyRegistryAddress != address(0),\"ComToken: Zero Address\");\n        proxyRegistryAddress = _proxyRegistryAddress;\n        _registerInterface(_INTERFACE_ID_Token_BALANCES);\n        _registerInterface(_INTERFACE_ID_TOKEN_IMAGE_SVG);\n    }\n\n    //ID\n    function isType(uint _typeId) public view returns(bool) {\n        //\n        uint _nonce = getTypeBase(_typeId);\n        if(_nonce == 0 || _nonce > nonce) {\n            return false;\n        }\n        //tokenId\n        return (_typeId & NF_INDEX_MASK) == 0;\n    }\n\n    //\n    function getType(uint _tokenId) public pure returns(uint) {\n        return _tokenId & TYPE_MASK;\n    }\n\n    //tokenId128\n    function getTypeBase(uint _tokenId) public pure returns(uint) {\n        return (_tokenId & TYPE_MASK) >> 128;\n    }\n\n    //tokenId128\n    function getTokenIdBase(uint _tokenId) public pure returns(uint) {\n        return _tokenId & NF_INDEX_MASK;\n    }\n\n    //tokenId\n    function isExisted(uint _tokenId) public view returns(bool) {\n        uint _type = getType(_tokenId);\n        if (!isType(_type)) {\n            return false;\n        }\n        uint token_nonce = getTokenIdBase(_tokenId);\n        if (token_nonce == 0 || token_nonce > tokenInfos[_type].amount) {\n            return false;\n        }\n        return true;\n    }\n\n    //\n    //[][]\n    function getInfoByNonce(uint _nonce) public view returns(address[2] memory addrs,uint[5] memory nums) {\n        require(_nonce > 0 && _nonce <= nonce,\"ComToken: nonce is not existed\");\n        uint type_id = _nonce << 128;\n        TokenInfo memory info = tokenInfos[type_id];\n        addrs[0] = info.creator;\n        addrs[1] = info.beneficiary;\n        nums[0] = info.limit;\n        nums[1] = info.amount;\n        nums[2] = info.buyLimit;\n        nums[3] = info.buyAmount;\n        nums[4] = info.price;\n    }\n\n    //URI\n    function getTypeURI(uint _nonce) external view returns(string memory) {\n        require(_nonce > 0 && _nonce <= nonce,\"ComToken: nonce is not existed\");\n        uint type_id = _nonce << 128;\n        return tokenInfos[type_id].baseURI;\n    }\n\n    //svg\n    function getTypeSVG(uint _nonce) external view returns(string memory) {\n        require(_nonce > 0 && _nonce <= nonce,\"ComToken: nonce is not existed\");\n        uint type_id = _nonce << 128;\n        return tokenInfos[type_id].icon;\n    }\n\n    //uriopensea\n    function tokenURI(uint _tokenId) external view returns(string memory) {\n        require(isExisted(_tokenId),\"ComToken: tokenId is not existed\");\n        uint _type = getType(_tokenId);\n        string memory base_uri = tokenInfos[_type].baseURI;\n        return Strings.strConcat(\n            base_uri,\n            Strings.uint2str(_tokenId)\n        );\n    }\n\n    //\n    function getTokenImageSvg(uint _tokenId) external view returns(string memory) {\n        uint _type = getType(_tokenId);\n        return tokenInfos[_type].icon;\n    }\n\n    /////////////////////////////////----////////////////////////\n    //\n    function getUserCreated(address _creator) public view returns(uint) {\n        return nftTypes[_creator].length;\n    }\n    //ID(128)\n    function getUserAllCreated(address _creator) public view returns(uint[] memory) {\n        return nftTypes[_creator];\n    }\n\n    //\n    function createToken(uint _limit,uint _buyLimt, uint _price,address payable _beneficiary, string calldata _baseURI, string calldata _icon)\n    external\n    onlyOwner\n    returns(uint _typeId) {\n        require(_buyLimt < MAX_LIMIT && _limit < MAX_LIMIT, \"ComToken: out of max_limit\");\n        //0\n        uint limit = _limit;\n        if (limit == 0) {\n            limit = MAX_LIMIT;\n        }\n        require(_buyLimt <= limit, \"ComToken: buyLimit error\");\n        require(nonce + 1 <= MAX_LIMIT,\"ComToken: the amount of type is maxinum\");\n        _typeId = (++nonce) << 128;\n        TokenInfo memory info = TokenInfo(\n            _msgSender(), //\n            0,  //\n            0,  //\n            limit, //\n            _buyLimt,  //\n            _price, //\n            _beneficiary,\n            _baseURI,\n            _icon\n        );\n        tokenInfos[_typeId] = info;\n        nftTypes[_msgSender()].push(nonce);\n        emit CreateToken(_msgSender(),_typeId);\n    }\n\n    //\n    function buyToken(uint typeId, address recipient) external payable {\n        require(isType(typeId), \"ComToken: not a type\");\n        TokenInfo storage info = tokenInfos[typeId];\n        require(msg.value >= info.price, \"ComToken: insufficient ethers or zero price\");\n        //1\n        info.amount ++;\n        info.buyAmount ++;\n        //\n        require(info.buyAmount <= info.buyLimit && info.amount <= info.limit, \"ComToken: out of the limit\");\n        uint id = typeId | info.amount;\n        _mint(recipient, id);\n        info.beneficiary.transfer(msg.value);\n        emit BuyToken(_msgSender(),recipient,id);\n    }\n\n    //()\n    function mintToken(uint typeId,address[] calldata to) external onlyCreator(typeId) {\n        TokenInfo storage info = tokenInfos[typeId];\n        uint len = to.length;\n        uint hasMint = info.amount.sub(info.buyAmount);\n        require(hasMint.add(len) <= info.limit.sub(info.buyLimit),\"ComToken: out of the mint limit\");\n        // require(info.amount.add(len) <= info.limit,\"ComToken: out of the limit\");\n        for (uint i = 0;i < len;i++) {\n            uint id = typeId | (info.amount + i + 1);\n            _mint(to[i], id);\n        }\n        info.amount = info.amount.add(len);\n        emit MintToken(_msgSender(),typeId);\n    }\n\n    //\n    function changePrice(uint typeId,uint newPrice) external onlyCreator(typeId) {\n        TokenInfo storage info = tokenInfos[typeId];\n        info.price = newPrice;\n        emit ChangePrice(info.creator,typeId,newPrice);\n    }\n\n    function changeBaseURI(uint typeId,string calldata _url) external onlyCreator(typeId) {\n        TokenInfo storage info = tokenInfos[typeId];\n        info.baseURI = _url;\n        emit ChangeBaseURI(info.creator,typeId,_url);\n    }\n\n    function changeIcon(uint typeId,string calldata _svg) external onlyCreator(typeId) {\n        TokenInfo storage info = tokenInfos[typeId];\n        info.icon = _svg;\n        emit ChangeIcon(info.creator,typeId);\n    }\n\n    //alpha\n    function getBalances(address owner) public view returns(uint[] memory) {\n        return _tokensOfOwner(owner);\n    }\n\n    /**\n     * Override isApprovedForAll to whitelist user's OpenSea proxy accounts to enable gas-less listings.\n     */\n    function isApprovedForAll(\n        address owner,\n        address operator\n    )\n    public\n    view\n    returns(bool) {\n        // Whitelist OpenSea proxy contract for easy trading.\n        ProxyRegistry proxyRegistry = ProxyRegistry(proxyRegistryAddress);\n        if (address(proxyRegistry.proxies(owner)) == operator) {\n            return true;\n        }\n\n        return super.isApprovedForAll(owner, operator);\n    }\n\n}\n",
  "sourcePath": "/Users/likai/work/htoken/contracts/ComToken.sol",
  "compiler": {
    "name": "solc",
    "version": "0.5.16+commit.9c3226ce.Emscripten.clang"
  },
  "schemaVersion": "3.0.20",
  "updatedAt": "2020-04-09T06:26:13.488Z",
  "networkType": "ethereum",
  "devdoc": {
    "methods": {
      "approve(address,uint256)": {
        "details": "Approves another address to transfer the given token ID The zero address indicates there is no approved address. There can only be one approved address per token at a given time. Can only be called by the token owner or an approved operator.",
        "params": {
          "to": "address to be approved for the given token ID",
          "tokenId": "uint256 ID of the token to be approved"
        }
      },
      "balanceOf(address)": {
        "details": "Gets the balance of the specified address.",
        "params": {
          "owner": "address to query the balance of"
        },
        "return": "uint256 representing the amount owned by the passed address"
      },
      "baseURI()": {
        "details": "Returns the base URI set via {_setBaseURI}. This will be automatically added as a preffix in {tokenURI} to each token's URI, when they are non-empty.    * _Available since v2.5.0._"
      },
      "getApproved(uint256)": {
        "details": "Gets the approved address for a token ID, or zero if no address set Reverts if the token ID does not exist.",
        "params": {
          "tokenId": "uint256 ID of the token to query the approval of"
        },
        "return": "address currently approved for the given token ID"
      },
      "isOwner()": {
        "details": "Returns true if the caller is the current owner."
      },
      "name()": {
        "details": "Gets the token name.",
        "return": "string representing the token name"
      },
      "owner()": {
        "details": "Returns the address of the current owner."
      },
      "ownerOf(uint256)": {
        "details": "Gets the owner of the specified token ID.",
        "params": {
          "tokenId": "uint256 ID of the token to query the owner of"
        },
        "return": "address currently marked as the owner of the given token ID"
      },
      "renounceOwnership()": {
        "details": "Leaves the contract without owner. It will not be possible to call `onlyOwner` functions anymore. Can only be called by the current owner.     * NOTE: Renouncing ownership will leave the contract without an owner, thereby removing any functionality that is only available to the owner."
      },
      "safeTransferFrom(address,address,uint256)": {
        "details": "Safely transfers the ownership of a given token ID to another address If the target address is a contract, it must implement {IERC721Receiver-onERC721Received}, which is called upon a safe transfer, and return the magic value `bytes4(keccak256(\"onERC721Received(address,address,uint256,bytes)\"))`; otherwise, the transfer is reverted. Requires the msg.sender to be the owner, approved, or operator",
        "params": {
          "from": "current owner of the token",
          "to": "address to receive the ownership of the given token ID",
          "tokenId": "uint256 ID of the token to be transferred"
        }
      },
      "safeTransferFrom(address,address,uint256,bytes)": {
        "details": "Safely transfers the ownership of a given token ID to another address If the target address is a contract, it must implement {IERC721Receiver-onERC721Received}, which is called upon a safe transfer, and return the magic value `bytes4(keccak256(\"onERC721Received(address,address,uint256,bytes)\"))`; otherwise, the transfer is reverted. Requires the _msgSender() to be the owner, approved, or operator",
        "params": {
          "_data": "bytes data to send along with a safe transfer check",
          "from": "current owner of the token",
          "to": "address to receive the ownership of the given token ID",
          "tokenId": "uint256 ID of the token to be transferred"
        }
      },
      "setApprovalForAll(address,bool)": {
        "details": "Sets or unsets the approval of a given operator An operator is allowed to transfer all tokens of the sender on their behalf.",
        "params": {
          "approved": "representing the status of the approval to be set",
          "to": "operator address to set the approval"
        }
      },
      "supportsInterface(bytes4)": {
        "details": "See {IERC165-supportsInterface}.     * Time complexity O(1), guaranteed to always use less than 30 000 gas."
      },
      "symbol()": {
        "details": "Gets the token symbol.",
        "return": "string representing the token symbol"
      },
      "tokenByIndex(uint256)": {
        "details": "Gets the token ID at a given index of all the tokens in this contract Reverts if the index is greater or equal to the total number of tokens.",
        "params": {
          "index": "uint256 representing the index to be accessed of the tokens list"
        },
        "return": "uint256 token ID at the given index of the tokens list"
      },
      "tokenOfOwnerByIndex(address,uint256)": {
        "details": "Gets the token ID at a given index of the tokens list of the requested owner.",
        "params": {
          "index": "uint256 representing the index to be accessed of the requested tokens list",
          "owner": "address owning the tokens list to be accessed"
        },
        "return": "uint256 token ID at the given index of the tokens list owned by the requested address"
      },
      "totalSupply()": {
        "details": "Gets the total amount of tokens stored by the contract.",
        "return": "uint256 representing the total amount of tokens"
      },
      "transferFrom(address,address,uint256)": {
        "details": "Transfers the ownership of a given token ID to another address. Usage of this method is discouraged, use {safeTransferFrom} whenever possible. Requires the msg.sender to be the owner, approved, or operator.",
        "params": {
          "from": "current owner of the token",
          "to": "address to receive the ownership of the given token ID",
          "tokenId": "uint256 ID of the token to be transferred"
        }
      },
      "transferOwnership(address)": {
        "details": "Transfers ownership of the contract to a new account (`newOwner`). Can only be called by the current owner."
      }
    }
  },
  "userdoc": {
    "methods": {
      "getUserCreated(address)": {
        "notice": "//////////////////////////////----////////////////////////"
      },
      "isApprovedForAll(address,address)": {
        "notice": "Override isApprovedForAll to whitelist user's OpenSea proxy accounts to enable gas-less listings."
      }
    }
  }
}