{
  "contractName": "ProxyRegistry",
  "abi": [
    {
      "constant": true,
      "inputs": [
        {
          "internalType": "address",
          "name": "",
          "type": "address"
        }
      ],
      "name": "proxies",
      "outputs": [
        {
          "internalType": "contract OwnableDelegateProxy",
          "name": "",
          "type": "address"
        }
      ],
      "payable": false,
      "stateMutability": "view",
      "type": "function"
    }
  ],
  "bytecode": "0x608060405234801561001057600080fd5b50610116806100206000396000f3fe6080604052348015600f57600080fd5b506004361060285760003560e01c8063c455279114602d575b600080fd5b606c60048036036020811015604157600080fd5b81019080803573ffffffffffffffffffffffffffffffffffffffff16906020019092919050505060ae565b604051808273ffffffffffffffffffffffffffffffffffffffff1673ffffffffffffffffffffffffffffffffffffffff16815260200191505060405180910390f35b60006020528060005260406000206000915054906101000a900473ffffffffffffffffffffffffffffffffffffffff168156fea265627a7a723158209d6c468b2b49c52e2c54140413cc8bc61b703ec457eb807993c7205bf5d847ac64736f6c63430005100032",
  "source": "pragma solidity ^ 0.5.0;\n\n\nimport \"@openzeppelin/contracts/ownership/Ownable.sol\";\nimport \"@openzeppelin/contracts/token/ERC721/ERC721Full.sol\";\nimport './Strings.sol';\n\n\n//以下是为了接入opensea\ncontract OwnableDelegateProxy {}\n\n\ncontract ProxyRegistry {\n    mapping(address => OwnableDelegateProxy) public proxies;\n}\n\n\n//主合约，实现了一个721创建多种NFT\ncontract ComToken is ERC721Full, Ownable {\n    using Strings for string;\n    //纪念币能发行的最大数量\n    uint constant MAX_LIMIT = uint(uint128(~0));\n    //低128位全为1\n    uint256 constant NF_INDEX_MASK = uint(uint128(~0));\n    //高位128位全为1\n    uint constant TYPE_MASK = uint(uint128(~0)) << 128;\n    //alhpa钱包所需要支持的接口\n    /* bytes4(keccak256('getBalances(address)')) == 0xc84aae17 */\n    bytes4 private constant _INTERFACE_ID_Token_BALANCES = 0xc84aae17;\n    //获取代币图标，自定义接口\n    /* bytes4(keccak256('getTokenImageSvg(uint256)')) == 0x87d2f48c */\n    bytes4 private constant _INTERFACE_ID_TOKEN_IMAGE_SVG = 0x87d2f48c;\n\n    struct TokenInfo {\n        address creator; //创建者\n        uint amount; //已经发行数量\n        uint buyAmount;//已经购买数量\n        uint limit; //发行上限\n        uint buyLimit;//购买上限\n        uint price; //每个售价\n        address payable beneficiary;     //收益人\n        string baseURI; //baseURI\n        string icon; //SVG图片\n    }\n\n    //白名单（代理）\n    address proxyRegistryAddress;\n    //纪念币类型索引\n    uint public nonce;\n    //所有纪念币类型信息\n    mapping(uint => TokenInfo) public tokenInfos;  // type => info\n    //用户创建的纪念币类型\n    mapping(address => uint[]) public nftTypes;     //creator => type[]\n\n    //event\n    event CreateToken(address indexed creator,uint typeId);\n    event ChangePrice(address indexed operator,uint indexed typeId,uint newPrice);\n    event ChangeBaseURI(address indexed operator,uint indexed typeId,string newURI);\n    event BuyToken(address indexed _buyer,address indexed _recipient, uint _tokenId);\n    event MintToken(address indexed _operator,uint indexed typeId);\n\n    //仅限创建者\n    modifier onlyCreator(uint typeId) {\n        require(tokenInfos[typeId].creator == _msgSender(),\"ComToken: permission denied\");\n        _;\n    }\n\n    constructor(string memory name, string memory symbol, address _proxyRegistryAddress) public ERC721Full(name, symbol) {\n        require(_proxyRegistryAddress != address(0),\"ComToken: Zero Address\");\n        proxyRegistryAddress = _proxyRegistryAddress;\n        _registerInterface(_INTERFACE_ID_Token_BALANCES);\n        _registerInterface(_INTERFACE_ID_TOKEN_IMAGE_SVG);\n    }\n\n    //检查是否类型ID\n    function isType(uint _typeId) public view returns(bool) {\n        //首先判断是否在范围内\n        uint _nonce = getTypeBase(_typeId);\n        if(_nonce == 0 || _nonce > nonce) {\n            return false;\n        }\n        //判断是否tokenId\n        return (_typeId & NF_INDEX_MASK) == 0;\n    }\n\n    //获得纪念币的类型\n    function getType(uint _tokenId) public pure returns(uint) {\n        return _tokenId & TYPE_MASK;\n    }\n\n    //获取tokenId的高128位，它表示类型的索引\n    function getTypeBase(uint _tokenId) public pure returns(uint) {\n        return (_tokenId & TYPE_MASK) >> 128;\n    }\n\n    //获取tokenId的低128位，它表示在某一类型中的编号\n    function getTokenIdBase(uint _tokenId) public pure returns(uint) {\n        return _tokenId & NF_INDEX_MASK;\n    }\n\n    //判断某一个tokenId是否存在\n    function isExisted(uint _tokenId) public view returns(bool) {\n        uint _type = getType(_tokenId);\n        if (!isType(_type)) {\n            return false;\n        }\n        uint token_nonce = getTokenIdBase(_tokenId);\n        if (token_nonce == 0 || token_nonce > tokenInfos[_type].amount) {\n            return false;\n        }\n        return true;\n    }\n\n    //为了简化，使用类型的基本索引来获取相应类型信息\n    //返回参数分别为[创建者、收益人]、[发行上限、已发行数量、出售上限、已经售出数量、售价]\n    function getInfoByNonce(uint _nonce) public view returns(address[2] memory addrs,uint[5] memory nums) {\n        require(_nonce > 0 && _nonce <= nonce,\"ComToken: nonce is not existed\");\n        uint type_id = _nonce << 128;\n        TokenInfo memory info = tokenInfos[type_id];\n        addrs[0] = info.creator;\n        addrs[1] = info.beneficiary;\n        nums[0] = info.limit;\n        nums[1] = info.amount;\n        nums[2] = info.buyLimit;\n        nums[3] = info.buyAmount;\n        nums[4] = info.price;\n    }\n\n    //获取每种类型的基础URI，为了简化，使用类型的基本索引来获取信息\n    function getTypeURI(uint _nonce) external view returns(string memory) {\n        require(_nonce > 0 && _nonce <= nonce,\"ComToken: nonce is not existed\");\n        uint type_id = _nonce << 128;\n        return tokenInfos[type_id].baseURI;\n    }\n\n    //获取每种类型的svg\n    function getTypeSVG(uint _nonce) external view returns(string memory) {\n        require(_nonce > 0 && _nonce <= nonce,\"ComToken: nonce is not existed\");\n        uint type_id = _nonce << 128;\n        return tokenInfos[type_id].icon;\n    }\n\n    //获取每个代币的uri，兼容opensea\n    function tokenURI(uint _tokenId) external view returns(string memory) {\n        require(isExisted(_tokenId),\"ComToken: tokenId is not existed\");\n        uint _type = getType(_tokenId);\n        string memory base_uri = tokenInfos[_type].baseURI;\n        return Strings.strConcat(\n            base_uri,\n            Strings.uint2str(_tokenId)\n        );\n    }\n\n    //获取代币图标，自定义接口\n    function getTokenImageSvg(uint _tokenId) external view returns(string memory) {\n        uint _type = getType(_tokenId);\n        return tokenInfos[_type].icon;\n    }\n\n    /////////////////////////////////--纪念币创建、增发接口--////////////////////////\n    //获取用户创建的所有纪念币的数量\n    function getUserCreated(address _creator) public view returns(uint) {\n        return nftTypes[_creator].length;\n    }\n    //在用户创建纪念币数量较少的情况下一次性返回所有创建的纪念币类型ID(为了简化，返回的是基础类型，也就是右移128位后的结果)\n    function getUserAllCreated(address _creator) public view returns(uint[] memory) {\n        return nftTypes[_creator];\n    }\n\n    //创建纪念币\n    function createToken(uint _limit,uint _buyLimt, uint _price,address payable _beneficiary, string calldata _baseURI, string calldata _icon)\n    external\n    onlyOwner\n    returns(uint _typeId) {\n        require(_buyLimt < MAX_LIMIT && _limit < MAX_LIMIT, \"ComToken: out of max_limit\");\n        //如果发行上限为0，则代表无上限\n        uint limit = _limit;\n        if (limit == 0) {\n            limit = MAX_LIMIT - 1;\n        }\n        require(_buyLimt <= limit, \"ComToken: buyLimit error\");\n        require(nonce + 1 <= MAX_LIMIT,\"ComToken: the amount of type is maxinum\");\n        _typeId = (++nonce) << 128;\n        TokenInfo memory info = TokenInfo(\n            _msgSender(), //创建者\n            0,  //已经发行数量\n            0,  //已经购买数量\n            limit, //发行上限\n            _buyLimt,  //购买上限\n            _price, //每个售价\n            _beneficiary,\n            _baseURI,\n            _icon\n        );\n        tokenInfos[_typeId] = info;\n        nftTypes[_msgSender()].push(nonce);\n        emit CreateToken(_msgSender(),_typeId);\n    }\n\n    //用户购买纪念币\n    function buyToken(uint typeId, address recipient) external payable {\n        require(isType(typeId), \"ComToken: not a type\");\n        TokenInfo storage info = tokenInfos[typeId];\n        require(msg.value >= info.price, \"ComToken: insufficient ethers or zero price\");\n        //总数量和购买数量都加1\n        info.amount ++;\n        info.buyAmount ++;\n        //限定出售数量\n        require(info.buyAmount <= info.buyLimit && info.amount <= info.limit, \"ComToken: out of the limit\");\n        uint id = typeId | info.amount;\n        _mint(recipient, id);\n        info.beneficiary.transfer(msg.value);\n        emit BuyToken(_msgSender(),recipient,id);\n    }\n\n    //创建者批量赠送\n    function mintToken(uint typeId,address[] calldata to) external onlyCreator(typeId) {\n        TokenInfo storage info = tokenInfos[typeId];\n        uint len = to.length;\n        require(info.amount.add(len) <= info.limit,\"ComToken: out of the limit\");\n        for (uint i = 0;i < len;i++) {\n            uint id = typeId | (info.amount + i + 1);\n            _mint(to[i], id);\n        }\n        info.amount = info.amount.add(len);\n        emit MintToken(_msgSender(),typeId);\n    }\n\n    //创建者改变纪念币价格\n    function changePrice(uint typeId,uint newPrice) external onlyCreator(typeId) {\n        TokenInfo storage info = tokenInfos[typeId];\n        info.price = newPrice;\n        emit ChangePrice(info.creator,typeId,newPrice);\n    }\n\n    function changeBaseURI(uint typeId,string calldata _url) external onlyCreator(typeId) {\n        TokenInfo storage info = tokenInfos[typeId];\n        info.baseURI = _url;\n        emit ChangeBaseURI(info.creator,typeId,_url);\n    }\n\n    //兼容alpha钱包\n    function getBalances(address owner) public view returns(uint[] memory) {\n        return _tokensOfOwner(owner);\n    }\n\n    /**\n     * Override isApprovedForAll to whitelist user's OpenSea proxy accounts to enable gas-less listings.\n     */\n    function isApprovedForAll(\n        address owner,\n        address operator\n    )\n    public\n    view\n    returns(bool) {\n        // Whitelist OpenSea proxy contract for easy trading.\n        ProxyRegistry proxyRegistry = ProxyRegistry(proxyRegistryAddress);\n        if (address(proxyRegistry.proxies(owner)) == operator) {\n            return true;\n        }\n\n        return super.isApprovedForAll(owner, operator);\n    }\n\n}\n",
  "sourcePath": "/Users/likai/work/htoken/contracts/ComToken.sol",
  "compiler": {
    "name": "solc",
    "version": "0.5.16+commit.9c3226ce.Emscripten.clang"
  },
  "schemaVersion": "3.0.20",
  "updatedAt": "2020-04-05T13:40:48.270Z",
  "devdoc": {
    "methods": {}
  },
  "userdoc": {
    "methods": {}
  }
}