{
  "contractName": "ProxyRegistry",
  "abi": [
    {
      "constant": true,
      "inputs": [
        {
          "internalType": "address",
          "name": "",
          "type": "address"
        }
      ],
      "name": "proxies",
      "outputs": [
        {
          "internalType": "contract OwnableDelegateProxy",
          "name": "",
          "type": "address"
        }
      ],
      "payable": false,
      "stateMutability": "view",
      "type": "function"
    }
  ],
  "bytecode": "0x608060405234801561001057600080fd5b50610116806100206000396000f3fe6080604052348015600f57600080fd5b506004361060285760003560e01c8063c455279114602d575b600080fd5b606c60048036036020811015604157600080fd5b81019080803573ffffffffffffffffffffffffffffffffffffffff16906020019092919050505060ae565b604051808273ffffffffffffffffffffffffffffffffffffffff1673ffffffffffffffffffffffffffffffffffffffff16815260200191505060405180910390f35b60006020528060005260406000206000915054906101000a900473ffffffffffffffffffffffffffffffffffffffff168156fea265627a7a72315820a557271b6a3010972e91dddb10d9eb4e21357c74500558f4973a7304bbbfe31a64736f6c63430005100032",
  "source": "pragma solidity ^0.5.0;\n\nimport './Strings.sol';\nimport \"@openzeppelin/contracts/token/ERC721/ERC721Full.sol\";\n\n\n\ncontract OwnableDelegateProxy {\n    //pass\n}\n\n\ncontract ProxyRegistry {\n    mapping(address => OwnableDelegateProxy) public proxies;\n}\n\n\n//TokenInfo接口\ncontract TokenInfoInterface {\n    function baseTokenURI(uint tokenId) public view returns (string memory);\n    function getTokenImageSvg(uint _tokenId) external view returns (string memory);\n}\n\n\n//主合约，实现了一个721创建多种NFT\ncontract ComToken is ERC721Full {\n    using Strings for string;\n    //alhpa钱包所需要支持的接口\n    /* bytes4(keccak256('getBalances(address)')) == 0xc84aae17 */\n    bytes4 private constant _INTERFACE_ID_Token_BALANCES = 0xc84aae17;\n    //获取代币图标，自定义提案接口\n    /* bytes4(keccak256('getTokenImageSvg(uint256)')) == 0x87d2f48c */\n    bytes4 private constant _INTERFACE_ID_TOKEN_IMAGE_SVG = 0x87d2f48c;\n    //白名单（代理） opensea使用\n    address proxyRegistryAddress;\n    //纪念币信息接口实例\n    TokenInfoInterface public tokenInfo;\n\n    constructor(\n        string memory name,\n        string memory symbol,\n        address _proxyRegistryAddress\n    ) public ERC721Full(name, symbol) {\n        require(_proxyRegistryAddress != address(0), \"ComToken: Zero Address\");\n        proxyRegistryAddress = _proxyRegistryAddress;\n        _registerInterface(_INTERFACE_ID_Token_BALANCES);\n        _registerInterface(_INTERFACE_ID_TOKEN_IMAGE_SVG);\n    }\n\n    //设置tokenInfo地址，仅可设置一次\n    function setTokenInfo(address _address) external {\n        require(_address != address(0), \"ComToken: zero_address\");\n        require(\n            address(tokenInfo) == address(0),\n            \"ComToken: token_address has been setup\"\n        );\n        tokenInfo = TokenInfoInterface(_address);\n    }\n\n    //兼容alpha钱包\n    function getBalances(address owner) public view returns (uint256[] memory) {\n        return _tokensOfOwner(owner);\n    }\n\n    //获取代币图标，兼容自定义提案接口\n    function getTokenImageSvg(uint256 _tokenId) external view returns (string memory){\n        return tokenInfo.getTokenImageSvg(_tokenId);\n    }\n\n    //获取每个代币的uri，兼容opensea\n    function tokenURI(uint256 _tokenId) external view returns (string memory) {\n        require(\n            ownerOf(_tokenId) != address(0),\n            \"ComToken: tokenId is not existed\"\n        );\n        string memory base_uri = tokenInfo.baseTokenURI(_tokenId);\n        return Strings.strConcat(\n            base_uri,\n            Strings.uint2str(_tokenId)\n        );\n    }\n\n    //创建者批量赠送(赠送不占用出售数量)\n    function mintToken(address[] calldata to, uint256[] calldata ids) external {\n        require(\n            address(tokenInfo) == _msgSender(),\n            \"ComToken: permission denied\"\n        );\n        require(to.length == ids.length, \"ComToken: invalid params\");\n        uint256 len = to.length;\n        for (uint256 i = 0; i < len; i++) {\n            _mint(to[i], ids[i]);\n        }\n    }\n\n    /**\n     * Override isApprovedForAll to whitelist user's OpenSea proxy accounts to enable gas-less listings.\n     */\n    function isApprovedForAll(address owner, address operator)\n        public\n        view\n        returns (bool)\n    {\n        // Whitelist OpenSea proxy contract for easy trading.\n        ProxyRegistry proxyRegistry = ProxyRegistry(proxyRegistryAddress);\n        if (address(proxyRegistry.proxies(owner)) == operator) {\n            return true;\n        }\n        \n        return super.isApprovedForAll(owner, operator);\n    }\n}\n",
  "sourcePath": "/Users/likai/work/htoken/contracts/ComToken.sol",
  "compiler": {
    "name": "solc",
    "version": "0.5.16+commit.9c3226ce.Emscripten.clang"
  },
  "schemaVersion": "3.0.20",
  "updatedAt": "2020-04-19T10:45:35.167Z",
  "devdoc": {
    "methods": {}
  },
  "userdoc": {
    "methods": {}
  }
}